:1000000000000020BD040000DB230000E12300000D
:10001000E7230000ED230000F323000000000000B0
:100020000000000000000000000000002D0500009E
:10003000F923000000000000D30500003306000093
:1000400099220000A7220000B5220000C322000070
:10005000D1220000DF220000ED220000FB22000080
:10006000092300001723000025230000332300008C
:10007000412300004F2300005D2300006B2300009C
:1000800079230000FF230000052400000B2400005A
:1000900011240000172400001D2400002324000068
:1000A000292400002F240000352400003B240000F8
:1000B00041240000472400004D2400008723000055
:1000C000532400009523000059240000A3230000BE
:1000D0005F240000B1230000652400006B240000B1
:1000E00071240000772400007D2400008324000098
:1000F000892400008F240000952400009B24000028
:10010000CD040000CD040000CD040000CD040000AB
:10011000A1240000A7240000AD240000B3240000A7
:10012000B9240000BF240000C5240000CB24000037
:10013000D1240000D7240000DD240000E3240000C7
:10014000E9240000EF240000BF230000F524000094
:10015000CD230000FB24000001250000072500003E
:100160000D25000013250000192500001F250000A3
:10017000252500002B250000312500003725000033
:100180003D250000CD040000CD040000CD0400009A
:10019000CD040000CD040000CD040000CD0400001B
:1001A000CD040000CD040000CD040000CD0400000B
:1001B000CD040000CD040000CD040000CD040000FB
:1001C000CD040000CD040000CD040000CD040000EB
:1003F000CD040000CD040000CD040000FFFFFFFF8E
:10040000FFFFFFFFFFFFFFFFFFFFFFFFFEFFFFFFFD
:10044000A3F5803A704700BF174B002B08BF134B32
:100450009D46FFF7F5FF00218B460F461348144ACF
:10046000121A07F0FBFE0E4B002B00D098470D4BE5
:10047000002B00D098470020002104000D000D48FB
:10048000002802D00C4805F0F1FE08F027F8200003
:10049000290001F02FF905F0EFFE00BF0000080071
:1004A00000000000C52600000000002060080020B9
:1004B0006C3C00206D6200002585000072B601F0E2
:1004C00021FC01F0B7FB62B6FFF7BEFFFFF7FEBFEE
:1004D00080F309887047EFF309807047684680F31E
:1004E00009885A480078C00714BF0220032080F30F
:1004F00014887047DFF858C1EFF305831B0618BF57
:100500006047EFF31483DB0708BF604700DF7047E5
:10051000DFF840C1EFF305831B0618BF6047EFF318
:100520001483DB0708BF604700DF7047EFF30980E3
:10053000816911F8021CE1BB90E80F1010B5E0478B
:10054000BDE81040EFF3098C8CE80700424B93E8BC
:100550000600914208BF704741B91EF0100F16D136
:100560003E49086820F00100086010E01EF0100FFE
:1005700006BF2CED108A0120002081F825002CE90F
:10058000F00FC1F828C00CB403F024FB0CBC1A60B7
:10059000D2F828C0BCE8F00F92F8250000280EBF62
:1005A0006FF0020E6FF0120EBCEC108A8CF309880B
:1005B000704710B52A4A1268914209D8294C54F85C
:1005C000214090E80F10A047EFF3098C8CE80F0052
:1005D00010BD10B503F070FABDE810401E4B93E853
:1005E0000600914208BF7047EFF3098C1EF0100F10
:1005F00006BF2CED108A0120002081F825002CE98F
:10060000F00FC1F828C00CB403F0E4FA0CBC1A6077
:10061000D2F828C0BCE8F00F92F8250000280EBFE1
:100620006FF0020E6FF0120EBCEC108A8CF309888A
:10063000704710B503F0B0FAFFF7CEBF10B503F066
:10064000A9FA03F0A9FAFFF7C7BF0000CC92000097
:100650004534000061340000303C002034EF00E0FD
:1006600000000000FCFFFFFF81F0004102E000BF3E
:1006700083F0004330B54FEA41044FEA430594EA62
:10068000050F08BF90EA020F1FBF54EA000C55EA9D
:10069000020C7FEA645C7FEA655C00F0E2804FEA6E
:1006A0005454D4EB5555B8BF6D420CDD2C4480EA50
:1006B000020281EA030382EA000083EA010180EA80
:1006C000020281EA0303362D88BF30BD11F0004FCE
:1006D0004FEA01314FF4801C4CEA113102D0404204
:1006E00061EB410113F0004F4FEA03334CEA13333F
:1006F00002D0524263EB430394EA050F00F0A78057
:10070000A4F10104D5F1200E0DDB02FA0EFC22FA51
:1007100005F2801841F1000103FA0EF2801843FA45
:1007200005F359410EE0A5F120050EF1200E012A36
:1007300003FA0EFC28BF4CF0020C43FA05F3C01874
:1007400051EBE37101F0004507D54FF0000EDCF1ED
:10075000000C7EEB00006EEB0101B1F5801F1BD396
:10076000B1F5001F0CD349085FEA30004FEA3C0C9A
:1007700004F101044FEA445212F5800F80F09A8090
:10078000BCF1004F08BF5FEA500C50F1000041EB94
:10079000045141EA050130BD5FEA4C0C404141EB98
:1007A0000101013C28BFB1F5801FE9D291F0000F93
:1007B00004BF01460020B1FA81F308BF2033A3F142
:1007C0000B03B3F120020CDA0C3208DD02F1140C39
:1007D000C2F10C0201FA0CF021FA02F10CE002F174
:1007E0001402D8BFC2F1200C01FA02F120FA0CFC6D
:1007F000DCBF41EA0C019040E41AA2BF01EB0451B6
:10080000294330BD6FEA04041F3C1CDA0C340EDCB3
:1008100004F11404C4F1200220FA04F001FA02F3F6
:1008200040EA030021FA04F345EA030130BDC4F1B4
:100830000C04C4F1200220FA02F001FA04F340EAA9
:100840000300294630BD21FA04F0294630BD94F05A
:10085000000F83F4801306BF81F480110134013D41
:100860004EE77FEA645C18BF7FEA655C29D094EAB2
:10087000050F08BF90EA020F05D054EA000C04BF30
:100880001946104630BD91EA030F1EBF002100201B
:1008900030BD5FEA545C05D14000494128BF41F0BA
:1008A000004130BD14F580043CBF01F5801130BD1E
:1008B00001F0004545F0FE4141F470014FF00000A9
:1008C00030BD7FEA645C1ABF194610467FEA655C5A
:1008D0001CBF0B46024650EA013406BF52EA0335FC
:1008E00091EA030F41F4002130BD00BF90F0000FEA
:1008F00004BF0021704730B54FF4806404F1320426
:100900004FF000054FF0000150E700BF90F0000FDE
:1009100004BF0021704730B54FF4806404F1320405
:1009200010F0004548BF40424FF000013EE700BFD5
:1009300042004FEAE2014FEA31014FEA02701FBF65
:1009400012F07F4393F07F4F81F06051704732F097
:100950007F4208BF704793F07F4F04BF41F40021EE
:10096000704730B54FF4607401F0004521F000414C
:100970001CE700BF50EA010208BF704730B54FF0D6
:1009800000050AE050EA010208BF704730B511F0D7
:10099000004502D5404261EB41014FF4806404F10F
:1009A00032045FEA915C3FF4D8AE4FF003025FEA95
:1009B000DC0C18BF03325FEADC0C18BF033202EB19
:1009C000DC02C2F1200300FA03FC20FA02F001FA73
:1009D00003FE40EA0E0021FA02F11444BDE600BF16
:1009E00070B54FF0FF0C4CF4E06C1CEA11541DBFC5
:1009F0001CEA135594EA0C0F95EA0C0F00F0DEF890
:100A00002C4481EA030621EA4C5123EA4C5350EA74
:100A1000013518BF52EA033541F4801143F48013C5
:100A200038D0A0FB02CE4FF00005E1FB02E506F056
:100A30000042E0FB03E54FF00006E1FB03569CF0AB
:100A4000000F18BF4EF0010EA4F1FF04B6F5007FB1
:100A500064F5407404D25FEA4E0E6D4146EB060623
:100A600042EAC62141EA55514FEAC52040EA5E50AC
:100A70004FEACE2EB4F1FD0C88BFBCF5E06F1ED856
:100A8000BEF1004F08BF5FEA500E50F1000041EB8D
:100A9000045170BD06F0004646EA010140EA02003A
:100AA00081EA0301B4EB5C04C2BFD4EB0C0541EA5C
:100AB000045170BD41F480114FF0000E013C00F371
:100AC000AB8014F1360FDEBF002001F0004170BD95
:100AD000C4F10004203C35DA0C341BDC04F11404AE
:100AE000C4F1200500FA05F320FA04F001FA05F23A
:100AF00040EA020001F0004221F0004110EBD37007
:100B000021FA04F642EB06015EEA430E08BF20EA32
:100B1000D37070BDC4F10C04C4F1200500FA04F3D5
:100B200020FA05F001FA04F240EA020001F0004167
:100B300010EBD37041F100015EEA430E08BF20EADA
:100B4000D37070BDC4F1200500FA05F24EEA020E22
:100B500020FA04F301FA05F243EA020321FA04F051
:100B600001F0004121FA04F220EA020000EBD37008
:100B70005EEA430E08BF20EAD37070BD94F0000F08
:100B80000FD101F00046400041EB010111F4801F3C
:100B900008BF013CF7D041EA060195F0000F18BFED
:100BA000704703F00046520043EB030313F4801F29
:100BB00008BF013DF7D043EA0603704794EA0C0FE3
:100BC0000CEA135518BF95EA0C0F0CD050EA4106F9
:100BD00018BF52EA4306D1D181EA030101F0004176
:100BE0004FF0000070BD50EA410606BF104619469E
:100BF00052EA430619D094EA0C0F02D150EA0136AA
:100C000013D195EA0C0F05D152EA03361CBF1046EA
:100C100019460AD181EA030101F0004141F0FE4189
:100C200041F470014FF0000070BD41F0FE4141F40D
:100C3000780170BD70B54FF0FF0C4CF4E06C1CEA0D
:100C400011541DBF1CEA135594EA0C0F95EA0C0FC2
:100C500000F0A7F8A4EB050481EA030E52EA03357D
:100C60004FEA013100F088804FEA03334FF080559E
:100C700045EA131343EA12634FEA022245EA1115CB
:100C800045EA10654FEA00260EF000419D4208BF7C
:100C9000964244F1FD0404F5407402D25B084FEA29
:100CA0003202B61A65EB03055B084FEA32024FF4D5
:100CB00080104FF4002CB6EB020E75EB030E22BF32
:100CC000B61A754640EA0C005B084FEA3202B6EBF2
:100CD000020E75EB030E22BFB61A754640EA5C00A1
:100CE0005B084FEA3202B6EB020E75EB030E22BF31
:100CF000B61A754640EA9C005B084FEA3202B6EB32
:100D0000020E75EB030E22BFB61A754640EADC00F0
:100D100055EA060E18D04FEA051545EA16754FEA52
:100D200006164FEAC30343EA52734FEAC2025FEA70
:100D30001C1CC0D111F4801F0BD141EA00014FF0FF
:100D400000004FF0004CB6E711F4801F04BF0143D0
:100D50000020B4F1FD0C88BFBCF5E06F3FF6AFAEEC
:100D6000B5EB030C04BFB6EB020C5FEA500C50F17C
:100D7000000041EB045170BD0EF0004E4EEA1131FF
:100D800014EB5C04C2BFD4EB0C0541EA045170BD06
:100D900041F480114FF0000E013C90E645EA060E4A
:100DA0008DE60CEA135594EA0C0F08BF95EA0C0F78
:100DB0003FF43BAF94EA0C0F0AD150EA01347FF4C0
:100DC00034AF95EA0C0F7FF425AF104619462CE797
:100DD00095EA0C0F06D152EA03353FF4FDAE1046FA
:100DE000194622E750EA410618BF52EA43067FF44B
:100DF000C5AE50EA41047FF40DAF52EA43057FF4DB
:100E0000EBAE12E74FF0FF3C06E000BF4FF0010CE5
:100E100002E000BF4FF0010C4DF804CD4FEA410C49
:100E20007FEA6C5C4FEA430C18BF7FEA6C5C1BD016
:100E300001B050EA410C0CBF52EA430C91EA030F97
:100E400002BF90EA020F0020704710F1000F91EAF4
:100E5000030F58BF994208BF90422CBFD8176FEAC2
:100E6000E37040F0010070474FEA410C7FEA6C5C90
:100E700002D150EA013C07D14FEA430C7FEA6C5C97
:100E8000D6D152EA033CD3D05DF8040B704700BFC3
:100E90008446104662468C461946634600E000BF11
:100EA00001B5FFF7B7FF002848BF10F1000F01BDE3
:100EB0004DF808EDFFF7F4FF0CBF012000205DF8AE
:100EC00008FB00BF4DF808EDFFF7EAFF34BF012033
:100ED00000205DF808FB00BF4DF808EDFFF7E0FFCC
:100EE00094BF012000205DF808FB00BF4DF808ED1D
:100EF000FFF7CEFF94BF012000205DF808FB00BF84
:100F00004DF808EDFFF7C4FF34BF012000205DF865
:100F100008FB00BF4A0011D212F5001211D20DD504
:100F20006FF47873B3EB62520ED44FEAC12343F0EF
:100F3000004343EA505323FA02F070474FF0000099
:100F4000704750EA013002D14FF0FF3070474FF048
:100F50000000704753B94AB9002908BF00281CBFD8
:100F60004FF0FF314FF0FF3000F0E2B8ADF1080C68
:100F70006DE904CE04F090F9DDF804E0DDE9022328
:100F800004B0704700F1340191E838009C46A64651
:100F90004CF8045D90E8FF0FE54600BD90EC210B96
:100FA000704700BF80EC210B704700BF90EC200B16
:100FB000704700BF80EC200B704700BFD0EC200BC7
:100FC000704700BFC0EC200B704700BFF0EC02017F
:100FD000F0EC0211F0EC0221F0EC0231F0EC0241F5
:100FE000F0EC0251F0EC0261F0EC0271F0EC0281E5
:100FF000F0EC0291F0EC02A1F0EC02B1F0EC02C1D5
:10100000F0EC02D1F0EC02E1F0EC02F1704700BF2D
:10101000E0EC0201E0EC0211E0EC0221E0EC023134
:10102000E0EC0241E0EC0251E0EC0261E0EC027124
:10103000E0EC0281E0EC0291E0EC02A1E0EC02B114
:10104000E0EC02C1E0EC02D1E0EC02E1E0EC02F104
:10105000704700BFB0FC0181B0FC0191B0FC01A160
:10106000B0FC01B1704700BFA0FC0181A0FC019160
:10107000A0FC01A1A0FC01B1704700BFEC4600B587
:101080002DE900502DE9FF1F4FF000032DE90C0062
:1010900001A904F0B5FBDDF840E012B0704700BFD5
:1010A000EC4600B52DE900502DE9FF1F4FF000037D
:1010B0002DE90C0001A904F0DFFBDDF840E012B0DF
:1010C000704700BFEC4600B52DE900502DE9FF1F29
:1010D0004FF000032DE90C0001A904F0EFFBDDF84F
:1010E00040E012B0704700BFEC4600B52DE900505B
:1010F0002DE9FF1F4FF000032DE90C0001AB04F0B8
:10110000B3FBDDF840E012B0704700BFEC4600B51D
:101110002DE900502DE9FF1F4FF000032DE90C00D1
:1011200001AA04F01FFCDDF840E012B0704700BFD8
:10113000704700BF00000000000000000000000039
:1011400001F0FF01102A2BDB10F0070F08D010F878
:10115000013B013A8B422DD010F0070F42B3F6D17C
:10116000F0B441EA012141EA014122F007047FF095
:1011700000070023F0E80256083C85EA010586EAEC
:10118000010685FA47F5A3FA87F586FA47F6A5FA28
:1011900087F68EB9EED1F0BC01F0FF0102F0070234
:1011A00032B110F8013B013A83EA010313B1F8D1DF
:1011B0000020704701387047002D06BF35460338C0
:1011C000073815F0010F07D1013015F4807F02BFF9
:1011D000013015F4C03F0130F0BC0138704700BF4A
:1011E000844641EA000313F003036DD1403A41D332
:1011F00051F8043B40F8043B51F8043B40F8043BF1
:1012000051F8043B40F8043B51F8043B40F8043BE0
:1012100051F8043B40F8043B51F8043B40F8043BD0
:1012200051F8043B40F8043B51F8043B40F8043BC0
:1012300051F8043B40F8043B51F8043B40F8043BB0
:1012400051F8043B40F8043B51F8043B40F8043BA0
:1012500051F8043B40F8043B51F8043B40F8043B90
:1012600051F8043B40F8043B51F8043B40F8043B80
:10127000403ABDD2303211D351F8043B40F8043B20
:1012800051F8043B40F8043B51F8043B40F8043B60
:1012900051F8043B40F8043B103AEDD20C3205D330
:1012A00051F8043B40F8043B043AF9D2043208D028
:1012B000D2071CBF11F8013B00F8013B01D30B889A
:1012C00003806046704700BF082A13D38B078DD078
:1012D00010F003038AD0C3F10403D21ADB071CBF4A
:1012E00011F8013B00F8013B80D331F8023B20F8B4
:1012F000023B7BE7043AD9D3013A11F8013B00F8ED
:10130000013BF9D20B7803704B7843708B78837074
:101310006046704700000000000000000000000070
:1013200000000000000000000000000000000000BD
:1013300000000000000000000000000000000000AD
:1013400090F800F06DE9024520F007016FF0000C05
:1013500010F0070491F820F040F049804FF00004AD
:101360006FF00700D1E9002391F840F000F1080088
:1013700082FA4CF2A4FA8CF283FA4CF3A2FA8CF3C0
:101380004BBBD1E9022382FA4CF200F10800A4FA27
:101390008CF283FA4CF3A2FA8CF3E3B9D1E904237B
:1013A00082FA4CF200F10800A4FA8CF283FA4CF3B2
:1013B000A2FA8CF37BB9D1E9062301F1200182FA6C
:1013C0004CF200F10800A4FA8CF283FA4CF3A2FA72
:1013D0008CF3002BC6D0002A04BF04301A4612BA80
:1013E000B2FA82F2FDE8024500EBD2007047D1E983
:1013F000002304F00305C4F100004FEAC50514F012
:10140000040F91F840F00CFA05F562EA05021CBFE2
:1014100063EA050362464FF00004A9E70348044B62
:10142000834202D0034B03B1184770476008002085
:1014300060080020000000000548064B1B1AD90F69
:1014400001EBA301491002D0034B03B118477047C9
:1014500060080020600800200000000010B5064C65
:10146000237843B9FFF7DAFF044B13B10448AFF315
:1014700000800123237010BD6308002000000000DD
:101480003899000008B5054B1BB105490548AFF375
:101490000080BDE80840FFF7CFBF00BF000000009C
:1014A000640800203899000080B590B000AF7860E3
:1014B0000B46FB70FB78002B27D107F12403002299
:1014C0001A605A609A60DA601A615A612D4A7B6824
:1014D00052F833307B62012387F82830012387F8E4
:1014E00029304FF0FF333B6307F12403184603F024
:1014F000E9F8244A7B68DB00134401221A717B68F7
:10150000DB00204A1344FB6336E0FB78012B31D12A
:1015100007F10C0300221A605A609A60DA601A61BF
:101520005A61184A7B6852F83330FB6001233B75DF
:101530004FF0FF33BB6107F10C03184603F034F999
:10154000104A7B68DB00134402221A717B68292B46
:101550000AD97B682C2B07D80A4A7B6852F83330AB
:101560000121184603F05CF97B68DB00054A13444F
:10157000FB6301E00023FB63FB6B18464037BD466D
:1015800080BD00BF0000002080B586B000AF78604D
:101590000B46FB707B687B617B69002B2FD07B69DE
:1015A0001B79022B2BD17B691B681B0ADBB23B61C9
:1015B0007B691B68DBB2FB603B69012B05D1FB68D3
:1015C000162B08D0FB68152B05D03B69042B0FD1D7
:1015D000FB681A2B0CD17B691A68FB78012B14BFAE
:1015E00001230023DBB21946104603F019F906E087
:1015F0007B691B68FA781146184603F011F900BFA1
:101600001837BD4680BD80B485B000AF78607B6878
:10161000FB60FB68002B0ED0FB681B79022B03D10B
:10162000FB6800221A7106E0FB681B79012B02D1CE
:10163000FB6800221A7100BF1437BD465DF8047BB9
:101640007047000080B586B000AF7861184B1B680A
:101650001B68002B0CBF01230023DBB21A46154B7D
:101660001A7011E03B461449184601F01CF900F0CD
:1016700065F80F4B1B681B68002B14BF0123002368
:10168000DBB21A460D4B1A700A4B1B78DBB2002BEB
:10169000E8D1084B00221A70786900F011F8002098
:1016A00001F05AF8002318461837BD4680BD00BF28
:1016B0009092000078010020880800207C0800201B
:1016C00080B582B000AF7860074B01221A60074BEB
:1016D00000221A7000F0F2F9054801F0D1F8002359
:1016E00018460837BD4680BDA408002078010020B8
:1016F0008008002080B586B000AF7861396100F0C5
:10170000E9FB00F0B1FD0A4B1B6800221A6000F0F3
:101710003FF900209FED070A00F070FF3B460649A5
:10172000184601F0C0F8002318461837BD4680BDA2
:10173000909200006F12833A80080020B0B586B006
:1017400000AF904BD3F8A030B3F1FF3F06D08D4BE4
:10175000D3F8A03001338B4AC2F8A030894B93F8FC
:10176000A430002B1ED1874B012283F8A420854B87
:101770000022C3F8A020834B012283F8A520824BCE
:10178000D3E900238149C1E900230123FB60002341
:101790003B6101237B610023BB600123BB710023FC
:1017A000FB718DE0774B93F8A530012B4DD10123D0
:1017B000FB6000233B6101237B610023BB600123AD
:1017C000BB710023FB716F4BD3F8A0406E4BD3E984
:1017D00002016D4BD3E90423FFF72CFA02460B46B6
:1017E00010461946684BD3E90623FEF741FF02462F
:1017F0000B4643EC172BB0EE470AF0EE670A03F0F6
:10180000C3FC53EC102B10461946FFF783FB03462D
:101810009C4255D35B4B0022C3F8A020594B0222B7
:1018200083F8A520584BD3E900235849C1E9002388
:101830000023FB6001233B6100237B610123BB602C
:101840000023BB710123FB713AE00023FB600123FD
:101850003B6100237B610123BB600023BB7101233B
:10186000FB71484BD3F8A040474B93ED067BB0EE9D
:10187000470AF0EE670A03F087FC53EC102B104682
:101880001946FFF747FB03469C4219D33D4B002204
:10189000C3F8A0203B4B012283F8A5203A4BD3E9A3
:1018A00000233A49C1E900230123FB6000233B6187
:1018B00001237B610023BB600123BB710023FB710B
:1018C000304BD3F89C20BB68002B14BF01230023AE
:1018D000DBB219461046FFF757FE2A4BD3F8882093
:1018E000FB68002B14BF01230023DBB2194610460E
:1018F000FFF74AFE234B5A6F3B69002B14BF0123AD
:101900000023DBB219461046FFF73EFE1D4B1B6E4F
:1019100000211846FFF738FE1A4BDC6C1B4BD3E94D
:10192000000101231D464FF000024FF00003FFF7B6
:10193000BFFA0346002B01D000231D46EBB2194627
:101940002046FFF721FE0F4B9A6B7B69002B14BFDB
:1019500001230023DBB219461046FFF715FE094BA1
:101960005B6ABA7911461846FFF70EFE054B1B69F4
:10197000FA7911461846FFF707FE00BF1837BD4633
:10198000B0BD00BFB008002080010020A8080020E2
:1019900080B500AF484B002283F88C20464B0122D3
:1019A000C3F8902001210A20FFF77EFD0346424A3A
:1019B000C2F89C30404B012283F894203E4B002219
:1019C00083F878203C4B0122DA6701210220FFF7DF
:1019D0006BFD0346384AC2F88830374B012283F842
:1019E0008020354B002283F86420334B01229A6615
:1019F00001210820FFF758FD03462F4A53672E4B5D
:101A0000012283F86C202C4B002283F850202A4BB3
:101A100001225A6501210420FFF746FD0346264AAC
:101A20001366254B012283F85820234B002283F8AC
:101A30003C20214B01221A6401210520FFF734FDCF
:101A400003461D4AD3641C4B012283F844201A4BE1
:101A5000002283F82820184B0122DA6201210B2092
:101A6000FFF722FD0346144A9363134B012283F8C8
:101A70003020114B00221A750F4B01229A6101216F
:101A80002A20FFF711FD03460B4A53620A4B01223D
:101A90001A77094B00221A70074B01225A60012164
:101AA0002B20FFF701FD0346034A1361024B01227D
:101AB0001A7200BF80BD00BFB008002080B500AF23
:101AC0005B4B93F88C30002B13D1594B012283F8D8
:101AD0008C20574BD3F89030012B0AD1544B93F8FC
:101AE0009430002B05D0524BD3F89C301846FFF7AA
:101AF0008AFD4F4B93F87830002B12D14C4B0122CA
:101B000083F878204A4BDB6F012B0AD1484B93F8BE
:101B10008030002B05D0464BD3F888301846FFF7AD
:101B200072FD434B93F86430002B11D1404B0122DE
:101B300083F864203E4B9B6E012B09D13C4B93F8FC
:101B40006C30002B04D03A4B5B6F1846FFF75BFDFF
:101B5000374B93F85030002B11D1354B012283F8CD
:101B60005020334B5B6D012B09D1314B93F858302A
:101B7000002B04D02E4B1B6E1846FFF744FD2C4B58
:101B800093F83C30002B11D1294B012283F83C20E3
:101B9000274B1B6C012B09D1254B93F84430002BAC
:101BA00004D0234BDB6C1846FFF72DFD204B93F838
:101BB0002830002B11D11E4B012283F828201C4B0A
:101BC000DB6A012B09D11A4B93F83030002B04D07B
:101BD000174B9B6B1846FFF716FD154B1B7D002B13
:101BE0000FD1134B01221A75114B9B69012B08D1A0
:101BF0000F4B1B7F002B04D00D4B5B6A1846FFF781
:101C000002FD0B4B1B78002B0FD1094B01221A70E0
:101C1000074B5B68012B08D1054B1B7A002B04D0C6
:101C2000034B1B691846FFF7EEFC00BF80BD00BFE9
:101C3000B008002080B489B000AF294BFB60294A6E
:101C4000294B9A4216D00023FB610AE0264AFB6921
:101C500052F823202349FB6941F82320FB69013313
:101C6000FB61FB689B08FA699A42EFD31F4B1D4A40
:101C70009A6002E01D4B1C4A9A601D4BBB611D4BD4
:101C80007B611D4BBB60BA687B69D31AFB6107E0BF
:101C90007A69531C7B61BB69591CB96112781A704F
:101CA000FB695A1EFA61002BF2D1144B3B61144BB5
:101CB0007B607A683B69D31AFB6104E03B695A1C7C
:101CC0003A6100221A70FB695A1EFA61002BF5D1A5
:101CD00000BF00BF2437BD465DF8047B704700BFDE
:101CE00000000000000000000000000000ED00E027
:101CF00000000020089C000068A40000600800208C
:101D00006C3C002080B400AF684BD3F88830674A41
:101D100043F47003C2F88830654B4CF22052DA81EC
:101D2000634B4DF62812DA81614B4FF4E9721A8049
:101D3000604B1B78DBB203F00103002B0FD05E4B2E
:101D40009B78DBB203F00803002B2CD05A4B9B7816
:101D5000DBB2594A43F00803DBB2937023E0574BE0
:101D600003F58053DB6B554A43F0005302F5805274
:101D7000D363534B1B6903F48073002B13D1504B77
:101D80001B6923F47C534E4A43F4407313614C4B5C
:101D90001B694B4A43F480731361494B1B69484AE2
:101DA00023F400731361474B2A221A70434B03F547
:101DB00080531A464FF08A735364404B1B6823F4D8
:101DC00040233E4A43F4002313603C4B03F5805309
:101DD0005B6823F44033394A43F4803302F5805280
:101DE0005360364B03F580539B6B344A43F40073C6
:101DF00002F580529363344B9B6C334A23F080731B
:101E000023F4E0639364314B00221A722F4B5B780A
:101E1000DBB223F06003DBB22C4A43F02003DBB2D9
:101E200053702B4B80221A70284B00221A73274BB9
:101E3000BA221A7000BF254B9B79DBB203F0100366
:101E4000002BF8D1214BDB78DBB2204A03F01F03D3
:101E5000DBB2D3701D4B13221A711C4B18225A711E
:101E60001A4B5B79DBB2194A43F04003DBB2537182
:101E700000BF164B9B79DBB203F04003002BF8D078
:101E8000124B1B78DBB2114A03F03F03DBB2137035
:101E900000BF0E4B9B79DBB203F00C030C2BF8D187
:101EA00000BF00BFBD465DF8047B704700ED00E059
:101EB0000020054000F0074000D0074000700440BB
:101EC00000D0034000E0074000900440004006407E
:101ED0000050064080B483B000AF9C4B1B78DBB24F
:101EE00003F0C003002B40F0DE80984B5B79DBB23F
:101EF00003F04003002B40F0B980944B1B78DBB219
:101F000003F00403002B4ED1904B1B7BDBB203F09C
:101F10000303002B02D0012B03D006E08C4B7B6027
:101F200006E04FF400437B6002E08A4B7B6000BF19
:101F3000864B5B78DBB203F03003002B23D0834B5E
:101F40001B7BDBB203F00303012B1CD07F4B1B7800
:101F5000DBB203F03803302B05D0382B07D14FF418
:101F6000C0637B800EE04FF4A0637B800AE0774B78
:101F70001B78DBB2DB0803F00703202202FA03F32D
:101F80007B8000BF09E0714B1B78DBB2DB0803F0FC
:101F90000703012202FA03F37B807B887A68B2FB95
:101FA000F3F37B6002E04FF400437B60674BDB7828
:101FB000DBB203F0E003E02B51D0E02B00F2B08065
:101FC000C02B45D0C02B00F2AB80A02B39D0A02B6A
:101FD00000F2A680802B2DD0802B00F2A180602BF8
:101FE00021D0602B00F29C80402B15D0402B00F2BA
:101FF0009780002B02D0202B07D091E07A681346FF
:102000009B001344DB017B608BE07A6813469B00E6
:1020100013441B027B6084E07A6813461B019B1A01
:10202000DB017B607DE07A6813469B0013445B0212
:102030007B6076E07B684FF4377202FB03F37B60D2
:102040006FE07B684FF4B76202FB03F37B6068E0EC
:102050007B6840F6950202FB03F37B6061E07B68DE
:1020600040F6713202FB03F37B605AE0374B1B7979
:10207000DBB29BB203F01F039BB201337B807B88F2
:10208000334AB2FBF3F37B60304B5B79DBB29BB23C
:1020900003F01F039BB218337B807A887B6802FBB6
:1020A00003F37B603DE0294B1B78DBB203F0C003F8
:1020B000402B1AD1254B5B78DBB203F00103002BD8
:1020C00003D14FF400437B602BE0204B1B7ADBB243
:1020D0005B0803F00703012202FA03F37B807B888D
:1020E0001D4AB2FBF3F37B601BE0184B1B78DBB29D
:1020F00003F0C003802B22D1144B1B7BDBB203F017
:102100000303002B02D0012B03D006E0104B7B60B1
:1021100007E04FF400437B6003E00E4B7B6000E080
:1021200000BF0E4B03F580535B6C1B0F03F00F03D6
:1021300001337A68B2FBF3F3094A136000E000BF91
:102140000C37BD465DF8047B704700BF0040064079
:1021500080F0FA02006CDC0200093D0000700440CF
:10216000A001002080B584B000AFF860B9601346CC
:10217000FB71BB681F2B05D90D4B0E4AFF210E4882
:1021800004F054F8FB68BA6853F8223023F08073E7
:1021900023F4E063FA79120202F4E06243EA0201F6
:1021A000FB68BA6843F8221000BF1037BD4680BDF7
:1021B00040920000AC9200004C92000080B483B0CA
:1021C00000AF78600B46FB707B68FA781A7000BF2E
:1021D0000C37BD465DF8047B7047000080B584B0C5
:1021E00000AF3B4600221A605A609A60DA60064BE4
:1021F0003B6002237B723B461946002002F0DCF86C
:1022000000BF1037BD4680BD80F0FA0280B584B0B3
:1022100000AF074A3B1D07CA83E807003B1D19466C
:10222000002002F00DF900BF1037BD4680BD00BF91
:102230008492000080B500AF2A210848FFF7BEFF56
:10224000002212210648FFF78DFFFFF7C7FFFFF7B7
:10225000DDFF044802F048F900BF80BD00E0074000
:10226000009004409492000080B582B000AF01F06D
:10227000E3FF0023FB7106E0FB79184602F08CF9BE
:10228000FB790133FB71FB79042BF5D9FFF7D2FF02
:1022900000BF0837BD4680BD80B500AF002002F00A
:1022A000A5F900BF80BD80B500AF012002F09EF906
:1022B00000BF80BD80B500AF022002F097F900BFDB
:1022C00080BD80B500AF032002F090F900BF80BD53
:1022D00080B500AF042002F089F900BF80BD80B551
:1022E00000AF052002F082F900BF80BD80B500AFCD
:1022F000062002F07BF900BF80BD80B500AF07204B
:1023000002F074F900BF80BD80B500AF082002F074
:102310006DF900BF80BD80B500AF092002F066F9FD
:1023200000BF80BD80B500AF0A2002F05FF900BF9A
:1023300080BD80B500AF0B2002F058F900BF80BD12
:1023400080B500AF0C2002F051F900BF80BD80B510
:1023500000AF0D2002F04AF900BF80BD80B500AF8C
:102360000E2002F043F900BF80BD80B500AF0F2002
:1023700002F03CF900BF80BD80B500AF002002F044
:102380004DF900BF80BD80B500AF002002F0C6FD52
:1023900000BF80BD80B500AF012002F0BFFD00BFCF
:1023A00080BD80B500AF022002F0B8FD00BF80BD47
:1023B00080B500AF032002F0B1FD00BF80BD80B545
:1023C00000AF042002F0AAFD00BF80BD80B500AFC1
:1023D000052002F0A3FD00BF80BD80B400AFFEE782
:1023E00080B400AFFEE780B400AFFEE780B400AF7A
:1023F000FEE780B400AFFEE780B400AFFEE780B434
:1024000000AFFEE780B400AFFEE780B400AFFEE7A8
:1024100080B400AFFEE780B400AFFEE780B400AF49
:10242000FEE780B400AFFEE780B400AFFEE780B403
:1024300000AFFEE780B400AFFEE780B400AFFEE778
:1024400080B400AFFEE780B400AFFEE780B400AF19
:10245000FEE780B400AFFEE780B400AFFEE780B4D3
:1024600000AFFEE780B400AFFEE780B400AFFEE748
:1024700080B400AFFEE780B400AFFEE780B400AFE9
:10248000FEE780B400AFFEE780B400AFFEE780B4A3
:1024900000AFFEE780B400AFFEE780B400AFFEE718
:1024A00080B400AFFEE780B400AFFEE780B400AFB9
:1024B000FEE780B400AFFEE780B400AFFEE780B473
:1024C00000AFFEE780B400AFFEE780B400AFFEE7E8
:1024D00080B400AFFEE780B400AFFEE780B400AF89
:1024E000FEE780B400AFFEE780B400AFFEE780B443
:1024F00000AFFEE780B400AFFEE780B400AFFEE7B8
:1025000080B400AFFEE780B400AFFEE780B400AF58
:10251000FEE780B400AFFEE780B400AFFEE780B412
:1025200000AFFEE780B400AFFEE780B400AFFEE787
:1025300080B400AFFEE780B400AFFEE780B400AF28
:10254000FEE7000080B584B000AF7860114B1B68D7
:10255000002B02D10F4B104A1A600E4B1B68FB6018
:102560000C4B1A687B6813440C4A934207D905F058
:10257000AFFF03460C221A604FF0FF3306E0054B15
:102580001A687B681344034A1360FB6818461037C7
:10259000BD4680BD5C0900200000FF1F0000002038
:1025A00080B582B000AF7860034800F069F900BFE1
:1025B0000837BD4680BD00BF8808002098B500AF31
:1025C000094B0A4A1A600A4B0A4A1C1D13460FCBD4
:1025D00084E80F0000F0B9F80346054A1360064B83
:1025E000034A1A6000BF98BD8808002090080020A8
:1025F00084090020009300008008002080B586B088
:1026000002AF87ED010A38600223FB60FFF7D6FFB7
:10261000164800F025F90346BB60154800F020F984
:102620000346BB60002300930023FA681149124857
:1026300000F062F80346BB600023104A01211048F5
:1026400000F09BF80346BB60D7ED017A9FED0D7A51
:1026500067EE877AFCEEE77A17EE901A084800F0EA
:10266000B3F800BF1037BD4680BD00BF880800200A
:10267000800800204516000090080020A1250000D9
:102680006009002000007A4480B400AFFEE700BF7C
:1026900080B483B000AF78607B68013B032B0BD81C
:1026A00001A252F823F000BFB9260000B9260000AD
:1026B000B9260000B926000000BFFEE7704700BF42
:1026C000704700BF0020002104460D46084803F073
:1026D000CDFD05F003FF2046294600F0B1F905487D
:1026E000002100F069FA00F0BFF903F0C5FD000019
:1026F000258500000093000080B586B000AFF8602B
:10270000B9607A603B60FB68BA685A60FB687A68B7
:102710009A60FB680122DA603A68FB681A61FB681C
:102720000433396A184600F047FA0246FB681A601B
:10273000FB681B68002B14BF01230023DBB27B6105
:102740007B6918461837BD4680BD80B500AF00F0E4
:1027500085FA0346184680BD80B584B000AF786026
:1027600000F07CFA0346FB60F86800F083FA034649
:10277000BB6000BF1037BD4680BD80B586B000AFDE
:10278000F8607A603B600B46FB72FB6803F10C0259
:10279000FB689A60FB687A685A60FB680433F97AD0
:1027A0003A68184600F070FB0246FB681A60FB6846
:1027B0001B68002B14BF01230023DBB27B617B6904
:1027C00018461837BD4680BD80B584B000AF78602C
:1027D00039607B681B683968184600F089FB03463E
:1027E000FB60FB6818461037BD4680BD84B080B5DD
:1027F00082B000AF07F1100C8CE80F003B69796ADA
:10280000184600F04BFC03467B607B68184608378F
:10281000BD46BDE8804004B0704784B080B500AFCD
:1028200007F1080C8CE80F00BB68F969184600F046
:1028300055FC03461846BD46BDE8804004B07047CD
:1028400080B582B000AF786039607B684FF0FF32AE
:102850003968184600F050FC78680837BD4680BDDE
:1028600080B485B000AF78607B6801225A60012394
:10287000FB60FB6818461437BD465DF8047B704763
:1028800080B584B002AF78607B681B687A68526854
:1028900001921A6900920FCBFFF7A8FF0346184672
:1028A0000837BD4680BD80B584B002AF786039601E
:1028B0003B681B683A68526801921A6900920FCB14
:1028C000FFF7ABFF3B685A687B6811461846FFF775
:1028D000B7FF78680837BD4680BD000000B5DFF857
:1028E0000CC000DFDFF808C000DFFEE7592B000056
:1028F000712B00002DE9F041344C237853B1344B57
:102900001B68FF229A70334A002001231070237045
:10291000BDE8F081304B3148196800F00BFD00280C
:102920004CD101F079FB2A4B21781B68FF229A7069
:102930000029E8D12A4A1368002B44D0556845B1D4
:102940002A78002A38D1191D890089B2284600F05A
:10295000B5FD244B244A1E68156096B35D68EA1CD9
:10296000062A2ED8DF688FB9291D30463B463A46E5
:1029700001F010FA054620B31C4B1D4A681E53F89F
:102980002050AB6A5A631B4B1D60BCE739461348A5
:1029900000F0DEFC8046A0B1291D41EA0721304647
:1029A0000023424601F0F6F905460028E4D14146ED
:1029B0000A4800F0F1FCE6E70D46CAE78520BDE8CD
:1029C000F0810025DFE71D46C3E700BFEC3B002098
:1029D000303C0020ED3B0020DC920000502C002019
:1029E000F4920000E49200004438002014380020E3
:1029F000DD2800002038002038B50F4C207808B1C1
:102A0000002038BD0D4D2B6893F8241001F072F9A9
:102A10002B68DA78FF2A03D19A6A203282F3098878
:102A20006A682AB101F066FB01232370002038BDDB
:102A3000C5E90023F6E700BFED3B0020303C002055
:102A400010B5EFF305845CB9EFF31484E40703D504
:102A5000DFF810C000DF10BDBDE81040FFF74ABF2F
:102A6000822010BDF528000010B588B0EFF3058472
:102A70001CBBEFF3148404F00304022C24D0032CB9
:102A800014D0012C16D008AC84F30988114C24789A
:102A9000E40715D4032484F31488BFF34F8FBFF3E6
:102AA0006F8FDFF834C000DF08B010BD094C247808
:102AB000E407F6D5FF2008B010BD822008B010BD95
:102AC000022484F31488E8E7024C2478E407E8D46D
:102AD000E0E700BFCC920000F929000098B3F8B5F8
:102AE000066876B34768FB1C062B2AD8C2680446E2
:102AF0000D46BAB11146154800F02AFC064600B34F
:102B00006268E1682068043242EA01212B463246BD
:102B100001F040F9044660B931460C4800F03CFC35
:102B20002046F8BD0B463046391D01F033F9044606
:102B300038B1601E064B074A53F82000836A5A6377
:102B4000F8BD0020F8BD0020704700BF502C0020C9
:102B500014380020DD28000008B501F0C3F818B1D2
:102B60000138024B53F8200008BD00BF1438002084
:102B7000D0B1820718D138B50478BCB9C28C0346ED
:102B8000C0785AB1DD6A01F069F9FF2810D04DB163
:102B90002946084800F000FC204638BD01F05EF9E7
:102BA000FF2805D0002038BD80207047802038BD28
:102BB000812038BD502C0020F8B5EFF305848CB986
:102BC000EFF31484E40702D41F4C247864B1DFF8D7
:102BD00088C000DFF8BD0B463046391D01F0DAF839
:102BE000044640BB0020F8BD0028FBD00668002E3C
:102BF000F8D04768FB1C062BF4D8C2680D46044683
:102C0000002AE8D01146114800F0A2FB0646002831
:102C1000E8D06268E1682068043242EA01212B466C
:102C2000324601F0B7F8044628B93146074800F0AB
:102C3000B3FB2046F8BD601E054B064A53F8200042
:102C4000836A5A63F8BD00BFED3B0020502C002082
:102C500014380020DD280000DD2A000010B5EFF355
:102C600005841CB9DFF808C000DF10BD002010BDCE
:102C7000592B000010B5EFF305841CB9DFF808C02C
:102C800000DF10BD822010BD712B0000A0B10368D1
:102C90009BB143688BB101290ED830B40A4C24682B
:102CA0006CB11C795CB9012559711D711C60C3E9B7
:102CB000042030BC18467047002318467047002394
:102CC000184630BC704700BF20380020820727D14B
:102CD00030B3002951D0F8B5314B1A68002312F1F6
:102CE000FF3643F1FF3704464FF47A70E0FB01678B
:102CF00030463946FEF72EF92379012B12D0022BEC
:102D00000CD1284D2A684AB1944238D0114602E0CD
:102D10009C4228D019460B68002BF9D18120F8BDC0
:102D2000802070471F4DE06002232A682371002A2B
:102D30002AD09668B04206D22CE09D688D420BD80E
:102D400008462E461A461368811B002BF5D12360D6
:102D5000A16014600020F8BDA16099682360081A82
:102D600006449E60F5E723680B602368002BE0D0E3
:102D70009968A66831449960D9E78620704723682E
:102D80002B600BB11A46F3E70023A06023602C6090
:102D90000020F8BDA06093682260181A9060F6E7E2
:102DA000D0920000F03B0020830704D130B1D0E97D
:102DB00004131868704700200146704701467047A9
:102DC0002DE9F8432E4F3C68002C37D0A368013B17
:102DD000A360002B32D1DFF8AC902668D9F8005000
:102DE0003E6025B195F80080B8F1010F17D004209E
:102DF000FFF74EFCA2609A682360551B65449D60F6
:102E00000460DEB1B368CBB9D9F8005033683B60D9
:102E1000002DECD02A78012AE9D134461E462846F6
:102E200000F0ACFB0028E2D02846214600F0AAFBC7
:102E30006379012B04D084F80480E2E7BDE8F883CD
:102E40003868E56890B1D0F808C0654506D211E051
:102E500099689142CED815468C4618460368A5EB72
:102E60000C02002BF4D12360A260C9E72060A560AA
:102E70003C60C6E7A560836820605D1B8560F7E75E
:102E8000F03B00204438002030B5EFF305840CBB44
:102E9000EFF31484E40702D4124C24782CB1DFF849
:102EA0004CC000DF0346184630BDC0B10368002B9C
:102EB000F9D04368002BF6D001290ED80A4D2D68B1
:102EC00045B11D794DB901241D605971C3E9042034
:102ED0001C71E8E70023184630BD2346E3E70346AC
:102EE000E1E700BFED3B0020203800208D2C0000E2
:102EF00010B5EFF305841CB9DFF808C000DF10BD82
:102F0000822010BDCD2C000008B50B4DEFF30580DD
:102F10004FF0FF310028F9D12868DFF820C000DF2A
:102F20001028F3D10846DFF818C000DF0446002857
:102F3000ECD00846A047E9E74438002025310000DE
:102F4000A92D000010B570B183070CD1037853B9D7
:102F50000B0C1B043BB9034688B21C8BD97800F0DC
:102F600029FD204610BD4FF00044204610BD00BF93
:102F700010B570B183070CD1037853B90B0C1B0447
:102F80003BB9034688B21C8BD97800F03FFD204640
:102F900010BD4FF00044204610BD00BF2DE9F041A8
:102FA0004FEA10484FEA0848B8F1000F48D10D46E3
:102FB000044640B380B291B14A1C5DD0344B994273
:102FC00063D8344B1A684FF6FE714FF47A73561E6D
:102FD00003FB0563B3FBF2F38B4200D899B20122E5
:102FE00000F0C6FC022844D0002D14BF4024002469
:102FF000002001460E460F464546204629463246E9
:103000003B46BDE8F08159B34B1C38D0204B994268
:1030100038D8204B1A684FF6FE714FF47A73501E61
:1030200003FB0505B5FBF2F58D4200D8A9B20022DD
:103030004FF6FF7000F09CFC02280BD04024D7E72D
:10304000002586242E462F462046294632463B46FA
:10305000BDE8F081104B1B680824B3F81A80C7E75D
:1030600042464FF6FF7000F083FC0228F2D044463F
:10307000BEE7A0460824BBE74FF6FF71AFE74FF667
:10308000FF71D4E74FF6FE71D1E74FF6FE71A6E768
:1030900000093D00D0920000303C002070B5EFF3F5
:1030A00005852DB9DFF830C000DF0446204670BD2D
:1030B000044668B183070BD103784BB90B0C1B0492
:1030C00033B988B2E178248B00F0ACFC204670BDA7
:1030D0004FF00044204670BD452F000010B5EFF3BF
:1030E00005841CB9DFF80CC000DF10BD4FF00040B4
:1030F00010BD0000712F000070B50446EFF3058588
:103100004DB908461146DFF818C000DFC4E90001D8
:10311000A260204670BD82230360204670BD00007F
:103120009D2F0000F0B5034685B000283AD0027804
:10313000012A2AD10C4600293ED04A1C49D0264AF1
:1031400091422CD8254A11684FF47A75481E4FF6E3
:10315000FE7205FB0404B4FBF1F4944200D8A2B261
:10316000184602A900F0B6F9012830D00020024626
:1031700003461020029904460D4616461F46204677
:10318000294632463B4605B0F0BD002580242E4638
:103190002F462046294632463B4605B0F0BD4FF645
:1031A000FE72DDE70546064607468024204629468E
:1031B00032463B4605B0F0BD0A4602A900F08AF946
:1031C0000128D3D10020024603462046D2E74024FE
:1031D000F8E74FF6FF72C3E700093D00D092000008
:1031E000274B2DE9F047C58CD3F80090C66AAD088F
:1031F00008BFC9F38D0506EB8504630748BF043C8F
:103200008046A4F140074FF080738A4644F8081CBA
:1032100044F8043C38463822002105F01FF8D8F85D
:103220001C3044F8203C19F0805F3B46C8F82870F9
:10323000C8F830A01FD0112D1DD9103D6D08012DEB
:1032400012D06FF03702A2EBC50214444FF0CC321B
:1032500043F8042C43F8082DA342F9D1C5EB45757A
:1032600007EBC50303F108073B1F9E423CBF4FF02D
:10327000CC3347F8043C034B3360BDE8F08700BF14
:10328000C4920000A52E5AE290F82520836A12B15C
:1032900060331960704720331960704710B490F89C
:1032A0002540836A2CB16033C3E900125DF8044BFA
:1032B00070472033C3E900125DF8044B704700BF2C
:1032C000084B1B68DA0107D5074B1B68DB0703D5E2
:1032D000064B1B68002B00DB7047054B01221A7060
:1032E000704700BFFCED00E0800E00E0000E00E043
:1032F000F43B002010B4094C2368002BFCD0036B76
:10330000064A23601368002BFCD0C3785DF8044B99
:1033100043EA01239BB21380704700BF7C0000E0AA
:10332000034A1368002BFCD0C0B21070704700BF76
:103330007C0000E0034648B1072907D90439002280
:10334000084418605A5010465A6070470120704770
:10335000F0B1F1B10B3170B4036821F0030603E062
:103360001968184649B10B46446802199D1AAE42C5
:10337000F6D82CB9466000F10801084670BC7047C9
:1033800002F10801C2E90036026070BC08467047CD
:1033900001460846704700BFC0B1B9B1083988423C
:1033A0001DD010B404689CB1A1421CD0236823B97D
:1033B0000EE01A681C465AB113469942F9D15CB125
:1033C0001B68236000205DF8044B704701207047A4
:1033D00001205DF8044B704700205860F3E7034676
:1033E00000205860704723460446E9E7002A30B4BD
:1033F0001FDB033222F003020C24BAB113198B42F3
:1034000014D8044401448D1AA3189D42C0E9004118
:10341000826015D3002100E003469818854263506E
:103420001144F9D20020186030BC7047012030BC34
:10343000704722F00042073222F007021024DCE736
:103440002346EFE7EFF3108372B6026803F001033F
:103450000AB11168016003B962B61046704700BF37
:1034600081420DD343688B420AD9EFF3108372B6C1
:1034700002680A60016013F0010003D162B6704770
:103480000120704700207047426882B110B500F0FB
:103490001DF9044600F032FA012161702046FFF761
:1034A000F3FE21460448BDE8104000F0E7B842882A
:1034B00001324280704700BFFC3B002010390023DE
:1034C00089080122C18102808370C0E901338381B0
:1034D000704700BF38B5838904467BB915465AB199
:1034E000254A4368116823B300F0C8F8284608212C
:1034F00000F0D0FB012038BD012038BD4389C289CE
:10350000181D01339BB254F8200008609A42638171
:1035100004BF00236381636813B16378022B0ED06C
:10352000EFF3108372B6A389013BA38162B600203A
:1035300038BD01224160C1E901304270D6E7204622
:1035400000F0C4F800210546FFF79EFE2389E289BA
:10355000E869191D01339BB29A4244F82100238186
:1035600004BF00232381284600F0C8F9284600F054
:1035700055FB002038BD00BF303C0020C289808947
:10358000101A704708B500F0D1F9BDE8084000F006
:1035900083BA00BF426870B503464AB14578022D30
:1035A0000E4604463DD0032D1AD0012D30D070BDFB
:1035B0008489C08984425AD21889043043F8201083
:1035C000EFF3108172B699890131998162B6198938
:1035D000D889013189B288421981E8D11A8170BD38
:1035E0000846FFF72FFF05460028E0D0204600F0F0
:1035F0006DF829460446FFF747FE01236370204615
:1036000000F07CF921461C48BDE8704000F036B857
:1036100000F05CF8044632461021FFF73FFE65706B
:10362000EDE700F053F800210546FFF72DFE238952
:10363000EA69043344F82320EFF3108372B6A389B8
:103640000133A38162B62389E28901339BB29A4296
:10365000238104BF00232381012328466B7000F0DF
:103660004DF929460448BDE8704000F007B8032032
:10367000BDE87040FFF70CB8FC3B002030B4057883
:1036800042688C78013DEDB2EAB19378A34204D24E
:103690000FE0987884420ED81A465368002BF8D170
:1036A0000023022D4B60516000D900228A6030BC9B
:1036B000704713460246022D4B605160F5D8996061
:1036C00030BC8A6070470246EAE700BF0278436870
:1036D000013A59684160022A07D811B10022886076
:1036E0005A6000229A601846704700225A601846B5
:1036F000704700BF034B5A684260002258608260E6
:10370000704700BFFC3B0020816830B400292FD0F7
:103710000B780A461BB992681378002BFBD04468DB
:103720004C604568546805B1A960013B8578D9B201
:10373000002C3AD0A378AB4204D20FE09A7895429D
:103740000ED81C466368002BF8D100230229436081
:1037500060600AD90023836030BC7047234614465A
:10376000022943606060F5D89860846030BC70477F
:103770004378012BF0D10E494C68A0420DD04CB1DA
:10378000626890420FD02AB15368984206D01A4618
:10379000002AF9D10B78064AC7E70A464568556002
:1037A0000B78034AC1E72246F8E71446CDE700BF8D
:1037B000FC3B002070B4164EF36823B3B58AA942CF
:1037C0002A4602D821E0A4B123469D8ADC682A4417
:1037D0009142F8D895B2C460D860C268036102B162
:1037E00010616A1A82829A8A551B2944998270BC98
:1037F0007047891A89B20022C26070BCD860036128
:103800009982828270473346F5E71C463346E2E7E9
:10381000143C00202DE9F0432A4DEB68002B4AD0E0
:10382000A88A013880B2A882002844D1264F274AAE
:103830003E78B2F800E0013EF6B2B8464FF0010C17
:103840009A6832B15968516011B159688A605860FC
:1038500098607A689C78002A2FD09178A14205D28E
:103860001EE091F802904C451CD80A465168002988
:10387000F7D1022E5860536000D900225C789A601C
:10388000042C998A02D1DA8A72449A82DA6883F81F
:1038900001C06AB11561C3E9030081B91346CFE7DE
:1038A00011464246022E59605360E6D88B60E5E728
:1038B000A982EA601A61BDE8F0834246D9E7A9828D
:1038C000EA60F8E7143C0020FC3B0020F83B0020B5
:1038D00083682BB142685A60426842B19360704776
:1038E000054B5A68904203D01346002AF9D170471D
:1038F00042685A60704700BFFC3B002003699BB1DF
:10390000C268DA6062B1998A10B4848A21449982CB
:10391000002413610023C46003615DF8044B704709
:103920009A82002303617047704700BF30B40F4B89
:10393000DC78EFF3108272B69A78944208D9551C5D
:103940001A789D70551CAC4214BFEDB200251D7055
:1039500062B6DC78944205D903EBC203C3E90101E6
:1039600030BC7047022030BCFEF792BE903700207A
:1039700038B50F4B1C68238B00EA030552B1A842EF
:103980000BD006250A4660832946104600F082F9CE
:10399000012038BD35B90525F4E723EA000020836E
:1039A000022038BD23EA000020836583022038BD51
:1039B000303C00200139144B10B553F8214044B17C
:1039C000218B6378628B0843062B208318D0052B4C
:1039D00000D010BD10EA0203FBD0638320EA02008E
:1039E00020832046FFF78AFF012320466370628B05
:1039F0000821FFF753FC2046BDE8104000F00EB947
:103A000032EA0003EAD010BD143800200139044B1B
:103A100053F821301BB11A8B22EA00021A83704737
:103A20001438002008B50139064B53F821303BB15A
:103A300001461846FFF77AFFBDE8084000F02CB8B1
:103A400008BD00BF1438002038B5038B4278458B81
:103A50001943062A018319D0052A00D038BD11EA7E
:103A60000503FBD0438321EA050104460183FFF7E8
:103A700045FF012320466370628B0821FFF70EFC8F
:103A800021460448BDE83840FFF7F8BD35EA010398
:103A9000E9D038BDFC3B0020054B1A7822B9054B14
:103AA0004FF080521A60704701229A70704700BF31
:103AB0006008002004ED00E038B5234B234C186863
:103AC00001234370FFF716FE6378A2781D46C2B14A
:103AD00004EBC5014B681A78184662B3012A2ED050
:103AE000FFF7D2FCE3780135AB4212D0EFF310833D
:103AF00072B6A378013BA37062B6A378002BE7D11E
:103B0000EBB213486370FFF7E1FDBDE8384000F009
:103B100073B8EFF3108372B6A378013BA37062B65B
:103B2000A578002DECD0002504EBC5014B681A7870
:103B30001846002AD2D10989FFF786FFD2E78968A3
:103B4000FFF728FDCEE700BF303C00209037002073
:103B5000FC3B00200A4A0B490B480C4B10B414687C
:103B60000C600B4A002407210460196013685DF89B
:103B7000044B43F07F434FF0FF301360704700BFAA
:103B8000C892000014E000E018E000E010E000E05F
:103B900020ED00E0704700BF08B50B4B186801230B
:103BA0004370FFF7A7FDFEF78BFD084A136801334A
:103BB0001360FFF72FFEFFF703F90548FFF786FDB7
:103BC000BDE8084000F018B8303C0020F83B002069
:103BD000FC3B0020064B1B68D3E90A329A4203D80B
:103BE0001268044B9A4202D00120FEF751BD704783
:103BF000303C0020A52E5AE2064A074B1278586046
:103C0000022141702AB11B68984202D0C078FFF7A8
:103C100087BB7047F43B0020303C002038B500B330
:103C2000194D82780446286883789A4211D9FFF7A3
:103C300061FD164A2B6812780120022158706C60D1
:103C40006170DAB1A34219D0E078BDE83840FFF7DF
:103C500067BB0123637021460D48BDE83840FFF77C
:103C60000DBD0B48FFF732FD084A074B127858602C
:103C70000221417012B11B68984200D138BDC07852
:103C8000BDE83840FFF74CBB303C0020F43B00203F
:103C9000FC3B002000B9704738B54FF6FF720E4D5F
:103CA00090420C462B6804D001461846FFF782FD6F
:103CB0002B685C700948FFF709FD094B68601B78A9
:103CC000022242703BB12B68984204D0C078BDE814
:103CD0003840FFF725BB38BD303C0020FC3B0020BE
:103CE000F43B0020024B186800B1C078704700BF59
:103CF000303C002038B5C0B1214B1B88834237D3FC
:103D00000138204B53F82040002C31D01E4DA170BB
:103D10002B6884F824109C420CD02046FFF7F4FC5A
:103D20006378012B26D0002038BD174D2B68997081
:103D300083F82410154C626892788A42F3D91946A8
:103D40002046FFF79BFC2B6801225A702046FFF7A4
:103D5000BDFC0F4B68601B7802224270002BE2D042
:103D60002B689842DFD0C078FFF7DAFA002038BD20
:103D7000FF2038BD0548FFF7A9FCFFF74FFFD2E74A
:103D8000C092000014380020303C0020FC3B002092
:103D9000F43B00202DE9F04111F0FF0F0D460646DF
:103DA000294890461F4608BF0135FFF74BFB0446E4
:103DB00060B30023C5F30F214FF48072EDB2C0F859
:103DC0002C80C761C184857080F824500280036212
:103DD000C0E90133C0E90333C0E9053380F8253079
:103DE000C1B120463146FFF7FBF9184B188868B17E
:103DF000174E33682BB33246012303E052F8041FF9
:103E000069B12B46984203F10105F7D100252846F8
:103E1000BDE8F0810F48FFF715FBE062E1E7E9B28A
:103E20000D4A46F823401378E1702BB92046FFF77E
:103E3000F5FE2846BDE8F08101212046FFF75AFA39
:103E4000F4E701210D46EBE798090020C09200003D
:103E500014380020400A0020F43B00202DE9F84FE0
:103E6000664E346800285ED0E37883425BD0644BB2
:103E70001B888342C0F0BF80471EDFF898B15BF813
:103E80002790B9F1000F00F0B6804846FFF720FDFB
:103E90004846FFF733FDD9F8204044B36368DFF8A4
:103EA0006CA14FF001082046DBB1FFF70FFC0021A9
:103EB0000546FFF7E9F92846FFF720FD85F8018060
:103EC00029465046FFF7DAFBE2682B6AE360A560FB
:103ED000A4F802802C6252B1144620466368002B7D
:103EE000E3D1E2686380C4E90233002AF4D1454D8E
:103EF000D9F82C10444800244BF82740FFF7B0FABB
:103F00002B78C9F82C40002B70D1404C40484946D2
:103F1000FFF7A6FA636831689A788B789A425ED880
:103F20000020BDE8F88F00236370FCF7D4FAA0628C
:103F3000FFF750FE33681C6A34B36368DFF8CC8047
:103F400001272046CBB1FFF7C1FB00210546FFF753
:103F50009BF92846FFF7D2FC6F7029464046FFF7D1
:103F60008DFBE2682B6AE360A56067802C6252B12A
:103F7000144620466368002BE5D1E2686380C4E9FB
:103F80000233002AF4D13368DA78D96A21481D4D0A
:103F9000531E002440F823401B48FFF761FA3368A2
:103FA0002A78DC62AAB91A481946FFF759FA0024A0
:103FB00016483460FFF78AFB2B787060022242704B
:103FC000002BADD033689842AAD0C078FFF7A8F98B
:103FD000A6E718462146FFF78DF93368E3E701238A
:103FE00020464B70FFF74AFB2046E3E72146484650
:103FF000FFF780F989E7FF20BDE8F88F303C00200B
:10400000C0920000F43B0020400A0020FC3B00204E
:10401000980900201438002038B5FFF751F9244BD7
:104020001A8822B192000021224804F017F9224B8D
:1040300022481988224D3422FFF7D8F9214A224B11
:1040400012881968214842F00042FFF7CFF9204B4F
:10405000204A186811880822FFF7C8F91E4B1B4830
:104060000024C5E90034C5E90244C5E90444AC6153
:10407000C5E90844FFF7E6F91849E8622846FFF762
:10408000AFF8174B174A1D601748184912780223DA
:104090006B70174BC270042204800A701A704C6057
:1040A000C3E903449C82BDE83840FEF707BB00BF6C
:1040B000C092000014380020D4920000980900201B
:1040C000383C0020C4920000D8920000400A002032
:1040D00048380020FC920000000100FF8926000003
:1040E000303C0020E092000090370020FC3B002094
:1040F000143C002008B51E4B1A6842F47F021A6077
:104100001B681B0203F07F43DB43B3FA83F3194AB6
:10411000194812680168DBB2C3F10803C2F3022236
:10412000934298BF531C6FF0807202FA03F303F0BE
:104130007F4321F07F4213430360FFF70BFD0F4BDA
:104140000028186012DB00F1604000F56440FF2297
:1041500002701A6853099B0003F1604303F5614341
:1041600002F01F02012101FA02F21A6008BD00BF2D
:1041700020ED00E00CED00E01CED00E02C3C002008
:1041800073B50E4B0E484FF085440125C3F8005718
:10419000002640F201132660ADF80030009900F0CF
:1041A0006BFB4FF48073ADF804300199044800F0C4
:1041B00045FBA661256002B070BD00BF00009042C3
:1041C0000000044010B5044628B90A4B0A4A0B48BF
:1041D000CC2102F02BF84378FF2B09D000F0FEF938
:1041E00063780133DBB2637000F0EEF9002010BD9C
:1041F0000120FCE710930000559300001593000088
:104200000A4B00229A6403F140029A6303F13002E0
:104210009A6203F120029A6103F110029A60044A43
:104220001360044BC3E90233704700BF50380020CD
:104230004C380020A038002008B5FFF7E1FFFFF759
:104240009FFF002008BD00000A4A137803F03F03D7
:1042500043F0800313709379C3F38103022BFAD1E7
:10426000054B002283F8B82093F8D420002AFBD114
:10427000704700BF004006400000C84270B50446C9
:1042800088B00D46417A4248059100F053FC2388DE
:104290000599042B31D1802801D1FFF7D5FF07AB59
:1042A000CDE9005322796379E179394800F080FC47
:1042B000384B012283F82420364DA3782B71E37804
:1042C0002B70A3786BB12379012B03D1617930482E
:1042D00000F068FB237985F8203095F8C0209342E0
:1042E000FBD1A07A00284DD02948E37A627B217B5C
:1042F00000F0A8FB002008B070BD082B1BD180285F
:1043000001D1FFF7A1FF234B214E002283F8242087
:1043100007ABCDE90153E3790093A279237A3046C4
:1043200000F0A4FC337803F03F033370B37913F04B
:104330000C0FFBD1C0E7802B28D1802807AE0ED010
:10434000144B1348002283F82420E3790093CDE92D
:104350000156237AA279059100F088FC05990C4D4D
:10436000637B00930196237B0022284600F0F6FC35
:104370002B7803F03F032B70AB79C3F38103032B3E
:10438000FAD199E7034B83F89800B4E70120B2E72C
:10439000004006400000C842064B0A7853F820301F
:1043A00003F1424303F580135B011A774A781A75CB
:1043B000704700BF3894000010B50C4630B1194B5F
:1043C000194A1A4840F24F2101F030FF8B7A012B35
:1043D0000DD10B794A79DB0043EA8203CA798979E6
:1043E000134343EA4101124B186800F023FD04F126
:1043F0000B010020FFF7D0FFA37A227A617A0D48E3
:1044000000F06DFB628940F201139A4204D10A4A1E
:1044100092F8C430002BFBD0084B22681A600020B1
:1044200010BD00BFD4930000259400007A930000D3
:1044300038940000004006400000C842B838002010
:1044400008B530B1124B134A13484FF4307101F0E4
:10445000EDFE124B0122C3F8F427114B0A681A60D3
:10446000104A114B126813445B010A7A186840B96C
:104470003AB108795861487918618879D860C87963
:1044800098601A604A7A82F001025A60002008BDE2
:10449000F2930000109400007A9300000000904214
:1044A000BC38002004960000110010C2054B00F03B
:1044B000E002134400F01F0003449B0001221A6035
:1044C000704700BF4001A41008B5054800F0F6FA97
:1044D000044B5B6C1B0F0133B0FBF3F008BD00BF56
:1044E000004006400080044037B5044628B91D4B03
:1044F0001D4A1E48722101F099FE1D4D04230093B0
:10450000012202232846002100F09BFC1949204685
:10451000FFF7B4FE637D0093237DE27CA17C2846F7
:1045200000F08FFC1449237C4A681B0422F44032BB
:1045300003F4403313434B60637C2A689B0422F4EA
:10454000402203F4402313432B6004F10E010020AA
:10455000FFF722FFFFF7B8FF084B1860002003B0F9
:1045600030BD00BF3C940000EC9400004B94000070
:10457000007004408145000000800440A00100203C
:1045800008B5FFF7A1FF40F6B833B0FBF3F00138F0
:1045900000D208BD00BFFAE7042808B506D9064BCB
:1045A000064A074840F2B12101F040FE054B185C75
:1045B000BDE80840FFF77ABF98940000D29400004D
:1045C0004B94000007950000034A13681BB1013BA0
:1045D000136003B962B67047B038002072B6024A61
:1045E0001368013313607047B0380020094B1B6813
:1045F00053F8203063B10109074A52F8212000F036
:104600000F001077D0775A6812B1197B986810475D
:10461000704700BFB43800200C9500002DE9F74F1B
:10462000DFF87C80DFF87C9058F82040D4F82CB07C
:10463000060100274FF0020ABBF1000F01D0102F36
:1046400009D104F1424404F580146401002363613C
:1046500003B0BDE8F08F1BF0010F1DD0FDB2BB19F8
:10466000002229462046019300F0C6FCD9F800201C
:10467000019B52F823307BB13544C5F3031205F09A
:104680000F0558F822201577D5775A6883F80CA0C3
:1046900012B1197B986890474FEA5B0B0137CBE763
:1046A0000C950000B438002008B5034A034B0448B9
:1046B000FF2101F0BBFD00BFE09500001095000058
:1046C0001A9500002DE9F84304682F4BC4F307281E
:1046D000054653F828902D4B404653F82860FFF7C5
:1046E0005BFF14F0E002E7B201D0FFF7DDFF56F800
:1046F000273023F0807323F4E06343F4807346F89B
:104700002730394606EB8704484600F07BFC04F16D
:10471000424303F580135B012A795A606A791A6073
:10472000AA791A61EB79D6F8C020BB401343C6F8CA
:10473000C030297A56F827200B0422F0877203F440
:10474000702322F48032134346F82730D1B1104B46
:1047500013F90830002B15D005DA0E4B0E4A5D21F7
:104760000E4801F063FD552B03DD0D4B0A4A5E2117
:10477000F6E75909012203F01F0302FA03F3094A7D
:1047800042F82130BDE8F883149700002897000014
:104790003C97000051950000CE9500006095000008
:1047A000A395000000E100E02DE9F04107681A4BF5
:1047B0000546C7F30720FEB253F82080174B53F885
:1047C0002040FFF7E9FE17F0E00F01D0FFF76CFF84
:1047D00054F8263023F0807323F4E06343F48073AD
:1047E00044F8263004EB860404F1424401223146A9
:1047F000404604F5801400F005FC64016A68314607
:10480000404600F019FC2B7AA3606B7AA361AB7A67
:104810006361BDE8F08100BF149700002897000095
:1048200010B4054BC0F307240A46C1B253F8240064
:104830005DF8044B00F000BC1497000082B00191B9
:104840009DF804309DF8062001685B00D20002F05C
:10485000080203F0020313439DF8052043EA820394
:104860009DF80720120102F0300221F0BE0113432F
:104870000B43036002B070470B46C1F301225B0B90
:10488000C9B242EA810203F0780382B01A4342605F
:1048900002B07047012905D0022905D031B9044B77
:1048A00018687047034BFBE70348704700207047C8
:1048B000B8380020BC380020006CDC02017B01F01D
:1048C0000301FFF7E7BF21FA02F07BB19DF800304A
:1048D000012B0BD0062A06D003D9072A07D00020C7
:1048E0007047400970471423B0FBF3F070470C2366
:1048F000FAE7000037B500F1424303F580135B018E
:1049000004461B7A8BB9FFF7D9FF22786378257BA1
:1049100005F0030501460095C3F30113C2F3C2027B
:104920002046FFF7D0FF03B030BD014B1868FAE70F
:10493000A801002010B522B1B1F5004F08D9002020
:104940000CE0A1F5F440123841F68564A04206D887
:1049500002EB4303034A32F81300484310BD1046EC
:10496000FCE700BFF495000010B50C4B03445B015D
:1049700004461B7D7BB9FFF7BDFF014658B1084BCC
:1049800023445B0120461A7FE378BDE81040C3F35F
:104990004113FFF7CFBF002010BD00BF060010C2BB
:1049A000030010C2037AC3F342038B4210B50CD04C
:1049B000104B03445B0149001A7801F00E012AB93B
:1049C000037A03F0F0031943017210BD00221A703C
:1049D000094A024452011478002CFCD1047A04F0F4
:1049E000F00421430172012119701378012BFCD1CD
:1049F000EBE700BF010010C2060010C208B50F4B64
:104A000003445B0102461B7D33B90D4B03445B013C
:104A1000197E01F0FF0371B11046FFF74FFF1379C4
:104A200003F01F030133B0FBF3F0537903F01F03CE
:104A30001833584308BD1846FCE700BF060010C2F3
:104A4000040010C210B5447902F01F0204F0E00423
:104A500014434471027901F01F0102F080020A43FD
:104A600042EA431242F04002D2B20271400100F128
:104A70008440D8300378002BFCD010BD00F14243B5
:104A800003F580135B011A7902F0FF0372B1084B42
:104A900003445B011B7813B9064B18687047064A3C
:104AA000037A1068C3F34203D84070471846704732
:104AB000010010C2A8010020A40100208379C3F3E3
:104AC0008103022B09D0032B03D0012B03D1FFF765
:104AD000D5BFFFF793BFFFF747BFFFF7EFBE10B596
:104AE000D2009B00447802F0080203F0040309019D
:104AF0001A4301F030010A4304F0C3042243427018
:104B000010BD0000037B01F0030203F0FC0313431C
:104B1000037359B9064B03445B011B7A33B140015F
:104B200000F18440C4300378002BFCD0704700BFF4
:104B3000010010C210B503461C4C13F8061F03F108
:104B40004243044403F580135B0164011A7C20791D
:104B50001B7DC1F381010229D2B2C0B2DBB211D0F8
:104B6000032916D0012905D0E3B9002A0CBF08207B
:104B7000012010BD012A15D1A3B900280CBF0220C5
:104B80000420F6E772B958B9002B14BF402010205A
:104B9000EFE73AB9002B0CBF4FF400708020E8E734
:104BA0002020E6E74FF40070E3E700BF010010C2E9
:104BB0002DE9F843DDF824900446884615461F4643
:104BC000FFF7B8FF10F01D0F47D0254B23445B01C2
:104BD00000221A772378224603F03B0343F0440374
:104BE00002F8063B02F1424202F58012560106F13C
:104BF00010021378012BFCD1012D03D13946204638
:104C0000FFF7D0FE637805F0010203F0FC031343C5
:104C1000637033789D42FCD1E2784FEA481303F089
:104C2000600302F09F021343E370E378C3F3411380
:104C30004345FAD1A379C3F38103012BFAD1089B31
:104C4000984735B9074B1B68C9F800300020BDE80C
:104C5000F883054B1B68FB40F6E70120F7E700BF30
:104C6000030010C2A8010020A40100202DE9F04794
:104C700004469DF82060894615461F46FFF75AFFF7
:104C800010F07B0F82465FD049462046FFF702FEB8
:104C9000804600285AD02E4B23445B0100221A760E
:104CA0002C4B23445B0103F11400027802F0FF0156
:104CB000002AFAD1284A22445201BAF1080F117190
:104CC00006D0217B09F0030001F0FC0101432173B0
:104CD0002178ED0005F0380501F003010D4345F0A2
:104CE00080052570197C0029FCD1BAF1080F06D186
:104CF000217B09F0030001F0FC0101432173B9F1AC
:104D0000000F04D1127A12B11A79002AFCD0E1788E
:104D1000720102F0600242EAC71301F01F0213435E
:104D2000DBB2E370E378C3F34113B342FAD1A37962
:104D3000C3F38103022BFAD1099B98470A9B0020F9
:104D4000C3F80080BDE8F0870120FBE72120F9E7E8
:104D5000050010C2060010C2010010C2F7B50446DB
:104D600001911D46FFF7E6FE10F0B00F52D00199F9
:104D70002046FFF78FFD064600284DD0284B6A1CC1
:104D8000B0FBF2F2A2F5F412A2F590629A4245D875
:104D9000244B019923445B0100221A71237803F00C
:104DA0003F0343F080032370A379C3F38103022BF5
:104DB000FAD12046FFF7A6FE1B4B1C492344214491
:104DC0005B01490100221A760A76194A22445201EF
:104DD00002F114073B78002BFCD123799DF82000C9
:104DE00003F0E00305F01F051D432571637900F012
:104DF0001F0003F0E0030343637101230B763B784C
:104E0000002BFCD0137E002BFCD0099B00201E60E1
:104E100003B0F0BD0120FBE72120F9E74120F7E7CF
:104E200080841E00010010C2040010C2050010C2E0
:104E3000060010C2037803F0F0031943C9B20170F1
:104E4000704710B59DF808401B05240403F4700357
:104E500004F470242343120643EA017102F07062E5
:104E600000F580500A43426410BD0000052838B5A3
:104E700006D90D4B0D4A0E4840F2C32101F0D6F978
:104E80000C4B53F820400C4B53F820200B4B134491
:104E90005B0100251D77A37D1BB104F11800FFF70E
:104EA00091F9257538BD00BF08960000879600006F
:104EB00027960000C038002044970000030010C26D
:104EC000052838B506D90F4B0F4A104840F20A3171
:104ED00001F0ACF90E4B53F820400E4B53F8200074
:104EE0000D4B03445B0100251D752A4640F203214A
:104EF00000F0C1F8E37D1BB104F12400FFF762F973
:104F0000657538BD089600006A9600002796000077
:104F1000C038002044970000030010C2F8B5324B9F
:104F200053F82040314B53F82050237D074613B9E6
:104F3000637D002B57D02E4E2E447601337D2BB14E
:104F40002C4B2B445B011B7D002B34D1337FF3B101
:104F5000284B2B445B011B7FCBB1E368BBB12B7D9E
:104F60002678F61AF6B296B163682846197800F0EA
:104F70007BF8A36B002B2FD0214638469847E36877
:104F8000013EF6B2002BEED13846FFF76FFF03214A
:104F9000284600F0A3F830B328460321BDE8F840C6
:104FA00000F0B1B8A168284600F061F8236B33B176
:104FB000214638469847AB7D002BF3D1C6E7A3685E
:104FC0000133A3602369013B23612369002BF2D1E4
:104FD0003846FFF775FFB9E7636801336360E3683C
:104FE000013BE360CBE7F8BDC038002044970000E8
:104FF000030010C2040010C20AB1C1767047817666
:10500000704700001F2908B505D9084B084A094810
:105010002E2101F00BF9012303FA01F19A424369B1
:105020000CBF0B438B43436108BD00BFA19600003A
:10503000FE960000AA9600001F2908B505D9074B67
:10504000074A0848422101F0F1F8012303FA01F16F
:105050000AB1416008BD8160FCE700BFA196000075
:10506000E6960000AA9600000379C17170470379A3
:10507000C3790B70704710B50123CCB2090AA34065
:10508000032908D8DFE801F0020C1620DBB21AB1C0
:1050900002781343037010BD027822EA0303F9E794
:1050A000DBB21AB1C2781343C370F4E7C27822EAC4
:1050B0000303F9E7DBB21AB1827913438371EAE79C
:1050C000827922EA0303F9E7DBB21AB1427C134387
:1050D0004374E0E7427C22EA0303F9E70B0A032B5F
:1050E0000FD8DFE803F002080A0C0079C9B20841C2
:1050F00000F0010070474079F8E7007BF6E7807C1C
:10510000F4E70020704740F2071399422FD0B1F521
:10511000847F10D2B1F5807F31D007D8042923D9FC
:10512000481F02288CBF0020012012E0B1F5837FC8
:1051300020D00020704740F2013399421CD00FD894
:10514000B1F5027F07D240F20523994294BF0020B7
:10515000012080007047B1F5407FEAD101230CE0C7
:10516000A1F206300128DDE70379C379E1E7802366
:105170004371DEE74023FBE702238374D9E7042071
:10518000704700000000000051EC100B2DE9F843BF
:10519000C1F30A53A3F2FF35132D10EE106A10EE7F
:1051A000107A0C4634DC002D20DB394B43FA05F92C
:1051B00001EA0903034388462FD033A3D3E9002330
:1051C000FBF758FA00220023FBF79AFE40B1002CAF
:1051D00003DD4FF480132B41984428EA090400268C
:1051E0002346324643EC102BBDE8F88326A3D3E9CF
:1051F0000023FBF73FFA00220023FBF781FE002883
:10520000EED0002C3ADB264336D0224C0026E7E7CE
:10521000332D06DDB5F5806F26D041EC100BBDE8CF
:10522000F883A3F213434FF0FF3828FA03F810EA8B
:10523000080FF2D014A3D3E90023FBF71BFA0022D6
:105240000023FBF75DFE0028CAD0002C09DD142DD9
:1052500006D0C5F134050123AB401F44BE4200D93E
:10526000013427EA0806BBE710EE102A0B46FBF7CD
:1052700001FA41EC100BD2E73446B1E700264FF0BB
:105280000044ADE7AFF300809C7500883CE4377EB6
:10529000FFFF0F000000F03F2DE9F047089E0D468C
:1052A00004460F46002B4AD18A42944665D9B2FA89
:1052B00082F343B102FA03FCC3F120029F4020FABB
:1052C00002F217439C404FEA1C4E1FFA8CF5B7FBC5
:1052D000FEF1220C0EFB117742EA074201FB05F0BA
:1052E00090420AD91CEB020201F1FF3780F01C81C9
:1052F000904240F2198102396244121AA4B2B2FB00
:10530000FEF00EFB102244EA024400FB05F5A54224
:105310000AD91CEB040400F1FF3280F00781A5429A
:1053200040F204816444023840EA0140641B0021D9
:105330001EB1DC400023C6E90043BDE8F0878B4284
:1053400008D9002E00F0ED800021C6E900050846CE
:10535000BDE8F087B3FA83F1002949D1AB4202D30B
:10536000824200F2F880841A65EB0302012017469E
:10537000002EE2D0C6E90047DFE702B9FFDEB2FA4D
:1053800082F3002B40F090808A1A4FEA1C471FFAE4
:105390008CFE0121B2FBF7F507FB1520220C42EA37
:1053A00000420EFB05F0904208D91CEB020205F109
:1053B000FF3802D2904200F2CB804546121AA4B2C6
:1053C000B2FBF7F007FB102244EA02440EFB00FE9A
:1053D000A64508D91CEB040400F1FF3202D2A64511
:1053E00000F2BB801046A4EB0E0440EA05409FE7A4
:1053F000C1F120078B4022FA07FC4CEA030C05FAA6
:1054000001F420FA07F3FD404FEA1C492343B5FBA2
:10541000F9F81FFA8CFE09FB18551C0C44EA0544E8
:1054200008FB0EF5A54202FA01F200FA01F00BD9D1
:105430001CEB040408F1FF3A80F08880A54240F29A
:105440008580A8F102086444641B9DB2B4FBF9F3A3
:1054500009FB134445EA044403FB0EFEA64508D9A4
:105460001CEB040403F1FF356CD2A6456AD9023B5C
:10547000644443EA0843A3FB0295A4EB0E04AC4248
:10548000C846AE4656D353D056B1B0EB080264EBD3
:105490000E0404FA07F7CA40CC401743C6E900746B
:1054A00018460021BDE8F087C3F1200102FA03FC91
:1054B00020FA01F225FA01F19D402A434FEA1C47E8
:1054C0001FFA8CFEB1FBF7F007FB1015110C41EA37
:1054D000054100FB0EF58D4204FA03F408D91CEBDC
:1054E000010100F1FF382FD28D422DD902386144DD
:1054F000491B92B2B1FBF7F507FB151142EA0142D5
:1055000005FB0EF1914208D91CEB020205F1FF38B0
:1055100016D2914214D9023D6244521A45EA004122
:1055200038E73146304608E73946E6E61046FBE6FE
:105530004845A9D2B9EB020865EB0C0E013BA3E785
:105540004546EAE72B4694E74046D1E7D0467BE75D
:10555000023D624432E708460AE76444023842E703
:1055600003685A004CBF43F0004323F00043184443
:10557000704700BF2DE9F84329B34F1E0446154676
:105580003E464FF0000808EB060101EBD1714910CF
:1055900004EBC1094846FFF7E3FF0346C8000830A3
:1055A0008F42204409D0AB4209D8FFF7D9FF013818
:1055B000A8420AD201F10108E5E7AB4205D98845C6
:1055C00001D04E1EDFE74FF000094846BDE8F883E2
:1055D000012807D0022807D0044B00280CBF18462A
:1055E000002070470248704702487047915C0000F5
:1055F000995C0000A15C000030B5224B83B00446EA
:105600008D1E43B301A92846AFF30080F0B1019984
:105610002A46FFF7AFFF0146C0B1FFF7A1FF4B6875
:10562000A064012B2BD0002B01F1040025DBFFF738
:1056300097FF002323650368E064002B12DBFFF76C
:105640008FFF03460020236103B030BD00230920F3
:10565000236103B030BD0C4B0C49C91AC910184660
:105660000191D5E7C3F30360FFF7B2FF031E0CBF40
:1056700009200020236103B030BD0123DAE70023B5
:105680000520E0E700000000649A0000FC9B000099
:105690000368DA0710B5044606D49B0700F14800FA
:1056A00009D5FBF783FC2368590709D51A070ED5DE
:1056B000DB0613D510BDFBF771FC23685907F5D441
:1056C00004F1D000FBF77AFC23681A07F0D404F544
:1056D000A870FBF77BFC2368DB06EBD404F5E870CD
:1056E000BDE81040FBF7B6BC0346006800B11844A3
:1056F000704700BF704700BF70B504460E46316C5E
:105700002046FFF779FF054688B9326C626123694C
:1057100032462146012098470828F0D0072806D1B4
:105720002846316CFFF7E6FF301DFBF72BFC00F03D
:1057300075FD00BF2DE9F0470D1DD0F80C80D0F8A5
:105740001890074614460FCDADF5727D0DF10C0C87
:10575000ACE80F000FCDACE80F000FCDACE80F00A8
:1057600095E80F0002AE4FF0000E8CE80F00C6F86F
:1057700000E020E0336C7B614FF4F07231467AA890
:10578000FBF72EFD3B697AAA394650469847889B1D
:1057900073642146CDE9006905463B463A4601203F
:1057A000C0470446E0B94FF4F0727AA93046FBF7DF
:1057B00017FD082D1AD1316C3846FFF71DFF09344B
:1057C0005FFA84FA05460028D4D0B36B73643A4676
:1057D000CDE900693B464AF010010120C04700B105
:1057E000092528460DF5727DBDE8F087072DF7D114
:1057F0002046316CFFF77EFF03A8FBF7C3FB00BF19
:10580000F0B5CB6B0B6401F1040C0E460546BCE809
:105810000F00F9B001AC0FC4BCE80F000FC4BCE826
:105820000F000FC49CE80F004FF0FF3784E80F0013
:10583000009706E02B696A462946984708280446DF
:1058400008D110992846FFF7D7FE0028F2D009208A
:1058500079B0F0BD6846FFF71BFF062CF7D1314643
:105860002846FFF749FF00BFC160D96B8261196408
:1058700000221946FFF75EBF70B5C66843690B6426
:10588000AEB903690A4604460D4601460220984710
:10589000072805D008280FD129462046FFF72CFFFE
:1058A0003046296CFFF726FF281DFBF76BFB012212
:1058B000FFF740FF00F0B2FC00F0B0FCC26822B17C
:1058C000CA6B0A640022FFF735BFFFF799BF00BF1C
:1058D000012912D009D873B90F2A0CD800EB820223
:1058E00018465368009A136070470339012994BF22
:1058F000012002207047022070470846704700BF11
:1059000000B585B00A46002303A900911946FFF7A8
:10591000DFFF039805B05DF804FB00BF012912D03A
:1059200009D873B90F2A0CD8009900EB82020968D4
:105930005160184670470339012994BF01200220A5
:105940007047022070470846704700BF10B584B00A
:10595000002303AC039200940A461946FFF7DEFFCA
:1059600004B010BD70B5D36B136402F1040C05468E
:105970000C46BCE80F00ADF50E7D0DF15C0EAEE8F7
:105980000F00BCE80F00AEE80F00BCE80F00AEE867
:105990000F009CE80F004FF0FF368EE80F001696C0
:1059A00010E0FFF7D3FF214616A8A847034616AA22
:1059B0006946082083B9049B9847052806460CD001
:1059C000092809D026996846FFF716FE03466A465D
:1059D0000C2116A8002BE4D0092616A8FFF758FEC4
:1059E00030460DF50E7D70BD2DE9F04FCC6C89B0C1
:1059F0001E4654F8043B06940D46174600F0030873
:105A0000002E79D01A0C8DF81D201B04D2B20593FC
:105A100004EB820402238DF81C302B6DB8F1020FC9
:105A200008BFAC6B13F001030CD005A9384600F099
:105A3000AFFA18B9082009B0BDE8F08F092009B005
:105A4000BDE8F08FD4F800A0BAF1000FEDD00193BB
:105A500000F008030293022E4AD0B4F800A0B4F874
:105A600002900434AB6C29F0010B0F2138469B44A3
:105A7000FFF746FF834539D82AF001025A44824293
:105A800094BF002201224FEA490303F002030AF007
:105A9000010A43EA0A03012B4BD0022B32D0002B20
:105AA000CCD1B8F1000F02D0002A40F0CD800434F0
:105AB000D4F800A0BAF1000FCDD105A9384600F006
:105AC00067FA0028BAD1019B002BB3D00F213846CA
:105AD000FFF716FF0E2102463846FFF737FF38461C
:105AE0006A4A0F21FFF732FF0720A8E70022CAE722
:105AF000D4F804900834B5E71B0205938DF81D60B7
:105B0000032388E7D4F8009029F0004BB8F1000F88
:105B100046D12AB1029B002B5BD0BBF1000F73D0A2
:105B2000B9F1000F00DA04340BF1010B04EB8B0424
:105B3000BEE7B8F1000F19D1B2B161682268881CC4
:105B40004FEAD2723FF47AAF05F158030131049362
:105B500000F08E80201DFFF7C7FD04AB01462846EC
:105B6000AFF30080002859D10834A1E70D21384651
:105B7000D5F82090FFF7C4FE8145F5D1AB6A9C4271
:105B8000F2D12046FFF7ECFC0F2102463846FFF722
:105B9000DDFE38462A460021FFF7D8FE07204EE7F3
:105BA0000D213846D5F820A0FFF7AAFE8245B7D1CF
:105BB000AB6A9C42B4D104230022C5E90B23E3184D
:105BC000C5F828B06B632368002B59DB01230193D0
:105BD000AAE7994605F15803CDF80C8004F1040AB0
:105BE000B0461E460EE050460496FFF77DFD0022AB
:105BF000014604AB284609F101090AF1040AAFF392
:105C00000080D8B9D945EED10D213846FFF778FE8E
:105C1000049B2862C5E90934062010E781460D215E
:105C20003846FFF76DFEB9F1020F04BF2B46049A08
:105C3000286214BF049B43F82C2FEBE74646D4F8A8
:105C40000090DDF80C806BE72046FFF789FC0434F8
:105C50000246AC6328461446AFF3008000283FF4A8
:105C6000EDAE384622460F21FFF770FE0720E6E62C
:105C70000D2138460193FFF743FE019B2862C9E7D7
:105C80000BF1010004EB80007CE700BF0000000086
:105C90000023FFF7A9BE00BF0123FFF7A5BE00BF89
:105CA0000223FFF7A1BE00BF2DE9F0430646C3B0B3
:105CB00091461C46042900F29B80DFE801F07B56E8
:105CC000992E0300002C40F09380102A00F290805F
:105CD0000368DC0600F1F38020AF3846FBF7C4F917
:105CE000B46B394600234FF0010C0CFA03F212EAB0
:105CF000090F204603F1010303D050F8042B0A607A
:105D00000446042B01F10401EFD13846B463FBF7DC
:105D1000A1F9002043B0BDE8F083032C68D194B210
:105D200004EB1243102B4FEA124961D803681D0798
