:1000000000000020BD0400007329000079290000D1
:100010007F290000852900008B29000000000000D6
:100020000000000000000000000000002D0500009E
:100030009129000000000000D305000033060000F5
:10004000312800003F2800004D2800005B280000F8
:100050006928000077280000852800009328000008
:10006000A1280000AF280000BD280000CB28000018
:10007000D9280000E7280000F52800000329000027
:1000800011290000972900009D290000A3290000E4
:10009000A9290000AF290000B5290000BB290000F4
:1000A000C1290000C7290000CD290000D329000084
:1000B000D9290000DF290000E52900001F290000E0
:1000C000EB2900002D290000F12900003B29000048
:1000D000F729000049290000FD290000032A00003B
:1000E000092A00000F2A0000152A00001B2A000020
:1000F000212A0000272A00002D2A0000332A0000B0
:10010000CD040000CD040000CD040000CD040000AB
:10011000392A00003F2A0000452A00004B2A00002F
:10012000512A0000572A00005D2A0000632A0000BF
:10013000692A00006F2A0000752A00007B2A00004F
:10014000812A0000872A0000572900008D2A00001C
:1001500065290000932A0000992A00009F2A0000C8
:10016000A52A0000AB2A0000B12A0000B72A00002F
:10017000BD2A0000C32A0000C92A0000CF2A0000BF
:10018000D52A0000CD040000CD040000CD040000FD
:10019000CD040000CD040000CD040000CD0400001B
:1001A000CD040000CD040000CD040000CD0400000B
:1001B000CD040000CD040000CD040000CD040000FB
:1001C000CD040000CD040000CD040000CD040000EB
:1003F000CD040000CD040000CD040000FFFFFFFF8E
:10040000FFFFFFFFFFFFFFFFFFFFFFFFFEFFFFFFFD
:10044000A3F5803A704700BF174B002B08BF134B32
:100450009D46FFF7F5FF00218B460F461348144ACF
:10046000121A08F07BFD0E4B002B00D098470D4B65
:10047000002B00D098470020002104000D000D48FB
:10048000002802D00C4806F071FD08F0A7FE2000FD
:10049000290001F0C5FA06F06FFD00BF000008005A
:1004A000000000005D2C000000000020300B002048
:1004B000A03F00206D6F00002592000072B601F091
:1004C000EDFE01F083FE62B6FFF7BEFFFFF7FEBF51
:1004D00080F309887047EFF309807047684680F31E
:1004E00009885A480078C00714BF0220032080F30F
:1004F00014887047DFF858C1EFF305831B0618BF57
:100500006047EFF31483DB0708BF604700DF7047E5
:10051000DFF840C1EFF305831B0618BF6047EFF318
:100520001483DB0708BF604700DF7047EFF30980E3
:10053000816911F8021CE1BB90E80F1010B5E0478B
:10054000BDE81040EFF3098C8CE80700424B93E8BC
:100550000600914208BF704741B91EF0100F16D136
:100560003E49086820F00100086010E01EF0100FFE
:1005700006BF2CED108A0120002081F825002CE90F
:10058000F00FC1F828C00CB403F0F0FD0CBC1A60E9
:10059000D2F828C0BCE8F00F92F8250000280EBF62
:1005A0006FF0020E6FF0120EBCEC108A8CF309880B
:1005B000704710B52A4A1268914209D8294C54F85C
:1005C000214090E80F10A047EFF3098C8CE80F0052
:1005D00010BD10B503F03CFDBDE810401E4B93E884
:1005E0000600914208BF7047EFF3098C1EF0100F10
:1005F00006BF2CED108A0120002081F825002CE98F
:10060000F00FC1F828C00CB403F0B0FD0CBC1A60A8
:10061000D2F828C0BCE8F00F92F8250000280EBFE1
:100620006FF0020E6FF0120EBCEC108A8CF309888A
:10063000704710B503F07CFDFFF7CEBF10B503F097
:1006400075FD03F075FDFFF7C7BF000024A0000093
:10065000DD390000F9390000643F002034EF00E08C
:1006600000000000FCFFFFFF81F0004102E000BF3E
:1006700083F0004330B54FEA41044FEA430594EA62
:10068000050F08BF90EA020F1FBF54EA000C55EA9D
:10069000020C7FEA645C7FEA655C00F0E2804FEA6E
:1006A0005454D4EB5555B8BF6D420CDD2C4480EA50
:1006B000020281EA030382EA000083EA010180EA80
:1006C000020281EA0303362D88BF30BD11F0004FCE
:1006D0004FEA01314FF4801C4CEA113102D0404204
:1006E00061EB410113F0004F4FEA03334CEA13333F
:1006F00002D0524263EB430394EA050F00F0A78057
:10070000A4F10104D5F1200E0DDB02FA0EFC22FA51
:1007100005F2801841F1000103FA0EF2801843FA45
:1007200005F359410EE0A5F120050EF1200E012A36
:1007300003FA0EFC28BF4CF0020C43FA05F3C01874
:1007400051EBE37101F0004507D54FF0000EDCF1ED
:10075000000C7EEB00006EEB0101B1F5801F1BD396
:10076000B1F5001F0CD349085FEA30004FEA3C0C9A
:1007700004F101044FEA445212F5800F80F09A8090
:10078000BCF1004F08BF5FEA500C50F1000041EB94
:10079000045141EA050130BD5FEA4C0C404141EB98
:1007A0000101013C28BFB1F5801FE9D291F0000F93
:1007B00004BF01460020B1FA81F308BF2033A3F142
:1007C0000B03B3F120020CDA0C3208DD02F1140C39
:1007D000C2F10C0201FA0CF021FA02F10CE002F174
:1007E0001402D8BFC2F1200C01FA02F120FA0CFC6D
:1007F000DCBF41EA0C019040E41AA2BF01EB0451B6
:10080000294330BD6FEA04041F3C1CDA0C340EDCB3
:1008100004F11404C4F1200220FA04F001FA02F3F6
:1008200040EA030021FA04F345EA030130BDC4F1B4
:100830000C04C4F1200220FA02F001FA04F340EAA9
:100840000300294630BD21FA04F0294630BD94F05A
:10085000000F83F4801306BF81F480110134013D41
:100860004EE77FEA645C18BF7FEA655C29D094EAB2
:10087000050F08BF90EA020F05D054EA000C04BF30
:100880001946104630BD91EA030F1EBF002100201B
:1008900030BD5FEA545C05D14000494128BF41F0BA
:1008A000004130BD14F580043CBF01F5801130BD1E
:1008B00001F0004545F0FE4141F470014FF00000A9
:1008C00030BD7FEA645C1ABF194610467FEA655C5A
:1008D0001CBF0B46024650EA013406BF52EA0335FC
:1008E00091EA030F41F4002130BD00BF90F0000FEA
:1008F00004BF0021704730B54FF4806404F1320426
:100900004FF000054FF0000150E700BF90F0000FDE
:1009100004BF0021704730B54FF4806404F1320405
:1009200010F0004548BF40424FF000013EE700BFD5
:1009300042004FEAE2014FEA31014FEA02701FBF65
:1009400012F07F4393F07F4F81F06051704732F097
:100950007F4208BF704793F07F4F04BF41F40021EE
:10096000704730B54FF4607401F0004521F000414C
:100970001CE700BF50EA010208BF704730B54FF0D6
:1009800000050AE050EA010208BF704730B511F0D7
:10099000004502D5404261EB41014FF4806404F10F
:1009A00032045FEA915C3FF4D8AE4FF003025FEA95
:1009B000DC0C18BF03325FEADC0C18BF033202EB19
:1009C000DC02C2F1200300FA03FC20FA02F001FA73
:1009D00003FE40EA0E0021FA02F11444BDE600BF16
:1009E00070B54FF0FF0C4CF4E06C1CEA11541DBFC5
:1009F0001CEA135594EA0C0F95EA0C0F00F0DEF890
:100A00002C4481EA030621EA4C5123EA4C5350EA74
:100A1000013518BF52EA033541F4801143F48013C5
:100A200038D0A0FB02CE4FF00005E1FB02E506F056
:100A30000042E0FB03E54FF00006E1FB03569CF0AB
:100A4000000F18BF4EF0010EA4F1FF04B6F5007FB1
:100A500064F5407404D25FEA4E0E6D4146EB060623
:100A600042EAC62141EA55514FEAC52040EA5E50AC
:100A70004FEACE2EB4F1FD0C88BFBCF5E06F1ED856
:100A8000BEF1004F08BF5FEA500E50F1000041EB8D
:100A9000045170BD06F0004646EA010140EA02003A
:100AA00081EA0301B4EB5C04C2BFD4EB0C0541EA5C
:100AB000045170BD41F480114FF0000E013C00F371
:100AC000AB8014F1360FDEBF002001F0004170BD95
:100AD000C4F10004203C35DA0C341BDC04F11404AE
:100AE000C4F1200500FA05F320FA04F001FA05F23A
:100AF00040EA020001F0004221F0004110EBD37007
:100B000021FA04F642EB06015EEA430E08BF20EA32
:100B1000D37070BDC4F10C04C4F1200500FA04F3D5
:100B200020FA05F001FA04F240EA020001F0004167
:100B300010EBD37041F100015EEA430E08BF20EADA
:100B4000D37070BDC4F1200500FA05F24EEA020E22
:100B500020FA04F301FA05F243EA020321FA04F051
:100B600001F0004121FA04F220EA020000EBD37008
:100B70005EEA430E08BF20EAD37070BD94F0000F08
:100B80000FD101F00046400041EB010111F4801F3C
:100B900008BF013CF7D041EA060195F0000F18BFED
:100BA000704703F00046520043EB030313F4801F29
:100BB00008BF013DF7D043EA0603704794EA0C0FE3
:100BC0000CEA135518BF95EA0C0F0CD050EA4106F9
:100BD00018BF52EA4306D1D181EA030101F0004176
:100BE0004FF0000070BD50EA410606BF104619469E
:100BF00052EA430619D094EA0C0F02D150EA0136AA
:100C000013D195EA0C0F05D152EA03361CBF1046EA
:100C100019460AD181EA030101F0004141F0FE4189
:100C200041F470014FF0000070BD41F0FE4141F40D
:100C3000780170BD70B54FF0FF0C4CF4E06C1CEA0D
:100C400011541DBF1CEA135594EA0C0F95EA0C0FC2
:100C500000F0A7F8A4EB050481EA030E52EA03357D
:100C60004FEA013100F088804FEA03334FF080559E
:100C700045EA131343EA12634FEA022245EA1115CB
:100C800045EA10654FEA00260EF000419D4208BF7C
:100C9000964244F1FD0404F5407402D25B084FEA29
:100CA0003202B61A65EB03055B084FEA32024FF4D5
:100CB00080104FF4002CB6EB020E75EB030E22BF32
:100CC000B61A754640EA0C005B084FEA3202B6EBF2
:100CD000020E75EB030E22BFB61A754640EA5C00A1
:100CE0005B084FEA3202B6EB020E75EB030E22BF31
:100CF000B61A754640EA9C005B084FEA3202B6EB32
:100D0000020E75EB030E22BFB61A754640EADC00F0
:100D100055EA060E18D04FEA051545EA16754FEA52
:100D200006164FEAC30343EA52734FEAC2025FEA70
:100D30001C1CC0D111F4801F0BD141EA00014FF0FF
:100D400000004FF0004CB6E711F4801F04BF0143D0
:100D50000020B4F1FD0C88BFBCF5E06F3FF6AFAEEC
:100D6000B5EB030C04BFB6EB020C5FEA500C50F17C
:100D7000000041EB045170BD0EF0004E4EEA1131FF
:100D800014EB5C04C2BFD4EB0C0541EA045170BD06
:100D900041F480114FF0000E013C90E645EA060E4A
:100DA0008DE60CEA135594EA0C0F08BF95EA0C0F78
:100DB0003FF43BAF94EA0C0F0AD150EA01347FF4C0
:100DC00034AF95EA0C0F7FF425AF104619462CE797
:100DD00095EA0C0F06D152EA03353FF4FDAE1046FA
:100DE000194622E750EA410618BF52EA43067FF44B
:100DF000C5AE50EA41047FF40DAF52EA43057FF4DB
:100E0000EBAE12E74FF0FF3C06E000BF4FF0010CE5
:100E100002E000BF4FF0010C4DF804CD4FEA410C49
:100E20007FEA6C5C4FEA430C18BF7FEA6C5C1BD016
:100E300001B050EA410C0CBF52EA430C91EA030F97
:100E400002BF90EA020F0020704710F1000F91EAF4
:100E5000030F58BF994208BF90422CBFD8176FEAC2
:100E6000E37040F0010070474FEA410C7FEA6C5C90
:100E700002D150EA013C07D14FEA430C7FEA6C5C97
:100E8000D6D152EA033CD3D05DF8040B704700BFC3
:100E90008446104662468C461946634600E000BF11
:100EA00001B5FFF7B7FF002848BF10F1000F01BDE3
:100EB0004DF808EDFFF7F4FF0CBF012000205DF8AE
:100EC00008FB00BF4DF808EDFFF7EAFF34BF012033
:100ED00000205DF808FB00BF4DF808EDFFF7E0FFCC
:100EE00094BF012000205DF808FB00BF4DF808ED1D
:100EF000FFF7CEFF94BF012000205DF808FB00BF84
:100F00004DF808EDFFF7C4FF34BF012000205DF865
:100F100008FB00BF4A0011D212F5001211D20DD504
:100F20006FF47873B3EB62520ED44FEAC12343F0EF
:100F3000004343EA505323FA02F070474FF0000099
:100F4000704750EA013002D14FF0FF3070474FF048
:100F50000000704753B94AB9002908BF00281CBFD8
:100F60004FF0FF314FF0FF3000F0E2B8ADF1080C68
:100F70006DE904CE05F010F8DDF804E0DDE90223A8
:100F800004B0704700F1340191E838009C46A64651
:100F90004CF8045D90E8FF0FE54600BD90EC210B96
:100FA000704700BF80EC210B704700BF90EC200B16
:100FB000704700BF80EC200B704700BFD0EC200BC7
:100FC000704700BFC0EC200B704700BFF0EC02017F
:100FD000F0EC0211F0EC0221F0EC0231F0EC0241F5
:100FE000F0EC0251F0EC0261F0EC0271F0EC0281E5
:100FF000F0EC0291F0EC02A1F0EC02B1F0EC02C1D5
:10100000F0EC02D1F0EC02E1F0EC02F1704700BF2D
:10101000E0EC0201E0EC0211E0EC0221E0EC023134
:10102000E0EC0241E0EC0251E0EC0261E0EC027124
:10103000E0EC0281E0EC0291E0EC02A1E0EC02B114
:10104000E0EC02C1E0EC02D1E0EC02E1E0EC02F104
:10105000704700BFB0FC0181B0FC0191B0FC01A160
:10106000B0FC01B1704700BFA0FC0181A0FC019160
:10107000A0FC01A1A0FC01B1704700BFEC4600B587
:101080002DE900502DE9FF1F4FF000032DE90C0062
:1010900001A905F035FADDF840E012B0704700BF55
:1010A000EC4600B52DE900502DE9FF1F4FF000037D
:1010B0002DE90C0001A905F05FFADDF840E012B05F
:1010C000704700BFEC4600B52DE900502DE9FF1F29
:1010D0004FF000032DE90C0001A905F06FFADDF8CF
:1010E00040E012B0704700BFEC4600B52DE900505B
:1010F0002DE9FF1F4FF000032DE90C0001AB05F0B7
:1011000033FADDF840E012B0704700BFEC4600B59E
:101110002DE900502DE9FF1F4FF000032DE90C00D1
:1011200001AA05F09FFADDF840E012B0704700BF59
:10113000704700BF00000000000000000000000039
:1011400001F0FF01102A2BDB10F0070F08D010F878
:10115000013B013A8B422DD010F0070F42B3F6D17C
:10116000F0B441EA012141EA014122F007047FF095
:1011700000070023F0E80256083C85EA010586EAEC
:10118000010685FA47F5A3FA87F586FA47F6A5FA28
:1011900087F68EB9EED1F0BC01F0FF0102F0070234
:1011A00032B110F8013B013A83EA010313B1F8D1DF
:1011B0000020704701387047002D06BF35460338C0
:1011C000073815F0010F07D1013015F4807F02BFF9
:1011D000013015F4C03F0130F0BC0138704700BF4A
:1011E000844641EA000313F003036DD1403A41D332
:1011F00051F8043B40F8043B51F8043B40F8043BF1
:1012000051F8043B40F8043B51F8043B40F8043BE0
:1012100051F8043B40F8043B51F8043B40F8043BD0
:1012200051F8043B40F8043B51F8043B40F8043BC0
:1012300051F8043B40F8043B51F8043B40F8043BB0
:1012400051F8043B40F8043B51F8043B40F8043BA0
:1012500051F8043B40F8043B51F8043B40F8043B90
:1012600051F8043B40F8043B51F8043B40F8043B80
:10127000403ABDD2303211D351F8043B40F8043B20
:1012800051F8043B40F8043B51F8043B40F8043B60
:1012900051F8043B40F8043B103AEDD20C3205D330
:1012A00051F8043B40F8043B043AF9D2043208D028
:1012B000D2071CBF11F8013B00F8013B01D30B889A
:1012C00003806046704700BF082A13D38B078DD078
:1012D00010F003038AD0C3F10403D21ADB071CBF4A
:1012E00011F8013B00F8013B80D331F8023B20F8B4
:1012F000023B7BE7043AD9D3013A11F8013B00F8ED
:10130000013BF9D20B7803704B7843708B78837074
:101310006046704700000000000000000000000070
:1013200000000000000000000000000000000000BD
:1013300000000000000000000000000000000000AD
:1013400090F800F06DE9024520F007016FF0000C05
:1013500010F0070491F820F040F049804FF00004AD
:101360006FF00700D1E9002391F840F000F1080088
:1013700082FA4CF2A4FA8CF283FA4CF3A2FA8CF3C0
:101380004BBBD1E9022382FA4CF200F10800A4FA27
:101390008CF283FA4CF3A2FA8CF3E3B9D1E904237B
:1013A00082FA4CF200F10800A4FA8CF283FA4CF3B2
:1013B000A2FA8CF37BB9D1E9062301F1200182FA6C
:1013C0004CF200F10800A4FA8CF283FA4CF3A2FA72
:1013D0008CF3002BC6D0002A04BF04301A4612BA80
:1013E000B2FA82F2FDE8024500EBD2007047D1E983
:1013F000002304F00305C4F100004FEAC50514F012
:10140000040F91F840F00CFA05F562EA05021CBFE2
:1014100063EA050362464FF00004A9E70348044B62
:10142000834202D0034B03B118477047300B0020B2
:10143000300B0020000000000548064B1B1AD90F96
:1014400001EBA301491002D0034B03B118477047C9
:10145000300B0020300B00200000000010B5064CBF
:10146000237843B9FFF7DAFF044B13B10448AFF315
:1014700000800123237010BD330B0020000000000A
:10148000C0AB000008B5054B1BB105490548AFF3DB
:101490000080BDE80840FFF7CFBF00BF000000009C
:1014A000340B0020C0AB000080B590B000AF786076
:1014B0000B46FB70FB78002B27D107F12403002299
:1014C0001A605A609A60DA601A615A612D4A7B6824
:1014D00052F833307B62012387F82830012387F8E4
:1014E00029304FF0FF333B6307F12403184603F024
:1014F000AFFD244A7B68DB00134401221A717B682C
:10150000DB00204A1344FB6336E0FB78012B31D12A
:1015100007F10C0300221A605A609A60DA601A61BF
:101520005A61184A7B6852F83330FB6001233B75DF
:101530004FF0FF33BB6107F10C03184603F0FAFDCF
:10154000104A7B68DB00134402221A717B68292B46
:101550000AD97B682C2B07D80A4A7B6852F83330AB
:101560000121184603F022FE7B68DB00054A134484
:10157000FB6301E00023FB63FB6B18464037BD466D
:1015800080BD00BF0000002080B586B000AF78604D
:101590007B683B613B69002B0BD03B691B79012BBE
:1015A00007D13B691B68184603F00EFE0346FB7526
:1015B00001E00023FB753B691B681B0ADBB2FB6083
:1015C0003B691B68DBB2BB60FB68022B02D1BB68C6
:1015D000062B05D0FB68002B09D1BB68042B06D174
:1015E000FB7D002B0CBF01230023DBB2FB75FB7DD1
:1015F00018461837BD4680BD80B586B000AF78600C
:101600000B46FB707B687B617B69002B2FD07B696D
:101610001B79022B2BD17B691B681B0ADBB23B6158
:101620007B691B68DBB2FB603B69012B05D1FB6862
:10163000162B08D0FB68152B05D03B69042B0FD166
:10164000FB681A2B0CD17B691A68FB78012B14BF3D
:1016500001230023DBB21946104603F0A7FD06E084
:101660007B691B68FA781146184603F09FFD00BF9E
:101670001837BD4680BD80B485B000AF78607B6808
:10168000FB60FB68002B0ED0FB681B79022B03D19B
:10169000FB6800221A7106E0FB681B79012B02D15E
:1016A000FB6800221A7100BF1437BD465DF8047B49
:1016B0007047000080B584B000AFF860B960134691
:1016C000FB71BB681F2B05D90D4B0E4AFF210E483D
:1016D00005F02CFCFB68BA6853F8223023F08073C5
:1016E00023F4E063FA79120202F4E06243EA0201B1
:1016F000FB68BA6843F8221000BF1037BD4680BDB2
:10170000409F0000D49F00004C9F000080B483B035
:1017100000AF78600B46FB707B681B6823F01802F3
:10172000FB78DB0003F018031A437B681A6000BFE4
:101730000C37BD465DF8047B7047000080B58EB065
:1017400000AF786187ED020B87ED001B524A7B6981
:101750005B01134411331B78002B40F0878000237A
:1017600087F82830002387F82930002387F82A30AB
:101770008023FB62484A7B695B0113441868464A30
:101780007B695B01134404331968434A7B695B013D
:10179000134410331B781A46FFF78CFF3E4A7B69CF
:1017A0005B01134408331B6807F1280211461846F1
:1017B00003F0A0FA384A7B695B01134408331B68C5
:1017C000DBB200220121184603F01AFB324A7B6982
:1017D0005B011344113304221A702F4A7B695B01A9
:1017E000134403F11801D7E90223C1E900230223BE
:1017F0003B7600237B76284A7B695B0113441833D0
:10180000D3E9002310461946FFF784FB0346FB612A
:10181000D7E90001FFF77EFB03463B620023BB8450
:101820001D4A7B695B01134408331B681B4A52F84D
:1018300023303B630021386BFFF768FF164A7B6952
:101840005B01134408331868134A7B695B01134436
:101850000C331B68DAB207F11803194603F02CFBAE
:101860007B695B010C4A13447B630FE00A4A7B6986
:101870005B01134411331B78042B05D17B695B0199
:10188000054A13447B6301E000237B637B6B1846AE
:101890003837BD4680BD00BF7801002068A5000034
:1018A00080B483B000AF786000BF0C37BD465DF8F0
:1018B000047B704780B58AB000AFF86087ED000BFD
:1018C000FB687B627B6A002B2CD07B6A5B7C042BE1
:1018D00028D102233B7400237B747B6AD3E906235F
:1018E00010461946FFF716FB03467B61D7E9000156
:1018F000FFF710FB0346BB610023BB837B6A9B6839
:101900000A4A52F823303B620021386AFFF7FEFE94
:101910007B6A98687B6ADB68DAB207F110031946C4
:1019200003F0CAFA00BF2837BD4680BD68A5000095
:1019300080B485B000AF78607B68FB60FB68002BEB
:1019400006D0FB685B7C042B02D1FB6800225A7432
:1019500000BF1437BD465DF8047B704780B483B088
:1019600000AF786000BF0C37BD465DF8047B704760
:1019700080B586B000AF7861184B1B681B68002BE0
:101980000CBF01230023DBB21A46154B1A7011E07D
:101990003B461449184601F052FA00F065F80F4B27
:1019A0001B681B68002B14BF01230023DBB21A46FF
:1019B0000D4B1A700A4B1B78DBB2002BE8D1084B99
:1019C00000221A70786900F011F8002001F090F9F7
:1019D000002318461837BD4680BD00BFE89F0000B1
:1019E00038040020580B00204C0B002080B582B03A
:1019F00000AF7860074B01221A60074B00221A7073
:101A000000F0D2FA054801F007FA0023184608371B
:101A1000BD4680BD740B002038040020500B002010
:101A200080B586B000AF7861396100F01FFD00F02D
:101A3000E7FE0A4B1B6800221A6000F0C5F900207F
:101A40009FED070A01F0A6F83B460649184601F04B
:101A5000F6F9002318461837BD4680BDE89F000000
:101A60006F12833A500B0020B0B588B000AF614BC5
:101A7000D3E90601604BD3E90023FFF719FA0346C7
:101A8000002B05D15C4BD3E900235A49C1E9062359
:101A9000584B1B691846FFF777FD0346FB71554B02
:101AA000D3F8E830B3F1FF3F06D0524BD3F8E8301B
:101AB0000133504AC2F8E8304E4B93F8EC30002B1B
:101AC0002AD14C4B012283F8EC204A4B0022C3F868
:101AD000E820484B012283F8ED20474BD3E90A2345
:101AE0004649C1E9002301237B610023BB60012338
:101AF000FB6000233B610023BB610123FB613F4985
:101B00004FF000023E4BC1E902233B4BD3E90223D5
:101B10003A49C1E90423BCE0364B93F8ED30012B80
:101B200070D101237B610023BB600123FB60002394
:101B30003B610023BB610123FB6130494FF0000290
:101B40002F4BC1E90223FB79002B10D0294B002237
:101B5000C3F8E820284BD3E90A232849C1E9002328
:101B6000254BD3E902232549C1E9042391E0214B08
:101B7000D3F8E840204BD3E904011F4BD3E90623F7
:101B8000FFF758F802460B46104619461A4BD3E9A0
:101B90000823FEF76DFD02460B4643EC172BB0EE13
:101BA000470AF0EE670A04F06FF953EC102B104669
:101BB0001946FFF7AFF903469C426AD30D4B00224A
:101BC000C3F8E8200B4B022283F8ED200A4BD3E93F
:101BD0000A230A49C1E9002300237B610123BB607A
:101BE0000023FB6001233B610123BB610023FB61F8
:101BF0004FE000BF900B002040040020780B002035
:101C00000000F03F00237B610123BB600023FB60E9
:101C100001233B610123BB610023FB61664BD3F8C9
:101C2000E840664B93ED087BB0EE470AF0EE670A9A
:101C300004F02AF953EC102B10461946FFF76AF905
:101C400003469C4225D35C4B0022C3F8E8205A4B44
:101C5000012283F8ED20594BD3E90A235849C1E901
:101C6000002301237B610023BB600123FB60002371
:101C70003B610023BB610123FB6151494FF000022E
:101C8000504BC1E902234D4BD3E902234C49C1E932
:101C90000423494BD3F8D0207B69002B14BF0123C8
:101CA0000023DBB219461046FFF7A6FC424BD3F8DF
:101CB000BC203B69002B14BF01230023DBB2194673
:101CC0001046FFF799FC3C4BD3F8A8403C4BD3E9B6
:101CD000000101231D464FF000024FF00003FFF703
:101CE000E7F80346002B01D000231D46EBB219464E
:101CF0002046FFF781FC304BD3F89420FB68002B83
:101D000014BF01230023DBB219461046FFF774FC11
:101D1000294BD3F88020BB68002B14BF012300237C
:101D2000DBB219461046FFF767FC234BDB6E002140
:101D30001846FFF761FC204B9A6DBB69002B14BF5E
:101D400001230023DBB219461046FFF755FC1A4B5E
:101D50005A6CFB69002B14BF01230023DBB2194628
:101D60001046FFF749FC144B1C6B154BD3E90201DD
:101D700001231D464FF000024FF00003FFF798F8D3
:101D80000346002B01D000231D46EBB21946204626
:101D9000FFF732FC084BD3F8E430094A92ED047B9C
:101DA000B0EE470AF0EE670A1846FFF783FD00BF62
:101DB0002037BD46B0BD00BF900B0020400400207E
:101DC000780B00200000F03F80B500AF744B00227C
:101DD0001A70744BD3E900237149C1E90623704B93
:101DE00001225A6000210120FFF75EFB03466C4A86
:101DF00013616B4B01221A72694B002283F8C020D9
:101E0000674B0122C3F8C42001210220FFF74CFBDD
:101E10000346634AC2F8D030614B012283F8C820E0
:101E20005F4B002283F8AC205D4B0122C3F8B02049
:101E300001210A20FFF738FB0346594AC2F8BC309B
:101E4000574B012283F8B420554B002283F8982089
:101E5000534B0122C3F89C2001210520FFF724FBEE
:101E600003464F4AC2F8A8304D4B012283F8A02008
:101E70004B4B002283F88420494B0122C3F8882071
:101E800001210C20FFF710FB0346454AC2F89430AD
:101E9000434B012283F88C20414B002283F87020B1
:101EA0003F4B01225A6701210920FFF7FDFA034643
:101EB0003B4AC2F880303A4B012283F87820384BF5
:101EC000002283F85C20364B01221A66012107208C
:101ED000FFF7EAFA0346324AD366314B012283F810
:101EE00064202F4B002283F848202D4B0122DA6416
:101EF00001212A20FFF7D8FA0346294A9365284B87
:101F0000012283F85020264B002283F83420244BF2
:101F100001229A6301212C20FFF7C6FA0346204ACA
:101F200053641F4B012283F83C201D4B002283F891
:101F300020201B4B01225A6201210D20FFF7B4FA29
:101F40000346174A1363164B012283F82820144BCB
:101F5000002283F8D420124B0122C3F8D8209FED31
:101F60000C1B9FED0D0B0320FFF7E8FB03460C4A0B
:101F7000C2F8E4300A4BD3F8E4301846FFF790FC7F
:101F8000074B012283F8DC2000BF80BDAFF3008047
:101F900000000000000000000000000000409F4022
:101FA000900B00204004002080B500AF864B1B78CA
:101FB000002B0FD1844B01221A70834B5B68012BDD
:101FC00008D1814B1B7A002B04D07F4B1B6918462C
:101FD000FFF751FB7C4B93F8C030002B13D17A4BA9
:101FE000012283F8C020784BD3F8C430012B0AD1EA
:101FF000754B93F8C830002B05D0734BD3F8D03015
:102000001846FFF738FB704B93F8AC30002B13D118
:102010006D4B012283F8AC206B4BD3F8B030012B11
:102020000AD1694B93F8B430002B05D0664BD3F836
:10203000BC301846FFF71FFB634B93F89830002B1A
:1020400013D1614B012283F898205F4BD3F89C3069
:10205000012B0AD15C4B93F8A030002B05D05A4BD2
:10206000D3F8A8301846FFF706FB574B93F8843097
:10207000002B13D1544B012283F88420524BD3F808
:102080008830012B0AD1504B93F88C30002B05D0AF
:102090004D4BD3F894301846FFF7EDFA4A4B93F8BE
:1020A0007030002B12D1484B012283F87020464B30
:1020B0005B6F012B0AD1444B93F87830002B05D08D
:1020C000414BD3F880301846FFF7D5FA3E4B93F8D2
:1020D0005C30002B11D13C4B012283F85C203A4B41
:1020E0001B6E012B09D1384B93F86430002B04D0C0
:1020F000354BDB6E1846FFF7BEFA334B93F848308A
:10210000002B11D1304B012283F848202E4BDB6C81
:10211000012B09D12C4B93F85030002B04D02A4BC3
:102120009B6D1846FFF7A7FA274B93F83430002B26
:1021300011D1254B012283F83420234B9B6B012BBB
:1021400009D1214B93F83C30002B04D01E4B5B6C23
:102150001846FFF790FA1C4B93F82030002B11D152
:10216000194B012283F82020174B5B6A012B09D100
:10217000154B93F82830002B04D0134B1B6B1846DB
:10218000FFF779FA104B93F8D430002B19D10E4B8E
:10219000012283F8D4200C4BD3F8D830012B10D176
:1021A000094B93F8DC30002B0BD0074BD3F8E4300D
:1021B0001846FFF7BDFB044BD3F8E4301846FFF791
:1021C000CDFB00BF80BD00BF900B002080B489B064
:1021D00000AF294BFB60294A294B9A4216D00023B5
:1021E000FB610AE0264AFB6952F823202349FB6978
:1021F00041F82320FB690133FB61FB689B08FA6906
:102200009A42EFD31F4B1D4A9A6002E01D4B1C4AB5
:102210009A601D4BBB611D4B7B611D4BBB60BA6857
:102220007B69D31AFB6107E07A69531C7B61BB6948
:10223000591CB96112781A70FB695A1EFA61002B99
:10224000F2D1144B3B61144B7B607A683B69D31A23
:10225000FB6104E03B695A1C3A6100221A70FB6979
:102260005A1EFA61002BF5D100BF00BF2437BD46CE
:102270005DF8047B704700BF000000000000000014
:102280000000000000ED00E000000020F8AE0000BB
:1022900028BA0000300B0020A03F002080B400AF1F
:1022A000684BD3F88830674A43F47003C2F888302B
:1022B000654B4CF22052DA81634B4DF62812DA81DD
:1022C000614B4FF4E9721A80604B1B78DBB203F06C
:1022D0000103002B0FD05E4B9B78DBB203F00803A9
:1022E000002B2CD05A4B9B78DBB2594A43F00803A1
:1022F000DBB2937023E0574B03F58053DB6B554AF9
:1023000043F0005302F58052D363534B1B6903F42F
:102310008073002B13D1504B1B6923F47C534E4A1E
:1023200043F4407313614C4B1B694B4A43F4807375
:102330001361494B1B69484A23F400731361474BEF
:102340002A221A70434B03F580531A464FF08A73C2
:102350005364404B1B6823F440233E4A43F400235C
:1023600013603C4B03F580535B6823F44033394AD8
:1023700043F4803302F580525360364B03F58053AB
:102380009B6B344A43F4007302F580529363344BE1
:102390009B6C334A23F0807323F4E0639364314BE6
:1023A00000221A722F4B5B78DBB223F06003DBB2A2
:1023B0002C4A43F02003DBB253702B4B80221A705F
:1023C000284B00221A73274BBA221A7000BF254BE4
:1023D0009B79DBB203F01003002BF8D1214BDB78A3
:1023E000DBB2204A03F01F03DBB2D3701D4B132274
:1023F0001A711C4B18225A711A4B5B79DBB2194ABD
:1024000043F04003DBB2537100BF164B9B79DBB244
:1024100003F04003002BF8D0124B1B78DBB2114ABB
:1024200003F03F03DBB2137000BF0E4B9B79DBB2AE
:1024300003F00C030C2BF8D100BF00BFBD465DF8C4
:10244000047B704700ED00E00020054000F00740ED
:1024500000D007400070044000D0034000E0074077
:1024600000900440004006400050064080B483B015
:1024700000AF9C4B1B78DBB203F0C003002B40F095
:10248000DE80984B5B79DBB203F04003002B40F019
:10249000B980944B1B78DBB203F00403002B4ED1C0
:1024A000904B1B7BDBB203F00303002B02D0012B0C
:1024B00003D006E08C4B7B6006E04FF400437B606A
:1024C00002E08A4B7B6000BF864B5B78DBB203F097
:1024D0003003002B23D0834B1B7BDBB203F00303C1
:1024E000012B1CD07F4B1B78DBB203F03803302B61
:1024F00005D0382B07D14FF4C0637B800EE04FF43A
:10250000A0637B800AE0774B1B78DBB2DB0803F02B
:102510000703202202FA03F37B8000BF09E0714B1E
:102520001B78DBB2DB0803F00703012202FA03F396
:102530007B807B887A68B2FBF3F37B6002E04FF428
:1025400000437B60674BDB78DBB203F0E003E02BFA
:1025500051D0E02B00F2B080C02B45D0C02B00F250
:10256000AB80A02B39D0A02B00F2A680802B2DD0E1
:10257000802B00F2A180602B21D0602B00F29C8088
:10258000402B15D0402B00F29780002B02D0202B3F
:1025900007D091E07A6813469B001344DB017B600F
:1025A0008BE07A6813469B0013441B027B6084E037
:1025B0007A6813461B019B1ADB017B607DE07A6819
:1025C00013469B0013445B027B6076E07B684FF40C
:1025D000377202FB03F37B606FE07B684FF4B762F6
:1025E00002FB03F37B6068E07B6840F6950202FB28
:1025F00003F37B6061E07B6840F6713202FB03F31A
:102600007B605AE0374B1B79DBB29BB203F01F03B0
:102610009BB201337B807B88334AB2FBF3F37B6050
:10262000304B5B79DBB29BB203F01F039BB21833D4
:102630007B807A887B6802FB03F37B603DE0294B5B
:102640001B78DBB203F0C003402B1AD1254B5B781B
:10265000DBB203F00103002B03D14FF400437B6096
:102660002BE0204B1B7ADBB25B0803F0070301224F
:1026700002FA03F37B807B881D4AB2FBF3F37B6095
:102680001BE0184B1B78DBB203F0C003802B22D178
:10269000144B1B7BDBB203F00303002B02D0012B96
:1026A00003D006E0104B7B6007E04FF400437B60F3
:1026B00003E00E4B7B6000E000BF0E4B03F5805340
:1026C0005B6C1B0F03F00F0301337A68B2FBF3F36B
:1026D000094A136000E000BF0C37BD465DF8047B7B
:1026E000704700BF0040064080F0FA02006CDC0238
:1026F00000093D00007004407004002080B584B0E3
:1027000000AFF860B9601346FB71BB681F2B05D999
:102710000D4B0E4AFF210E4804F008FCFB68BA6816
:1027200053F8223023F0807323F4E063FA79120225
:1027300002F4E06243EA0201FB68BA6843F822103F
:1027400000BF1037BD4680BD849F000004A000007C
:10275000909F000080B483B000AF78600B46FB70A0
:102760007B68FA781A7000BF0C37BD465DF8047BB1
:102770007047000080B584B000AF3B4600221A606D
:102780005A609A60DA60064B3B6002237B723B46DC
:102790001946002002F0DCF800BF1037BD4680BDAE
:1027A00080F0FA0280B584B000AF074A3B1D07CA2B
:1027B00083E807003B1D1946002002F00DF900BF19
:1027C0001037BD4680BD00BFC89F000080B500AF78
:1027D0002A210848FFF7BEFF002212210648FFF712
:1027E0008DFFFFF7C7FFFFF7DDFF044802F048F950
:1027F00000BF80BD00E0074000900440EC9F000057
:1028000080B582B000AF01F0E3FF0023FB7106E06A
:10281000FB79184602F0ACF9FB790133FB71FB79C7
:10282000042BF5D9FFF7D2FF00BF0837BD4680BDA6
:1028300080B500AF002002F0DDF900BF80BD80B59B
:1028400000AF012002F0D6F900BF80BD80B500AF17
:10285000022002F0CFF900BF80BD80B500AF032099
:1028600002F0C8F900BF80BD80B500AF042002F0BF
:10287000C1F900BF80BD80B500AF052002F0BAF9F4
:1028800000BF80BD80B500AF062002F0B3F900BFE5
:1028900080BD80B500AF072002F0ACF900BF80BD5D
:1028A00080B500AF082002F0A5F900BF80BD80B55B
:1028B00000AF092002F09EF900BF80BD80B500AFD7
:1028C0000A2002F097F900BF80BD80B500AF0B2051
:1028D00002F090F900BF80BD80B500AF0C2002F07F
:1028E00089F900BF80BD80B500AF0D2002F082F9EC
:1028F00000BF80BD80B500AF0E2002F07BF900BFA5
:1029000080BD80B500AF0F2002F074F900BF80BD1C
:1029100080B500AF002002F085F900BF80BD80B512
:1029200000AF002003F026F800BF80BD80B500AFE7
:10293000012003F01FF800BF80BD80B500AF02206A
:1029400003F018F800BF80BD80B500AF032003F08E
:1029500011F800BF80BD80B500AF042003F00AF875
:1029600000BF80BD80B500AF052003F003F800BFB5
:1029700080BD80B400AFFEE780B400AFFEE780B456
:1029800000AFFEE780B400AFFEE780B400AFFEE723
:1029900080B400AFFEE780B400AFFEE780B400AFC4
:1029A000FEE780B400AFFEE780B400AFFEE780B47E
:1029B00000AFFEE780B400AFFEE780B400AFFEE7F3
:1029C00080B400AFFEE780B400AFFEE780B400AF94
:1029D000FEE780B400AFFEE780B400AFFEE780B44E
:1029E00000AFFEE780B400AFFEE780B400AFFEE7C3
:1029F00080B400AFFEE780B400AFFEE780B400AF64
:102A0000FEE780B400AFFEE780B400AFFEE780B41D
:102A100000AFFEE780B400AFFEE780B400AFFEE792
:102A200080B400AFFEE780B400AFFEE780B400AF33
:102A3000FEE780B400AFFEE780B400AFFEE780B4ED
:102A400000AFFEE780B400AFFEE780B400AFFEE762
:102A500080B400AFFEE780B400AFFEE780B400AF03
:102A6000FEE780B400AFFEE780B400AFFEE780B4BD
:102A700000AFFEE780B400AFFEE780B400AFFEE732
:102A800080B400AFFEE780B400AFFEE780B400AFD3
:102A9000FEE780B400AFFEE780B400AFFEE780B48D
:102AA00000AFFEE780B400AFFEE780B400AFFEE702
:102AB00080B400AFFEE780B400AFFEE780B400AFA3
:102AC000FEE780B400AFFEE780B400AFFEE780B45D
:102AD00000AFFEE780B400AFFEE7000080B584B031
:102AE00000AF7860114B1B68002B02D10F4B104ACE
:102AF0001A600E4B1B68FB600C4B1A687B68134412
:102B00000C4A934207D906F063FB03460C221A6075
:102B10004FF0FF3306E0054B1A687B681344034A05
:102B20001360FB6818461037BD4680BD840C00203A
:102B30000000FF1F0000002080B582B000AF786069
:102B4000034800F069F900BF0837BD4680BD00BFEB
:102B5000580B002098B500AF094B0A4A1A600A4B7F
:102B60000A4A1C1D13460FCB84E80F0000F0B9F889
:102B70000346054A1360064B034A1A6000BF98BD1E
:102B8000580B0020600B0020AC0C002058A0000067
:102B9000500B002080B586B002AF87ED010A386087
:102BA0000223FB60FFF7D6FF164800F025F9034625
:102BB000BB60154800F020F90346BB60002300937A
:102BC0000023FA681149124800F062F80346BB601E
:102BD0000023104A0121104800F09BF80346BB6017
:102BE000D7ED017A9FED0D7A67EE877AFCEEE77AF2
:102BF00017EE901A084800F0B3F800BF1037BD4632
:102C000080BD00BF580B0020500B00207119000040
:102C1000600B0020392B0000880C002000007A4453
:102C200080B400AFFEE700BF80B483B000AF78602F
:102C30007B68013B032B0BD801A252F823F000BFA5
:102C4000512C0000512C0000512C0000512C000090
:102C500000BFFEE7704700BF704700BF00200021A3
:102C600004460D46084804F081F906F0B7FA2046FC
:102C7000294600F0B1F90548002100F069FA00F09A
:102C8000BFF904F079F900002592000058A0000077
:102C900080B586B000AFF860B9607A603B60FB68D1
:102CA000BA685A60FB687A689A60FB680122DA6049
:102CB0003A68FB681A61FB680433396A184600F009
:102CC00047FA0246FB681A60FB681B68002B14BFBA
:102CD00001230023DBB27B617B6918461837BD46B0
:102CE00080BD80B500AF00F085FA0346184680BD70
:102CF00080B584B000AF786000F07CFA0346FB60DA
:102D0000F86800F083FA0346BB6000BF1037BD4689
:102D100080BD80B586B000AFF8607A603B600B463E
:102D2000FB72FB6803F10C02FB689A60FB687A682F
:102D30005A60FB680433F97A3A68184600F070FB71
:102D40000246FB681A60FB681B68002B14BF012356
:102D50000023DBB27B617B6918461837BD4680BD16
:102D600080B584B000AF786039607B681B683968D3
:102D7000184600F089FB0346FB60FB6818461037D5
:102D8000BD4680BD84B080B582B000AF07F1100CA5
:102D90008CE80F003B69796A184600F04BFC03464B
:102DA0007B607B6818460837BD46BDE8804004B0AC
:102DB000704784B080B500AF07F1080C8CE80F00B5
:102DC000BB68F969184600F055FC03461846BD4635
:102DD000BDE8804004B0704780B582B000AF786035
:102DE00039607B684FF0FF323968184600F050FCBC
:102DF00078680837BD4680BD80B485B000AF786084
:102E00007B6801225A600123FB60FB681846143777
:102E1000BD465DF8047B704780B584B002AF786032
:102E20007B681B687A68526801921A6900920FCB1E
:102E3000FFF7A8FF034618460837BD4680BD80B59A
:102E400084B002AF786039603B681B683A685268AA
:102E500001921A6900920FCBFFF7ABFF3B685A68EB
:102E60007B6811461846FFF7B7FF78680837BD46FC
:102E700080BD000000B5DFF80CC000DFDFF808C03F
:102E800000DFFEE7F1300000093100002DE9F041DC
:102E9000344C237853B1344B1B68FF229A70334A69
:102EA0000020012310702370BDE8F081304B3148C1
:102EB000196800F00BFD00284CD101F079FB2A4B7A
:102EC00021781B68FF229A700029E8D12A4A1368EA
:102ED000002B44D0556845B12A78002A38D1191DF5
:102EE000890089B2284600F0B5FD244B244A1E68AB
:102EF000156096B35D68EA1C062A2ED8DF688FB984
:102F0000291D30463B463A4601F010FA054620B3EB
:102F10001C4B1D4A681E53F82050AB6A5A631B4B6A
:102F20001D60BCE73946134800F0DEFC8046A0B1C6
:102F3000291D41EA072130460023424601F0F6F9F7
:102F400005460028E4D141460A4800F0F1FCE6E7D6
:102F50000D46CAE78520BDE8F0810025DFE71D4664
:102F6000C3E700BF203F0020643F0020213F002036
:102F700034A00000782F00204CA000003CA00000EE
:102F80006C3B00203C3B0020752E0000483B00209D
:102F900038B50F4C207808B1002038BD0D4D2B6896
:102FA00093F8241001F072F92B68DA78FF2A03D124
:102FB0009A6A203282F309886A682AB101F066FBB6
:102FC00001232370002038BDC5E90023F6E700BFC8
:102FD000213F0020643F002010B5EFF305845CB969
:102FE000EFF31484E40703D5DFF810C000DF10BD51
:102FF000BDE81040FFF74ABF822010BD8D2E0000B3
:1030000010B588B0EFF305841CBBEFF3148404F013
:103010000304022C24D0032C14D0012C16D008ACAD
:1030200084F30988114C2478E40715D4032484F32D
:103030001488BFF34F8FBFF36F8FDFF834C000DF0A
:1030400008B010BD094C2478E407F6D5FF2008B07D
:1030500010BD822008B010BD022484F31488E8E774
:10306000024C2478E407E8D4E0E700BF24A0000085
:10307000912F000098B3F8B5066876B34768FB1C3B
:10308000062B2AD8C26804460D46BAB11146154827
:1030900000F02AFC064600B36268E168206804324A
:1030A00042EA01212B46324601F040F9044660B95C
:1030B00031460C4800F03CFC2046F8BD0B4630463B
:1030C000391D01F033F9044638B1601E064B074A3A
:1030D00053F82000836A5A63F8BD0020F8BD002031
:1030E000704700BF782F00203C3B0020752E000069
:1030F00008B501F0C3F818B10138024B53F82000AD
:1031000008BD00BF3C3B0020D0B1820718D138B5C4
:103110000478BCB9C28C0346C0785AB1DD6A01F0AC
:1031200069F9FF2810D04DB12946084800F000FC8D
:10313000204638BD01F05EF9FF2805D0002038BDDB
:1031400080207047802038BD812038BD782F002036
:10315000F8B5EFF305848CB9EFF31484E40702D4D7
:103160001F4C247864B1DFF888C000DFF8BD0B463F
:103170003046391D01F0DAF8044640BB0020F8BDA6
:103180000028FBD00668002EF8D04768FB1C062BF1
:10319000F4D8C2680D460446002AE8D0114611480A
:1031A00000F0A2FB06460028E8D06268E1682068CB
:1031B000043242EA01212B46324601F0B7F80446B8
:1031C00028B93146074800F0B3FB2046F8BD601E21
:1031D000054B064A53F82000836A5A63F8BD00BFC6
:1031E000213F0020782F00203C3B0020752E00005E
:1031F0007530000010B5EFF305841CB9DFF808C086
:1032000000DF10BD002010BDF130000010B5EFF35D
:1032100005841CB9DFF808C000DF10BD822010BD96
:1032200009310000A0B103689BB143688BB101294B
:103230000ED830B40A4C24686CB11C795CB90125F5
:1032400059711D711C60C3E9042030BC18467047D9
:103250000023184670470023184630BC704700BF53
:10326000483B0020820727D130B3002951D0F8B560
:10327000314B1A68002312F1FF3643F1FF37044641
:103280004FF47A70E0FB016730463946FDF762FE85
:103290002379012B12D0022B0CD1284D2A684AB178
:1032A000944238D0114602E09C4228D019460B685F
:1032B000002BF9D18120F8BD802070471F4DE060C0
:1032C00002232A682371002A2AD09668B04206D2C7
:1032D0002CE09D688D420BD808462E461A4613688E
:1032E000811B002BF5D12360A16014600020F8BD84
:1032F000A16099682360081A06449E60F5E7236878
:103300000B602368002BE0D09968A668314499606F
:10331000D9E78620704723682B600BB11A46F3E784
:103320000023A06023602C600020F8BDA06093689B
:103330002260181A9060F6E728A00000243F0020C1
:10334000830704D130B1D0E9041318687047002016
:1033500001467047014670472DE9F8432E4F3C68FF
:10336000002C37D0A368013BA360002B32D1DFF8DB
:10337000AC902668D9F800503E6025B195F80080E1
:10338000B8F1010F17D00420FFF74EFCA2609A6835
:103390002360551B65449D600460DEB1B368CBB902
:1033A000D9F8005033683B60002DECD02A78012A10
:1033B000E9D134461E46284600F0ACFB0028E2D096
:1033C0002846214600F0AAFB6379012B04D084F83B
:1033D0000480E2E7BDE8F8833868E56890B1D0F88A
:1033E00008C0654506D211E099689142CED81546CD
:1033F0008C4618460368A5EB0C02002BF4D1236021
:10340000A260C9E72060A5603C60C6E7A56083684C
:1034100020605D1B8560F7E7243F00206C3B0020A7
:1034200030B5EFF305840CBBEFF31484E40702D44A
:10343000124C24782CB1DFF84CC000DF034618464C
:1034400030BDC0B10368002BF9D04368002BF6D023
:1034500001290ED80A4D2D6845B11D794DB90124B9
:103460001D605971C3E904201C71E8E70023184668
:1034700030BD2346E3E70346E1E700BF213F0020DC
:10348000483B00202532000010B5EFF305841CB93D
:10349000DFF808C000DF10BD822010BD65320000DB
:1034A00008B50B4DEFF305804FF0FF310028F9D13F
:1034B0002868DFF820C000DF1028F3D10846DFF8C5
:1034C00018C000DF04460028ECD00846A047E9E712
:1034D0006C3B0020BD3600004133000010B570B1D8
:1034E00083070CD1037853B90B0C1B043BB903467B
:1034F00088B21C8BD97800F029FD204610BD4FF012
:103500000044204610BD00BF10B570B183070CD138
:10351000037853B90B0C1B043BB9034688B21C8BD0
:10352000D97800F03FFD204610BD4FF00044204602
:1035300010BD00BF2DE9F0414FEA10484FEA08489E
:10354000B8F1000F48D10D46044640B380B291B1A6
:103550004A1C5DD0344B994263D8344B1A684FF6FD
:10356000FE714FF47A73561E03FB0563B3FBF2F34F
:103570008B4200D899B2012200F0C6FC022844D048
:10358000002D14BF40240024002001460E460F46A3
:1035900045462046294632463B46BDE8F08159B3B0
:1035A0004B1C38D0204B994238D8204B1A684FF624
:1035B000FE714FF47A73501E03FB0505B5FBF2F55F
:1035C0008D4200D8A9B200224FF6FF7000F09CFC9B
:1035D00002280BD04024D7E7002586242E462F460C
:1035E0002046294632463B46BDE8F081104B1B6819
:1035F0000824B3F81A80C7E742464FF6FF7000F080
:1036000083FC0228F2D04446BEE7A0460824BBE76C
:103610004FF6FF71AFE74FF6FF71D4E74FF6FE713B
:10362000D1E74FF6FE71A6E700093D0028A0000093
:10363000643F002070B5EFF305852DB9DFF830C089
:1036400000DF0446204670BD044668B183070BD1F5
:1036500003784BB90B0C1B0433B988B2E178248B87
:1036600000F0ACFC204670BD4FF00044204670BD19
:10367000DD34000010B5EFF305841CB9DFF80CC091
:1036800000DF10BD4FF0004010BD00000935000004
:1036900070B50446EFF305854DB908461146DFF8CD
:1036A00018C000DFC4E90001A260204670BD82237B
:1036B0000360204670BD000035350000F0B50346BC
:1036C00085B000283AD00278012A2AD10C46002978
:1036D0003ED04A1C49D0264A91422CD8254A11682E
:1036E0004FF47A75481E4FF6FE7205FB0404B4FBD6
:1036F000F1F4944200D8A2B2184602A900F0B6F93B
:10370000012830D0002002460346102002990446CA
:103710000D4616461F462046294632463B4605B012
:10372000F0BD002580242E462F46204629463246ED
:103730003B4605B0F0BD4FF6FE72DDE70546064696
:10374000074680242046294632463B4605B0F0BD58
:103750000A4602A900F08AF90128D3D100200246C6
:1037600003462046D2E74024F8E74FF6FF72C3E74E
:1037700000093D0028A00000274B2DE9F047C58C2B
:10378000D3F80090C66AAD0808BFC9F38D0506EBF3
:103790008504630748BF043C8046A4F140074FF00E
:1037A00080738A4644F8081C44F8043C38463822A2
:1037B000002105F0D3FBD8F81C3044F8203C19F068
:1037C000805F3B46C8F82870C8F830A01FD0112D84
:1037D0001DD9103D6D08012D12D06FF03702A2EBFC
:1037E000C50214444FF0CC3243F8042C43F8082DA2
:1037F000A342F9D1C5EB457507EBC50303F10807F3
:103800003B1F9E423CBF4FF0CC3347F8043C034B78
:103810003360BDE8F08700BF1CA00000A52E5AE26F
:1038200090F82520836A12B1603319607047203305
:103830001960704710B490F82540836A2CB160334A
:10384000C3E900125DF8044B70472033C3E900124E
:103850005DF8044B704700BF084B1B68DA0107D5C1
:10386000074B1B68DB0703D5064B1B68002B00DBEF
:103870007047054B01221A70704700BFFCED00E055
:10388000800E00E0000E00E0283F002010B4094C3C
:103890002368002BFCD0036B064A23601368002BBF
:1038A000FCD0C3785DF8044B43EA01239BB213803C
:1038B000704700BF7C0000E0034A1368002BFCD077
:1038C000C0B21070704700BF7C0000E0034648B1F2
:1038D000072907D904390022084418605A501046B5
:1038E0005A60704701207047F0B1F1B10B3170B4EC
:1038F000036821F0030603E01968184649B10B4636
:10390000446802199D1AAE42F6D82CB9466000F1FF
:103910000801084670BC704702F10801C2E9003690
:10392000026070BC0846704701460846704700BFF9
:10393000C0B1B9B1083988421DD010B404689CB137
:10394000A1421CD0236823B90EE01A681C465AB164
:1039500013469942F9D15CB11B68236000205DF8E1
:10396000044B70470120704701205DF8044B7047FD
:1039700000205860F3E70346002058607047234654
:103980000446E9E7002A30B41FDB033222F00302C9
:103990000C24BAB113198B4214D8044401448D1A73
:1039A000A3189D42C0E90041826015D3002100E0C8
:1039B00003469818854263501144F9D200201860DC
:1039C00030BC7047012030BC704722F00042073203
:1039D00022F007021024DCE72346EFE7EFF3108321
:1039E00072B6026803F001030AB11168016003B9FD
:1039F00062B61046704700BF81420DD343688B42C8
:103A00000AD9EFF3108372B602680A60016013F0FE
:103A1000010003D162B67047012070470020704753
:103A2000426882B110B500F01DF9044600F032FA88
:103A3000012161702046FFF7F3FE21460448BDE8EE
:103A4000104000F0E7B8428801324280704700BF62
:103A5000303F00201039002389080122C1810280F3
:103A60008370C0E901338381704700BF38B5838913
:103A700004467BB915465AB1254A4368116823B3F9
:103A800000F0C8F82846082100F0D0FB012038BD1E
:103A9000012038BD4389C289181D01339BB254F8F7
:103AA000200008609A42638104BF00236381636839
:103AB00013B16378022B0ED0EFF3108372B6A38993
:103AC000013BA38162B6002038BD01224160C1E9FB
:103AD00001304270D6E7204600F0C4F800210546C8
:103AE000FFF79EFE2389E289E869191D01339BB225
:103AF0009A4244F82100238104BF002323812846F1
:103B000000F0C8F9284600F055FB002038BD00BF82
:103B1000643F0020C2898089101A704708B500F000
:103B2000D1F9BDE8084000F083BA00BF426870B523
:103B300003464AB14578022D0E4604463DD0032D7A
:103B40001AD0012D30D070BD8489C08984425AD2E8
:103B50001889043043F82010EFF3108172B6998968
:103B60000131998162B61989D889013189B28842B7
:103B70001981E8D11A8170BD0846FFF72FFF05466D
:103B80000028E0D0204600F06DF829460446FFF7F3
:103B900047FE01236370204600F07CF921461C4853
:103BA000BDE8704000F036B800F05CF804463246DC
:103BB0001021FFF73FFE6570EDE700F053F800219C
:103BC0000546FFF72DFE2389EA69043344F82320D4
:103BD000EFF3108372B6A3890133A38162B6238900
:103BE000E28901339BB29A42238104BF00232381DF
:103BF000012328466B7000F04DF929460448BDE8C2
:103C0000704000F007B80320BDE87040FFF70CB823
:103C1000303F002030B4057842688C78013DEDB229
:103C2000EAB19378A34204D20FE0987884420ED888
:103C30001A465368002BF8D10023022D4B605160C7
:103C400000D900228A6030BC704713460246022D1C
:103C50004B605160F5D8996030BC8A60704702466D
:103C6000EAE700BF02784368013A59684160022AD6
:103C700007D811B1002288605A6000229A60184665
:103C8000704700225A601846704700BF034B5A68BD
:103C90004260002258608260704700BF303F0020C1
:103CA000816830B400292FD00B780A461BB992687E
:103CB0001378002BFBD044684C604568546805B10C
:103CC000A960013B8578D9B2002C3AD0A378AB42E9
:103CD00004D20FE09A7895420ED81C466368002BF8
:103CE000F8D100230229436060600AD90023836071
:103CF00030BC704723461446022943606060F5D803
:103D00009860846030BC70474378012BF0D10E4935
:103D10004C68A0420DD04CB1626890420FD02AB1DD
:103D20005368984206D01A46002AF9D10B78064A01
:103D3000C7E70A46456855600B78034AC1E7224643
:103D4000F8E71446CDE700BF303F002070B4164EB0
:103D5000F36823B3B58AA9422A4602D821E0A4B168
:103D600023469D8ADC682A449142F8D895B2C46003
:103D7000D860C268036102B110616A1A82829A8AAD
:103D8000551B2944998270BC7047891A89B2002258
:103D9000C26070BCD86003619982828270473346EA
:103DA000F5E71C463346E2E7483F00202DE9F043A3
:103DB0002A4DEB68002B4AD0A88A013880B2A8822D
:103DC000002844D1264F274A3E78B2F800E0013E51
:103DD000F6B2B8464FF0010C9A6832B1596851609A
:103DE00011B159688A60586098607A689C78002A96
:103DF0002FD09178A14205D21EE091F802904C4557
:103E00001CD80A4651680029F7D1022E5860536029
:103E100000D900225C789A60042C998A02D1DA8A4F
:103E200072449A82DA6883F801C06AB11561C3E905
:103E3000030081B91346CFE711464246022E59606E
:103E40005360E6D88B60E5E7A982EA601A61BDE8B5
:103E5000F0834246D9E7A982EA60F8E7483F0020AC
:103E6000303F00202C3F002083682BB142685A600D
:103E7000426842B193607047054B5A68904203D044
:103E80001346002AF9D1704742685A60704700BF54
:103E9000303F002003699BB1C268DA6062B1998A41
:103EA00010B4848A21449982002413610023C460E1
:103EB00003615DF8044B70479A82002303617047E9
:103EC000704700BF30B40F4BDC78EFF3108272B64E
:103ED0009A78944208D9551C1A789D70551CAC42AA
:103EE00014BFEDB200251D7062B6DC78944205D98E
:103EF00003EBC203C3E9010130BC7047022030BCB0
:103F0000FEF792BEB83A002038B50F4B1C68238BE1
:103F100000EA030552B1A8420BD006250A46608389
:103F20002946104600F082F9012038BD35B9052533
:103F3000F4E723EA00002083022038BD23EA0000D2
:103F400020836583022038BD643F00200139144B73
:103F500010B553F8214044B1218B6378628B08433C
:103F6000062B208318D0052B00D010BD10EA0203C9
:103F7000FBD0638320EA020020832046FFF78AFFFC
:103F8000012320466370628B0821FFF753FC204613
:103F9000BDE8104000F00EB932EA0003EAD010BDCF
:103FA0003C3B00200139044B53F821301BB11A8BE4
:103FB00022EA00021A8370473C3B002008B5013911
:103FC000064B53F821303BB101461846FFF77AFF04
:103FD000BDE8084000F02CB808BD00BF3C3B002005
:103FE00038B5038B4278458B1943062A018319D0D3
:103FF000052A00D038BD11EA0503FBD0438321EA2E
:10400000050104460183FFF745FF01232046637045
:10401000628B0821FFF70EFC21460448BDE83840BA
:10402000FFF7F8BD35EA0103E9D038BD303F002085
:10403000054B1A7822B9054B4FF080521A60704731
:1040400001229A70704700BF300B002004ED00E0A1
:1040500038B5234B234C186801234370FFF716FE35
:104060006378A2781D46C2B104EBC5014B681A788B
:10407000184662B3012A2ED0FFF7D2FCE37801354F
:10408000AB4212D0EFF3108372B6A378013BA3705A
:1040900062B6A378002BE7D1EBB213486370FFF749
:1040A000E1FDBDE8384000F073B8EFF3108372B65D
:1040B000A378013BA37062B6A578002DECD0002553
:1040C00004EBC5014B681A781846002AD2D1098939
:1040D000FFF786FFD2E78968FFF728FDCEE700BF2C
:1040E000643F0020B83A0020303F00200A4A0B49C4
:1040F0000B480C4B10B414680C600B4A00240721C9
:104100000460196013685DF8044B43F07F434FF07F
:10411000FF301360704700BF20A0000014E000E0F3
:1041200018E000E010E000E020ED00E0704700BF84
:1041300008B50B4B186801234370FFF7A7FDFEF786
:104140008BFD084A136801331360FFF72FFEFFF75A
:1041500003F90548FFF786FDBDE8084000F018B8F0
:10416000643F00202C3F0020303F0020064B1B689E
:10417000D3E90A329A4203D81268044B9A4202D019
:104180000120FEF751BD7047643F0020A52E5AE282
:10419000064A074B12785860022141702AB11B6809
:1041A000984202D0C078FFF787BB7047283F0020B5
:1041B000643F002038B500B3194D82780446286862
:1041C00083789A4211D9FFF761FD164A2B6812785D
:1041D0000120022158706C606170DAB1A34219D0DD
:1041E000E078BDE83840FFF767BB012363702146E4
:1041F0000D48BDE83840FFF70DBD0B48FFF732FD15
:10420000084A074B127858600221417012B11B68AE
:10421000984200D138BDC078BDE83840FFF74CBBAC
:10422000643F0020283F0020303F002000B9704745
:1042300038B54FF6FF720E4D90420C462B6804D0F5
:1042400001461846FFF782FD2B685C700948FFF7AE
:1042500009FD094B68601B78022242703BB12B6854
:10426000984204D0C078BDE83840FFF725BB38BD80
:10427000643F0020303F0020283F0020024B186898
:1042800000B1C078704700BF643F002038B5C0B1AE
:10429000214B1B88834237D30138204B53F82040F1
:1042A000002C31D01E4DA1702B6884F824109C4244
:1042B0000CD02046FFF7F4FC6378012B26D00020B9
:1042C00038BD174D2B68997083F82410154C62681F
:1042D00092788A42F3D919462046FFF79BFC2B6857
:1042E00001225A702046FFF7BDFC0F4B68601B7817
:1042F00002224270002BE2D02B689842DFD0C078B7
:10430000FFF7DAFA002038BDFF2038BD0548FFF777
:10431000A9FCFFF74FFFD2E718A000003C3B0020AC
:10432000643F0020303F0020283F00202DE9F0416D
:1043300011F0FF0F0D460646294890461F4608BF5C
:104340000135FFF74BFB044660B30023C5F30F2193
:104350004FF48072EDB2C0F82C80C761C1848570C3
:1043600080F8245002800362C0E90133C0E90333BE
:10437000C0E9053380F82530C1B120463146FFF74A
:10438000FBF9184B188868B1174E33682BB33246C7
:10439000012303E052F8041F69B12B46984203F150
:1043A0000105F7D100252846BDE8F0810F48FFF749
:1043B00015FBE062E1E7E9B20D4A46F823401378C5
:1043C000E1702BB92046FFF7F5FE2846BDE8F081E5
:1043D00001212046FFF75AFAF4E701210D46EBE7E9
:1043E000C00C002018A000003C3B0020680D0020FD
:1043F000283F00202DE9F84F664E346800285ED033
:10440000E37883425BD0644B1B888342C0F0BF805B
:10441000471EDFF898B15BF82790B9F1000F00F064
:10442000B6804846FFF720FD4846FFF733FDD9F830
:10443000204044B36368DFF86CA14FF001082046C8
:10444000DBB1FFF70FFC00210546FFF7E9F928462D
:10445000FFF720FD85F8018029465046FFF7DAFB7B
:10446000E2682B6AE360A560A4F802802C6252B176
:10447000144620466368002BE3D1E2686380C4E9F8
:104480000233002AF4D1454DD9F82C1044480024B9
:104490004BF82740FFF7B0FA2B78C9F82C40002BD7
:1044A00070D1404C40484946FFF7A6FA636831682E
:1044B0009A788B789A425ED80020BDE8F88F002366
:1044C0006370FCF708F8A062FFF750FE33681C6ABF
:1044D00034B36368DFF8CC8001272046CBB1FFF707
:1044E000C1FB00210546FFF79BF92846FFF7D2FCE8
:1044F0006F7029464046FFF78DFBE2682B6AE36048
:10450000A56067802C6252B1144620466368002B78
:10451000E5D1E2686380C4E90233002AF4D133684C
:10452000DA78D96A21481D4D531E002440F82340F3
:104530001B48FFF761FA33682A78DC62AAB91A4887
:104540001946FFF759FA002416483460FFF78AFB32
:104550002B78706002224270002BADD033689842F5
:10456000AAD0C078FFF7A8F9A6E718462146FFF7BA
:104570008DF93368E3E7012320464B70FFF74AFBD0
:104580002046E3E721464846FFF780F989E7FF2008
:10459000BDE8F88F643F002018A00000283F0020ED
:1045A000680D0020303F0020C00C00203C3B002064
:1045B00038B5FFF751F9244B1A8822B19200002137
:1045C000224804F0CBFC224B22481988224D342289
:1045D000FFF7D8F9214A224B12881968214842F086
:1045E0000042FFF7CFF9204B204A186811880822B3
:1045F000FFF7C8F91E4B1B480024C5E90034C5E984
:104600000244C5E90444AC61C5E90844FFF7E6F992
:104610001849E8622846FFF7AFF8174B174A1D60A4
:1046200017481849127802236B70174BC270042286
:1046300004800A701A704C60C3E903449C82BDE890
:104640003840FEF707BB00BF18A000003C3B00202D
:104650002CA00000C00C00206C3F00201CA000001B
:1046600030A00000680D0020703B002054A0000026
:10467000000100FF212C0000643F002038A0000052
:10468000B83A0020303F0020483F002008B51E4BBC
:104690001A6842F47F021A601B681B0203F07F4312
:1046A000DB43B3FA83F3194A194812680168DBB295
:1046B000C3F10803C2F30222934298BF531C6FF068
:1046C000807202FA03F303F07F4321F07F42134329
:1046D0000360FFF70BFD0F4B0028186012DB00F1A1
:1046E000604000F56440FF2202701A6853099B0085
:1046F00003F1604303F5614302F01F02012101FA57
:1047000002F21A6008BD00BF20ED00E00CED00E0F1
:104710001CED00E0603F002073B50E4B0E484FF0DB
:1047200085440125C3F80057002640F20113266096
:10473000ADF80030009900F083FD4FF48073ADF8C0
:1047400004300199044800F05DFDA661256002B0C7
:1047500070BD00BF000090420000044010B5044648
:1047600028B90A4B0A4A0B48CC2102F0DFFB4378F8
:10477000FF2B09D000F036FA63780133DBB26370A7
:1047800000F026FA002010BD0120FCE768A0000020
:10479000ADA000006DA000000A4B00229A6403F156
:1047A00040029A6303F130029A6203F120029A6197
:1047B00003F110029A60044A1360044BC3E9023308
:1047C000704700BF783B0020743B0020C83B0020AE
:1047D00008B5FFF7E1FFFFF79FFF002008BD0000CD
:1047E0000A4A137803F03F0343F080031370937970
:1047F000C3F38103022BFAD1054B002283F8B820C2
:1048000093F8D420002AFBD1704700BF0040064037
:104810000000C84270B5044688B00D46417A42484F
:10482000059100F07BFE23880599042B31D1802867
:1048300001D1FFF7D5FF07ABCDE9005322796379AA
:10484000E179394800F0A8FE384B012283F8242092
:10485000364DA3782B71E3782B70A3786BB1237955
:10486000012B03D16179304800F080FD237985F870
:10487000203095F8C0209342FBD1A07A00284DD07B
:104880002948E37A627B217B00F0C0FD002008B05C
:1048900070BD082B1BD1802801D1FFF7A1FF234B4E
:1048A000214E002283F8242007ABCDE90153E379A0
:1048B0000093A279237A304600F0CCFE337803F0DF
:1048C0003F033370B37913F00C0FFBD1C0E7802B9B
:1048D00028D1802807AE0ED0144B1348002283F84D
:1048E0002420E3790093CDE90156237AA27905913A
:1048F00000F0B0FE05990C4D637B00930196237B7D
:104900000022284600F01EFF2B7803F03F032B7097
:10491000AB79C3F38103032BFAD199E7034B83F8F7
:104920009800B4E70120B2E7004006400000C8420A
:10493000064B0A7853F8203003F1424303F5801305
:104940005B011A774A781A75704700BF90A1000082
:1049500010B50C4630B1194B194A1A4840F24F2194
:1049600002F0E4FA8B7A012B0DD10B794A79DB0046
:1049700043EA8203CA798979134343EA4101124B1E
:10498000186800F04BFF04F10B010020FFF7D0FF87
:10499000A37A227A617A0D4800F095FD628940F28F
:1049A00001139A4204D10A4A92F8C430002BFBD07A
:1049B000084B22681A60002010BD00BF2CA1000027
:1049C0007DA10000D2A0000090A1000000400640A0
:1049D0000000C842EC3B002008B530B1124B134A2E
:1049E00013484FF4307102F0A1FA124B0122C3F8C0
:1049F000F427114B0A681A60104A114B12681344CD
:104A00005B010A7A186840B93AB108795861487967
:104A100018618879D860C87998601A604A7A82F0FB
:104A200001025A60002008BD4AA1000068A10000F0
:104A3000D2A0000000009042F03B00204CA60000F5
:104A4000110010C2054B00F0E002134400F01F00FB
:104A500003449B0001221A60704700BF4001A4106C
:104A600008B5054800F00EFD044B5B6C1B0F0133CD
:104A7000B0FBF3F008BD00BF0040064000800440DA
:104A800037B5044628B91D4B1D4A1E48722102F055
:104A90004DFA1D4D042300930122022328460021D4
:104AA00000F0C3FE19492046FFF7B4FE637D009372
:104AB000237DE27CA17C284600F0B7FE1449237CCC
:104AC0004A681B0422F4403203F4403313434B6022
:104AD000637C2A689B0422F4402203F4402313439E
:104AE0002B6004F10E010020FFF722FFFFF7B8FF53
:104AF000084B1860002003B030BD00BF94A1000037
:104B000095A20000A3A1000000700440194B000012
:104B1000008004407004002008B5FFF7A1FF40F6B4
:104B2000B833B0FBF3F0013800D208BD00BFFAE79C
:104B300008B5054800F0A6FC044B5B6CC3F30363A7
:104B40000133B0FBF3F008BD004006400080044094
:104B500008B50146044800F07DFE044B08B918680A
:104B600008BD5868FCE700BF00700440D83B002037
:104B7000042808B506D9064B064A074840F2B12179
:104B800002F0D4F9054B185CBDE80840FFF75ABFA6
:104B9000F0A100007BA20000A3A10000B4A20000CD
:104BA000032808B506D9064B064A074840F24631A5
:104BB00002F0BCF9054B185CBDE80840FFF742BFA6
:104BC0002AA2000062A20000A3A10000B0A200007F
:104BD000034A13681BB1013B136003B962B6704707
:104BE000E03B002072B6024A13680133136070473D
:104BF000E03B0020094B1B6853F8203063B10109EA
:104C0000074A52F8212000F00F001077D0775A6839
:104C100012B1197B98681047704700BFE43B002031
:104C2000BCA200002DE9F74FDFF87C80DFF87C9014
:104C300058F82040D4F82CB0060100274FF0020AA3
:104C4000BBF1000F01D0102F09D104F1424404F54B
:104C5000801464010023636103B0BDE8F08F1BF092
:104C6000010F1DD0FDB2BB19002229462046019339
:104C700000F0EEFED9F80020019B52F823307BB102
:104C80003544C5F3031205F00F0558F822201577B7
:104C9000D5775A6883F80CA012B1197B98689047B1
:104CA0004FEA5B0B0137CBE7BCA20000E43B0020DE
:104CB0000368C90001F0180123F0180319430160CB
:104CC00070470000072908B506D9074B074A08486E
:104CD0004FF40C7102F02AF900EBC10003691B0CC0
:104CE0001B041A43026108BDC0A20000EDA400002D
:104CF000E8A200000328F8B505460E4605D9334B57
:104D0000334A3921334802F011F9334B53F820402C
:104D10001CB9324B2E4A3A21F4E7314B53F820703C
:104D2000FFF73EFF204600F04DFF0023FFB21A467A
:104D3000BB4236DB204600F0DBFE7168204600F007
:104D4000F5FED4F88420337822F01F0203F01F030D
:104D50001343C4F88430B3784BB3224B23445B0134
:104D600001229A617378D4F884209B0122F0C0025A
:104D7000DBB21343C4F884301B4B5957012201F0B6
:104D80001F039A404B099B0003F1604303F5614305
:104D90000029C3F8802110DA144B154A5D2115480B
:104DA000B1E704EBC3010133CA600A61C0E7124BEB
:104DB00023445B0101229A60D4E7552903DD0F4BA0
:104DC0000B4A5E21EBE71A600020F8BD1EA300002D
:104DD00049A500003CA3000068A500007DA30000D9
:104DE00058A50000740010C278A5000099A3000027
:104DF00037A50000A8A30000540010C2EBA30000D8
:104E0000032808B506D90D4B0D4A4FF48D710D4896
:104E100002F08CF821B90C4B094A40F21B11F6E75D
:104E20000A4B53F82000036802F0070223F007033F
:104E300013430360064B197008BD00BF1EA300009A
:104E400026A500003CA3000016A4000068A50000F1
:104E5000E83B0020032810B506D9114B114A12482F
:104E600040F22B1102F062F8104A52F820301C6810
:104E70000F4B1B78022B04F0070409D0032B03D03F
:104E8000012B09D0002010BDFFF762FEE040FAE7D9
:104E9000084800F008FBF9E7FFF74AFEF6E700BF15
:104EA0001EA3000015A500003CA3000068A500009B
:104EB000E83B00200040064003282DE9F0418046F1
:104EC0000D46174606D9514B514A4FF4B57151481A
:104ED00002F02CF88B68642B04D94F4B4C4A40F2FB
:104EE0006B11F4E74D4B53F820309A4204DB4C4BE6
:104EF000474A4FF4B671EAE74A4B4B4E53F820400D
:104F000004F1424303F580135B010020D861204681
:104F100000F086FE3378002B75D05FFA88F0FFF73B
:104F200099FFE36C41490B40E3642B78032B21D0BC
:104F3000042B35D0022B61D16B68B0FBF3F083B248
:104F4000AA68581E80B264254243B2FBF5F2A568F8
:104F5000294092B20143A160904298BF1A46394657
:104F60002046FFF7AFFE20463178FFF7A1FE002074
:104F7000BDE8F0816B68AA685B00B0FBF3F399B2FF
:104F80004A436420B2FBF0F292B291420B469CBFBE
:104F900001318AB2A168090C09041943A160DEE756
:104FA0006B68B0FBF3F083B2AA68AD89581E80B27B
:104FB00002FB00F86422B8FBF2F81FFA88F84045BB
:104FC00098BF9846A3680B400343A3604543384607
:104FD000B5FBF2F500F015FEADB2400000F0FE01A9
:104FE0002A462046FFF76EFE384600F00AFE4100D2
:104FF00008EB0502013192B2C9B2B1E70C4B044A89
:1050000040F2A71163E70120B2E700BF1EA3000032
:1050100004A500003CA30000CDA4000058A500009A
:10502000A7A4000068A50000E83B00200000FFFFE7
:10503000EBA4000008B5034A034B0448FF2101F02C
:1050400075FF00BF0FA600007CA5000086A500002C
:105050002DE9F84304682F4BC4F30728054653F89D
:1050600028902D4B404653F82860FFF781FD14F03F
:10507000E002E7B201D0FFF7DDFF56F8273023F05A
:10508000807323F4E06343F4807346F82730394695
:1050900006EB8704484600F035FE04F1424303F571
:1050A00080135B012A795A606A791A60AA791A61B9
:1050B000EB79D6F8C020BB401343C6F8C030297A3C
:1050C00056F827200B0422F0877203F4702322F491
:1050D0008032134346F82730D1B1104B13F9083012
:1050E000002B15D005DA0E4B0E4A5D210E4801F05B
:1050F0001DFF552B03DD0D4B0A4A5E21F6E75909CA
:10510000012203F01F0302FA03F3094A42F8213097
:10511000BDE8F8839CA90000B0A90000C4A9000064
:1051200099A30000FDA50000A8A30000EBA30000C8
:1051300000E100E02DE9F04107681A4B0546C7F38E
:105140000720FEB253F82080174B53F82040FFF79A
:105150000FFD17F0E00F01D0FFF76CFF54F8263079
:1051600023F0807323F4E06343F4807344F8263023
:1051700004EB860404F1424401223146404604F522
:10518000801400F0BFFD64016A683146404600F0BB
:10519000D3FD2B7AA3606B7AA361AB7A6361BDE820
:1051A000F08100BF9CA90000B0A9000010B4054B1D
:1051B000C0F307240A46C1B253F824005DF8044B3B
:1051C00000F0BABD9CA9000008B5C0F30722094B46
:1051D00010F0E00F53F82220C3B206D0064B074A66
:1051E00007484FF49B7101F0A1FE1069D84000F010
:1051F000010008BD9CA90000BDA5000023A6000079
:10520000C6A5000082B001919DF804309DF80620EB
:1052100001685B00D20002F0080203F002031343AE
:105220009DF8052043EA82039DF80720120102F051
:10523000300221F0BE0113430B43036002B07047FC
:105240000B46C1F301225B0BC9B242EA810203F0B3
:10525000780382B01A43426002B07047012905D03A
:10526000022905D031B9044B18687047034BFBE79E
:105270000348704700207047EC3B0020F03B0020C3
:10528000006CDC02017B01F00301FFF7E7BF21FAAC
:1052900002F07BB19DF80030012B0BD0062A06D01E
:1052A00003D9072A07D0002070474009704714230C
:1052B000B0FBF3F070470C23FAE7000037B500F1BC
:1052C000424303F580135B0104461B7A8BB9FFF759
:1052D000D9FF22786378257B05F003050146009508
:1052E000C3F30113C2F3C2022046FFF7D0FF03B09D
:1052F00030BD014B1868FAE77804002010B522B1E0
:10530000B1F5004F08D900200CE0A1F5F4401238A7
:1053100041F68564A04206D802EB4303034A32F803
:105320001300484310BD1046FCE700BF3AA600003A
:1053300010B50C4B03445B0104461B7D7BB9FFF7A2
:10534000BDFF014658B1084B23445B0120461A7F3C
:10535000E378BDE81040C3F34113FFF7CFBF00204F
:1053600010BD00BF060010C2030010C2037AC3F3D1
:1053700042038B4210B50CD0104B03445B01490033
:105380001A7801F00E012AB9037A03F0F0031943E9
:10539000017210BD00221A70094A024452011478A9
:1053A000002CFCD1047A04F0F004214301720121A5
:1053B00019701378012BFCD1EBE700BF010010C27C
:1053C000060010C208B50F4B03445B0102461B7D6B
:1053D00033B90D4B03445B01197E01F0FF0371B13A
:1053E0001046FFF74FFF137903F01F030133B0FBA3
:1053F000F3F0537903F01F031833584308BD1846E0
:10540000FCE700BF060010C2040010C210B54479CA
:1054100002F01F0204F0E00414434471027901F029
:105420001F0102F080020A4342EA431242F04002A6
:10543000D2B20271400100F18440D8300378002BD1
:10544000FCD010BD00F1424303F580135B011A79D3
:1054500002F0FF0372B1084B03445B011B7813B9E0
:10546000064B18687047064A037A1068C3F3420374
:10547000D840704718467047010010C278040020D9
:10548000740400208379C3F38103022B09D0032B1A
:1054900003D0012B03D1FFF7D5BFFFF793BFFFF771
:1054A00047BFFFF7EFBE38B50546FFF707FF0446D5
:1054B00010B90024204638BD2846FFF7E3FFB4EBBF
:1054C000D00FF6D8F6E710B5D2009B00447802F072
:1054D000080203F0040309011A4301F030010A43F2
:1054E00004F0C3042243427010BD0000037B01F0AE
:1054F000030203F0FC031343037359B9064B03443F
:105500005B011B7A33B1400100F18440C430037861
:10551000002BFCD0704700BF010010C210B503463D
:105520001C4C13F8061F03F14243044403F5801397
:105530005B0164011A7C20791B7DC1F38101022982
:10554000D2B2C0B2DBB211D0032916D0012905D0E6
:10555000E3B9002A0CBF0820012010BD012A15D193
:10556000A3B900280CBF02200420F6E772B958B98D
:10557000002B14BF40201020EFE73AB9002B0CBFDE
:105580004FF400708020E8E72020E6E74FF4007039
:10559000E3E700BF010010C22DE9F843DDF82490D5
:1055A0000446884615461F46FFF7B8FF10F01D0F4A
:1055B00047D0254B23445B0100221A7723782246EB
:1055C00003F03B0343F0440302F8063B02F142427E
:1055D00002F58012560106F110021378012BFCD15E
:1055E000012D03D139462046FFF7C0FE637805F050
:1055F000010203F0FC031343637033789D42FCD136
:10560000E2784FEA481303F0600302F09F0213436D
:10561000E370E378C3F341134345FAD1A379C3F3AD
:105620008103012BFAD1089B984735B9074B1B68BA
:10563000C9F800300020BDE8F883054B1B68FB402B
:10564000F6E70120F7E700BF030010C2780400204E
:10565000740400202DE9F04704469DF82060894637
:1056600015461F46FFF75AFF10F07B0F82465FD0AA
:1056700049462046FFF7F2FD804600285AD02E4BBF
:1056800023445B0100221A762C4B23445B0103F177
:105690001400027802F0FF01002AFAD1284A2244BD
:1056A0005201BAF1080F117106D0217B09F00300F5
:1056B00001F0FC01014321732178ED0005F038056C
:1056C00001F003010D4345F080052570197C002988
:1056D000FCD1BAF1080F06D1217B09F0030001F0DB
:1056E000FC0101432173B9F1000F04D1127A12B108
:1056F0001A79002AFCD0E178720102F0600242EAD5
:10570000C71301F01F021343DBB2E370E378C3F366
:105710004113B342FAD1A379C3F38103022BFAD127
:10572000099B98470A9B0020C3F80080BDE8F087DA
:105730000120FBE72120F9E7050010C2060010C296
:10574000010010C2F7B5044601911D46FFF7E6FEC1
:1057500010F0B00F52D001992046FFF77FFD0646AA
:1057600000284DD0284B6A1CB0FBF2F2A2F5F412CF
:10577000A2F590629A4245D8244B019923445B01DB
:1057800000221A71237803F03F0343F08003237053
:10579000A379C3F38103022BFAD12046FFF7A6FEBB
:1057A0001B4B1C49234421445B01490100221A760A
:1057B0000A76194A2244520102F114073B78002B61
:1057C000FCD123799DF8200003F0E00305F01F05CC
:1057D0001D432571637900F01F0003F0E0030343CC
:1057E000637101230B763B78002BFCD0137E002BDA
:1057F000FCD0099B00201E6003B0F0BD0120FBE738
:105800002120F9E74120F7E780841E00010010C243
:10581000040010C2050010C2060010C2037803F095
:10582000F0031943C9B20170704710B59DF80840E4
:105830001B05240403F4700304F4702423431206AC
:1058400043EA017102F0706200F580500A4342643D
:1058500010BD0000032908B506D9164B164A174893
:1058600040F2432101F062FB00F58050022900F173
:105870000C0010D0032915D0012915BF104B00F1E1
:1058800042401B1800F5801015BF5B0140011868ED
:10589000406EC0B208BD00F1424000F580104001EA
:1058A000806EF6E700F1424000F580104001C06EC6
:1058B000EFE700BF1EA30000E8A600006EA60000F0
:1058C000030010C2052838B506D90D4B0D4A0E4805
:1058D00040F2C32101F02AFB0C4B53F820400C4B43
:1058E00053F820200B4B13445B0100251D77A37D4B
:1058F0001BB104F11800FEF731FF257538BD00BF5C
:1059000009A7000088A7000028A70000F43B00209A
:10591000CCA90000030010C2052838B506D90F4BEA
:105920000F4A104840F20A3101F000FB0E4B53F8C9
:1059300020400E4B53F820000D4B03445B01002523
:105940001D752A4640F2032100F015FAE37D1BB1D4
:1059500004F12400FEF702FF657538BD09A70000B9
:105960006BA7000028A70000F43B0020CCA9000092
:10597000030010C2F8B5324B53F82040314B53F8B6
:105980002050237D074613B9637D002B57D02E4E40
:105990002E447601337D2BB12C4B2B445B011B7DB8
:1059A000002B34D1337FF3B1284B2B445B011B7F99
:1059B000CBB1E368BBB12B7D2678F61AF6B296B16F
:1059C00063682846197800F0CFF9A36B002B2FD01D
:1059D000214638469847E368013EF6B2002BEED1E7
:1059E0003846FFF76FFF0321284600F0F7F930B380
:1059F00028460321BDE8F84000F005BAA168284612
:105A000000F0B5F9236B33B1214638469847AB7D9A
:105A1000002BF3D1C6E7A3680133A3602369013BE0
:105A200023612369002BF2D13846FFF775FFB9E7F0
:105A3000636801336360E368013BE360CBE7F8BD73
:105A4000F43B0020CCA90000030010C2040010C2E7
:105A50000AB1C1767047817670470000072908B502
:105A600006D90A4B0A4A0B484FF4D97101F05EFA85
:105A70000131C9B2084B00EBC10003445B0102F0E5
:105A8000010152109960DA6008BD00BFC0A2000099
:105A9000E8A80000E8A20000040010C208B5034A0C
:105AA000034B04484FF4D27101F040FAD0A8000033
:105AB000C0A20000E8A20000032908B506D9094BDE
:105AC000094A0A4840F2B13101F030FAC900012315
:105AD0008B401AB1426E1343436608BD426E22EA00
:105AE0000303F9E7A2A70000B3A80000E8A20000A2
:105AF00008B50A4B03445B019A6832B9084B094A5E
:105B000009484FF4387101F011FA01221A60036854
:105B100023F007031343036008BD00BF540010C205
:105B2000D4A70000A4A80000E8A2000011F0F00F24
:105B300038B505D11E4B1F4A1F483D2101F0F6F92B
:105B40001E4B1F4C034404445B0164010122DA61D3
:105B50009A601A615A61E260456E45F0200545661B
:105B6000456E45F400554566456E45F4001545669D
:105B7000456E45F0005545660D0604D51A625A6219
:105B8000DA621A639A6211F0700F10D00122C8060F
:105B90001A645A64DA641A659A6448BF22618A06F4
:105BA00044BF012363614B0644BF0123A36138BD99
:105BB000F0A7000090A8000056A800008C0010C2BA
:105BC000580010C200230422036043608360C36452
:105BD000036542658365C365036643668366C36682
:105BE000036743678367C367C0F88430C0F88830B1
:105BF000C0F88C30C0F89030C0F89430C0F89830BD
:105C00007047012808D9831E012B07D904380128C1
:105C100094BF022003207047002070470120704786
:105C20002DE9F04105461046FFF7EBFF5FFA80F8DB
:105C3000B8F1030F0F46164606D92C4B2C4A2D48B7
:105C400040F2923101F072F96B6E4FEAC8020424FF
:105C500004FA02F223EA02036B664B78002B14BFAE
:105C60000122022231462846FFF7F8FE3B78032B3B
:105C700005F1424720D0A34207F5801727D0022B19
:105C80002FD10022414628467F01FFF715FF002350
:105C9000072E7B6101D9FFF701FF0136F6B204EB55
:105CA000C604281900F1424000F58010400103614C
:105CB00001234361BDE8F08107F5801700224146CA
:105CC00028467F01FFF7F8FE01237B61F2E77F01A1
:105CD00000237B61414628460122BDE8F041FFF7E1
:105CE000EBBE054B054A06488A21ABE7A2A7000098
:105CF00000A90000E8A20000EBA400001EA900001B
:105D000056A800001F2908B505D9084B084A0948BC
:105D10002E2101F00BF9012303FA01F19A424369A4
:105D20000CBF0B438B43436108BD00BFBDA5000002
