:1000000000000020BD040000DB190000E119000021
:10001000E7190000ED190000F319000000000000CE
:100020000000000000000000000000002D0500009E
:10003000F919000000000000D3050000330600009D
:1000400099180000A7180000B5180000C318000098
:10005000D1180000DF180000ED180000FB180000A8
:1000600009190000171900002519000033190000B4
:10007000411900004F1900005D1900006B190000C4
:1000800079190000FF190000051A00000B1A000082
:10009000111A0000171A00001D1A0000231A000090
:1000A000291A00002F1A0000351A00003B1A000020
:1000B000411A0000471A00004D1A0000871900007D
:1000C000531A000095190000591A0000A3190000E6
:1000D0005F1A0000B1190000651A00006B1A0000D9
:1000E000711A0000771A00007D1A0000831A0000C0
:1000F000891A00008F1A0000951A00009B1A000050
:10010000CD040000CD040000CD040000CD040000AB
:10011000A11A0000A71A0000AD1A0000B31A0000CF
:10012000B91A0000BF1A0000C51A0000CB1A00005F
:10013000D11A0000D71A0000DD1A0000E31A0000EF
:10014000E91A0000EF1A0000BF190000F51A0000BC
:10015000CD190000FB1A0000011B0000071B000066
:100160000D1B0000131B0000191B00001F1B0000CB
:10017000251B00002B1B0000311B0000371B00005B
:100180003D1B0000CD040000CD040000CD040000A4
:10019000CD040000CD040000CD040000CD0400001B
:1001A000CD040000CD040000CD040000CD0400000B
:1001B000CD040000CD040000CD040000CD040000FB
:1001C000CD040000CD040000CD040000CD040000EB
:1003F000CD040000CD040000CD040000FFFFFFFF8E
:10040000FFFFFFFFFFFFFFFFFFFFFFFFFEFFFFFFFD
:10044000A3F5803A704700BF174B002B08BF134B32
:100450009D46FFF7F5FF00218B460F461348144ACF
:10046000121A07F08FF90E4B002B00D098470D4B56
:10047000002B00D098470020002104000D000D48FB
:10048000002802D00C4805F085F907F0BBFA2000DF
:10049000290000F067FD05F083F900BF00000800A7
:1004A00000000000C51C00000000002048080020DB
:1004B000043C0020955700004D7A000072B600F011
:1004C00021FF00F0B7FE62B6FFF7BEFFFFF7FEBFE9
:1004D00080F309887047EFF309807047684680F31E
:1004E00009885A480078C00714BF0220032080F30F
:1004F00014887047DFF858C1EFF305831B0618BF57
:100500006047EFF31483DB0708BF604700DF7047E5
:10051000DFF840C1EFF305831B0618BF6047EFF318
:100520001483DB0708BF604700DF7047EFF30980E3
:10053000816911F8021CE1BB90E80F1010B5E0478B
:10054000BDE81040EFF3098C8CE80700424B93E8BC
:100550000600914208BF704741B91EF0100F16D136
:100560003E49086820F00100086010E01EF0100FFE
:1005700006BF2CED108A0120002081F825002CE90F
:10058000F00FC1F828C00CB402F024FE0CBC1A60B5
:10059000D2F828C0BCE8F00F92F8250000280EBF62
:1005A0006FF0020E6FF0120EBCEC108A8CF309880B
:1005B000704710B52A4A1268914209D8294C54F85C
:1005C000214090E80F10A047EFF3098C8CE80F0052
:1005D00010BD10B502F070FDBDE810401E4B93E851
:1005E0000600914208BF7047EFF3098C1EF0100F10
:1005F00006BF2CED108A0120002081F825002CE98F
:10060000F00FC1F828C00CB402F0E4FD0CBC1A6075
:10061000D2F828C0BCE8F00F92F8250000280EBFE1
:100620006FF0020E6FF0120EBCEC108A8CF309888A
:10063000704710B502F0B0FDFFF7CEBF10B502F065
:10064000A9FD02F0A9FDFFF7C7BF0000F487000075
:10065000452A0000612A0000C83B002034EF00E07A
:1006600000000000FCFFFFFF4FF0FF3C06E000BF72
:100670004FF0010C02E000BF4FF0010C4DF804CD2B
:100680004FEA410C7FEA6C5C4FEA430C18BF7FEAEB
:100690006C5C1BD001B050EA410C0CBF52EA430C19
:1006A00091EA030F02BF90EA020F0020704710F199
:1006B000000F91EA030F58BF994208BF90422CBF28
:1006C000D8176FEAE37040F0010070474FEA410C21
:1006D0007FEA6C5C02D150EA013C07D14FEA430C3F
:1006E0007FEA6C5CD6D152EA033CD3D05DF8040BB0
:1006F000704700BF8446104662468C4619466346E2
:1007000000E000BF01B5FFF7B7FF002848BF10F1B8
:10071000000F01BD4DF808EDFFF7F4FF0CBF0120FD
:1007200000205DF808FB00BF4DF808EDFFF7EAFF79
:1007300034BF012000205DF808FB00BF4DF808ED34
:10074000FFF7E0FF94BF012000205DF808FB00BF29
:100750004DF808EDFFF7CEFF94BF012000205DF8B3
:1007600008FB00BF4DF808EDFFF7C4FF34BF0120C0
:1007700000205DF808FB00BF53B94AB9002908BF43
:1007800000281CBF4FF0FF314FF0FF3000F0E2B8FF
:10079000ADF1080C6DE904CE04F012F8DDF804E0C8
:1007A000DDE9022304B0704700F1340191E838001C
:1007B0009C46A6464CF8045D90E8FF0FE54600BD58
:1007C00090EC210B704700BF80EC210B704700BFFD
:1007D00090EC200B704700BF80EC200B704700BFEF
:1007E000D0EC200B704700BFC0EC200B704700BF5F
:1007F000F0EC0201F0EC0211F0EC0221F0EC02311D
:10080000F0EC0241F0EC0251F0EC0261F0EC02710C
:10081000F0EC0281F0EC0291F0EC02A1F0EC02B1FC
:10082000F0EC02C1F0EC02D1F0EC02E1F0EC02F1EC
:10083000704700BFE0EC0201E0EC0211E0EC0221A5
:10084000E0EC0231E0EC0241E0EC0251E0EC02614C
:10085000E0EC0271E0EC0281E0EC0291E0EC02A13C
:10086000E0EC02B1E0EC02C1E0EC02D1E0EC02E12C
:10087000E0EC02F1704700BFB0FC0181B0FC0191D7
:10088000B0FC01A1B0FC01B1704700BFA0FC018128
:10089000A0FC0191A0FC01A1A0FC01B1704700BF28
:1008A000EC4600B52DE900502DE9FF1F4FF0000385
:1008B0002DE90C0001A904F037FADDF840E012B090
:1008C000704700BFEC4600B52DE900502DE9FF1F31
:1008D0004FF000032DE90C0001A904F061FADDF8E6
:1008E00040E012B0704700BFEC4600B52DE9005063
:1008F0002DE9FF1F4FF000032DE90C0001A904F0C2
:1009000071FADDF840E012B0704700BFEC4600B568
:100910002DE900502DE9FF1F4FF000032DE90C00D9
:1009200001AB04F035FADDF840E012B0704700BFCB
:10093000EC4600B52DE900502DE9FF1F4FF00003F4
:100940002DE90C0001AA04F0A1FADDF840E012B094
:10095000704700BF704700BF0000000000000000AB
:1009600001F0FF01102A2BDB10F0070F08D010F860
:10097000013B013A8B422DD010F0070F42B3F6D164
:10098000F0B441EA012141EA014122F007047FF07D
:1009900000070023F0E80256083C85EA010586EAD4
:1009A000010685FA47F5A3FA87F586FA47F6A5FA10
:1009B00087F68EB9EED1F0BC01F0FF0102F007021C
:1009C00032B110F8013B013A83EA010313B1F8D1C7
:1009D0000020704701387047002D06BF35460338A8
:1009E000073815F0010F07D1013015F4807F02BFE1
:1009F000013015F4C03F0130F0BC0138704700BF32
:100A0000844641EA000313F003036DD1403A41D319
:100A100051F8043B40F8043B51F8043B40F8043BD8
:100A200051F8043B40F8043B51F8043B40F8043BC8
:100A300051F8043B40F8043B51F8043B40F8043BB8
:100A400051F8043B40F8043B51F8043B40F8043BA8
:100A500051F8043B40F8043B51F8043B40F8043B98
:100A600051F8043B40F8043B51F8043B40F8043B88
:100A700051F8043B40F8043B51F8043B40F8043B78
:100A800051F8043B40F8043B51F8043B40F8043B68
:100A9000403ABDD2303211D351F8043B40F8043B08
:100AA00051F8043B40F8043B51F8043B40F8043B48
:100AB00051F8043B40F8043B103AEDD20C3205D318
:100AC00051F8043B40F8043B043AF9D2043208D010
:100AD000D2071CBF11F8013B00F8013B01D30B8882
:100AE00003806046704700BF082A13D38B078DD060
:100AF00010F003038AD0C3F10403D21ADB071CBF32
:100B000011F8013B00F8013B80D331F8023B20F89B
:100B1000023B7BE7043AD9D3013A11F8013B00F8D4
:100B2000013BF9D20B7803704B7843708B7883705C
:100B30006046704700000000000000000000000058
:100B400090F800F06DE9024520F007016FF0000C0D
:100B500010F0070491F820F040F049804FF00004B5
:100B60006FF00700D1E9002391F840F000F1080090
:100B700082FA4CF2A4FA8CF283FA4CF3A2FA8CF3C8
:100B80004BBBD1E9022382FA4CF200F10800A4FA2F
:100B90008CF283FA4CF3A2FA8CF3E3B9D1E9042383
:100BA00082FA4CF200F10800A4FA8CF283FA4CF3BA
:100BB000A2FA8CF37BB9D1E9062301F1200182FA74
:100BC0004CF200F10800A4FA8CF283FA4CF3A2FA7A
:100BD0008CF3002BC6D0002A04BF04301A4612BA88
:100BE000B2FA82F2FDE8024500EBD2007047D1E98B
:100BF000002304F00305C4F100004FEAC50514F01A
:100C0000040F91F840F00CFA05F562EA05021CBFEA
:100C100063EA050362464FF00004A9E70348044B6A
:100C2000834202D0034B03B11847704748080020A5
:100C300048080020000000000548064B1B1AD90F89
:100C400001EBA301491002D0034B03B118477047D1
:100C500048080020480800200000000010B5064C9D
:100C6000237843B9FFF7DAFF044B13B10448AFF31D
:100C700000800123237010BD4B08002000000000FD
:100C8000AC8E000008B5054B1BB105490548AFF314
:100C90000080BDE80840FFF7CFBF00BF00000000A4
:100CA0004C080020AC8E000080B590B000AF78609A
:100CB0000B46FB70FB78002B27D107F124030022A1
:100CC0001A605A609A60DA601A615A612D4A7B682C
:100CD00052F833307B62012387F82830012387F8EC
:100CE00029304FF0FF333B6307F12403184602F02D
:100CF000E9FF244A7B68DB00134401221A717B68F8
:100D0000DB00204A1344FB6336E0FB78012B31D132
:100D100007F10C0300221A605A609A60DA601A61C7
:100D20005A61184A7B6852F83330FB6001233B75E7
:100D30004FF0FF33BB6107F10C03184603F034F8A2
:100D4000104A7B68DB00134402221A717B68292B4E
:100D50000AD97B682C2B07D80A4A7B6852F83330B3
:100D60000121184603F05CF87B68DB00054A134458
:100D7000FB6301E00023FB63FB6B18464037BD4675
:100D800080BD00BF0000002080B586B000AF786055
:100D90007B683B613B69002B0BD03B691B79012BC6
:100DA00007D13B691B68184603F048F80346FB75FA
:100DB00001E00023FB753B691B681B0ADBB2FB608B
:100DC0003B691B68DBB2BB60FB68022B02D1BB68CE
:100DD000062B05D0FB68002B09D1BB68042B06D17C
:100DE000FB7D002B0CBF01230023DBB2FB75FB7DD9
:100DF00018461837BD4680BD80B586B000AF786014
:100E00000B46FB707B687B617B69002B2FD07B6975
:100E10001B79022B2BD17B691B681B0ADBB23B6160
:100E20007B691B68DBB2FB603B69012B05D1FB686A
:100E3000162B08D0FB68152B05D03B69042B0FD16E
:100E4000FB681A2B0CD17B691A68FB78012B14BF45
:100E500001230023DBB21946104602F0E1FF06E051
:100E60007B691B68FA781146184602F0D9FF00BF6B
:100E70001837BD4680BD80B485B000AF78607B6810
:100E8000FB60FB68002B0ED0FB681B79022B03D1A3
:100E9000FB6800221A7106E0FB681B79012B02D166
:100EA000FB6800221A7100BF1437BD465DF8047B51
:100EB0007047000080B586B000AF7861184B1B68A2
:100EC0001B68002B0CBF01230023DBB21A46154B15
:100ED0001A7011E03B461449184600F0E4FF00F098
:100EE00065F80F4B1B681B68002B14BF0123002300
:100EF000DBB21A460D4B1A700A4B1B78DBB2002B83
:100F0000E8D1084B00221A70786900F011F800202F
:100F100000F022FF002318461837BD4680BD00BFF1
:100F2000B8870000780100207008002064080020C5
:100F300080B582B000AF7860074B01221A60074B82
:100F400000221A7000F016F9054800F099FF0023FE
:100F500018460837BD4680BD8C0800207801002067
:100F60006808002080B586B000AF7861396100F074
:100F7000B1FA00F079FC0A4B1B6800221A6000F0FD
:100F8000A5F800209FED070A00F038FE3B46064911
:100F9000184600F088FF002318461837BD4680BD6C
:100FA000B88700006F12833A6808002080B582B0CD
:100FB00000AF444BD3E90601434BD3E90023FFF7CD
:100FC000A9FB0346002B05D13F4BD3E900233D4944
:100FD000C1E906233B4B1B691846FFF7D5FE0346C4
:100FE0003B71384B93F85C30002B0ED1354B01220E
:100FF00083F85C20334B032283F85D2001237B714F
:101000000023FB710023BB7142E02E4B93F85D304F
:10101000012B02D0022B12D023E000237B7101238D
:10102000FB710023BB713B79002B2CD0254B022296
:1010300083F85D200023FB710123BB7123E00023B3
:101040007B710023FB710123BB713B79002B1CD00A
:101050001C4B032283F85D2001237B710023BB71AD
:1010600013E001237B710023FB710023BB713B79EB
:10107000002B0CD0134B012283F85D2000237B71E1
:101080000123FB7103E000BF02E000BF00E000BFEE
:101090000C4B9B6D7A7911461846FFF7ADFE094B54
:1010A0005B6CFA7911461846FFF7A6FE054B1B6BE1
:1010B000BA7911461846FFF79FFE00BF0837BD46B4
:1010C00080BD00BF900800208001002080B500AFE7
:1010D000264B00221A70264BD3E900232349C1E98D
:1010E0000623224B01225A6000212D20FFF7DCFD50
:1010F00003461E4A13611D4B01221A721B4B00222C
:1011000083F84820194B0122DA6401212A20FFF7D5
:10111000CBFD0346154A9365144B012283F85020FA
:10112000124B002283F83420104B01229A630121D4
:101130002C20FFF7B9FD03460C4A53640B4B0122E8
:1011400083F83C20094B002283F82020074B012222
:101150005A6201212B20FFF7A7FD0346034A1363C0
:10116000024B012283F8282000BF80BD9008002098
:101170008001002080B500AF2D4B1B78002B0FD1D4
:101180002B4B01221A702A4B5B68012B08D1284B8C
:101190001B7A002B04D0264B1B691846FFF76BFE09
:1011A000234B93F84830002B11D1214B012283F8B7
:1011B00048201F4BDB6C012B09D11D4B93F850309D
:1011C000002B04D01A4B9B6D1846FFF754FE184BAA
:1011D00093F83430002B11D1154B012283F83420C1
:1011E000134B9B6B012B09D1114B93F83C30002B17
:1011F00004D00F4B5B6C1846FFF73DFE0C4B93F889
:101200002030002B11D10A4B012283F82020084BFB
:101210005B6A012B09D1064B93F82830002B04D0D0
:10122000034B1B6B1846FFF726FE00BF80BD00BFB7
:101230009008002080B489B000AF294BFB60294A98
:10124000294B9A4216D00023FB610AE0264AFB692B
:1012500052F823202349FB6941F82320FB6901331D
:10126000FB61FB689B08FA699A42EFD31F4B1D4A4A
:101270009A6002E01D4B1C4A9A601D4BBB611D4BDE
:101280007B611D4BBB60BA687B69D31AFB6107E0C9
:101290007A69531C7B61BB69591CB96112781A7059
:1012A000FB695A1EFA61002BF2D1144B3B61144BBF
:1012B0007B607A683B69D31AFB6104E03B695A1C86
:1012C0003A6100221A70FB695A1EFA61002BF5D1AF
:1012D00000BF00BF2437BD465DF8047B704700BFE8
:1012E00000000000000000000000000000ED00E031
:1012F0000000002090910000D899000048080020CC
:10130000043C002080B400AF684BD3F88830674AB3
:1013100043F47003C2F88830654B4CF22052DA81F6
:10132000634B4DF62812DA81614B4FF4E9721A8053
:10133000604B1B78DBB203F00103002B0FD05E4B38
:101340009B78DBB203F00803002B2CD05A4B9B7820
:10135000DBB2594A43F00803DBB2937023E0574BEA
:1013600003F58053DB6B554A43F0005302F580527E
:10137000D363534B1B6903F48073002B13D1504B81
:101380001B6923F47C534E4A43F4407313614C4B66
:101390001B694B4A43F480731361494B1B69484AEC
:1013A00023F400731361474B2A221A70434B03F551
:1013B00080531A464FF08A735364404B1B6823F4E2
:1013C00040233E4A43F4002313603C4B03F5805313
:1013D0005B6823F44033394A43F4803302F580528A
:1013E0005360364B03F580539B6B344A43F40073D0
:1013F00002F580529363344B9B6C334A23F0807325
:1014000023F4E0639364314B00221A722F4B5B7814
:10141000DBB223F06003DBB22C4A43F02003DBB2E3
:1014200053702B4B80221A70284B00221A73274BC3
:10143000BA221A7000BF254B9B79DBB203F0100370
:10144000002BF8D1214BDB78DBB2204A03F01F03DD
:10145000DBB2D3701D4B13221A711C4B18225A7128
:101460001A4B5B79DBB2194A43F04003DBB253718C
:1014700000BF164B9B79DBB203F04003002BF8D082
:10148000124B1B78DBB2114A03F03F03DBB213703F
:1014900000BF0E4B9B79DBB203F00C030C2BF8D191
:1014A00000BF00BFBD465DF8047B704700ED00E063
:1014B0000020054000F0074000D0074000700440C5
:1014C00000D0034000E00740009004400040064088
:1014D0000050064080B483B000AF9C4B1B78DBB259
:1014E00003F0C003002B40F0DE80984B5B79DBB249
:1014F00003F04003002B40F0B980944B1B78DBB223
:1015000003F00403002B4ED1904B1B7BDBB203F0A6
:101510000303002B02D0012B03D006E08C4B7B6031
:1015200006E04FF400437B6002E08A4B7B6000BF23
:10153000864B5B78DBB203F03003002B23D0834B68
:101540001B7BDBB203F00303012B1CD07F4B1B780A
:10155000DBB203F03803302B05D0382B07D14FF422
:10156000C0637B800EE04FF4A0637B800AE0774B82
:101570001B78DBB2DB0803F00703202202FA03F337
:101580007B8000BF09E0714B1B78DBB2DB0803F006
:101590000703012202FA03F37B807B887A68B2FB9F
:1015A000F3F37B6002E04FF400437B60674BDB7832
:1015B000DBB203F0E003E02B51D0E02B00F2B0806F
:1015C000C02B45D0C02B00F2AB80A02B39D0A02B74
:1015D00000F2A680802B2DD0802B00F2A180602B02
:1015E00021D0602B00F29C80402B15D0402B00F2C4
:1015F0009780002B02D0202B07D091E07A68134609
:101600009B001344DB017B608BE07A6813469B00F0
:1016100013441B027B6084E07A6813461B019B1A0B
:10162000DB017B607DE07A6813469B0013445B021C
:101630007B6076E07B684FF4377202FB03F37B60DC
:101640006FE07B684FF4B76202FB03F37B6068E0F6
:101650007B6840F6950202FB03F37B6061E07B68E8
:1016600040F6713202FB03F37B605AE0374B1B7983
:10167000DBB29BB203F01F039BB201337B807B88FC
:10168000334AB2FBF3F37B60304B5B79DBB29BB246
:1016900003F01F039BB218337B807A887B6802FBC0
:1016A00003F37B603DE0294B1B78DBB203F0C00302
:1016B000402B1AD1254B5B78DBB203F00103002BE2
:1016C00003D14FF400437B602BE0204B1B7ADBB24D
:1016D0005B0803F00703012202FA03F37B807B8897
:1016E0001D4AB2FBF3F37B601BE0184B1B78DBB2A7
:1016F00003F0C003802B22D1144B1B7BDBB203F021
:101700000303002B02D0012B03D006E0104B7B60BB
:1017100007E04FF400437B6003E00E4B7B6000E08A
:1017200000BF0E4B03F580535B6C1B0F03F00F03E0
:1017300001337A68B2FBF3F3094A136000E000BF9B
:101740000C37BD465DF8047B704700BF0040064083
:1017500080F0FA02006CDC0200093D0000700440D9
:101760008801002080B584B000AFF860B9601346EE
:10177000FB71BB681F2B05D90D4B0E4AFF210E488C
:1017800003F0E8FFFB68BA6853F8223023F0807357
:1017900023F4E063FA79120202F4E06243EA020100
:1017A000FB68BA6843F8221000BF1037BD4680BD01
:1017B00068870000D48700007487000080B483B07D
:1017C00000AF78600B46FB707B68FA781A7000BF38
:1017D0000C37BD465DF8047B7047000080B584B0CF
:1017E00000AF3B4600221A605A609A60DA60064BEE
:1017F0003B6002237B723B461946002002F0DCF876
:1018000000BF1037BD4680BD80F0FA0280B584B0BD
:1018100000AF074A3B1D07CA83E807003B1D194676
:10182000002002F00DF900BF1037BD4680BD00BF9B
:10183000AC87000080B500AF2A210848FFF7BEFF43
:10184000002212210648FFF78DFFFFF7C7FFFFF7C1
:10185000DDFF044802F048F900BF80BD00E007400A
:1018600000900440BC87000080B582B000AF01F05A
:10187000E3FF0023FB7106E0FB79184602F08CF9C8
:10188000FB790133FB71FB79042BF5D9FFF7D2FF0C
:1018900000BF0837BD4680BD80B500AF002002F014
:1018A000A5F900BF80BD80B500AF012002F09EF910
:1018B00000BF80BD80B500AF022002F097F900BFE5
:1018C00080BD80B500AF032002F090F900BF80BD5D
:1018D00080B500AF042002F089F900BF80BD80B55B
:1018E00000AF052002F082F900BF80BD80B500AFD7
:1018F000062002F07BF900BF80BD80B500AF072055
:1019000002F074F900BF80BD80B500AF082002F07E
:101910006DF900BF80BD80B500AF092002F066F907
:1019200000BF80BD80B500AF0A2002F05FF900BFA4
:1019300080BD80B500AF0B2002F058F900BF80BD1C
:1019400080B500AF0C2002F051F900BF80BD80B51A
:1019500000AF0D2002F04AF900BF80BD80B500AF96
:101960000E2002F043F900BF80BD80B500AF0F200C
:1019700002F03CF900BF80BD80B500AF002002F04E
:101980004DF900BF80BD80B500AF002002F0E4FD3E
:1019900000BF80BD80B500AF012002F0DDFD00BFBB
:1019A00080BD80B500AF022002F0D6FD00BF80BD33
:1019B00080B500AF032002F0CFFD00BF80BD80B531
:1019C00000AF042002F0C8FD00BF80BD80B500AFAD
:1019D000052002F0C1FD00BF80BD80B400AFFEE76E
:1019E00080B400AFFEE780B400AFFEE780B400AF84
:1019F000FEE780B400AFFEE780B400AFFEE780B43E
:101A000000AFFEE780B400AFFEE780B400AFFEE7B2
:101A100080B400AFFEE780B400AFFEE780B400AF53
:101A2000FEE780B400AFFEE780B400AFFEE780B40D
:101A300000AFFEE780B400AFFEE780B400AFFEE782
:101A400080B400AFFEE780B400AFFEE780B400AF23
:101A5000FEE780B400AFFEE780B400AFFEE780B4DD
:101A600000AFFEE780B400AFFEE780B400AFFEE752
:101A700080B400AFFEE780B400AFFEE780B400AFF3
:101A8000FEE780B400AFFEE780B400AFFEE780B4AD
:101A900000AFFEE780B400AFFEE780B400AFFEE722
:101AA00080B400AFFEE780B400AFFEE780B400AFC3
:101AB000FEE780B400AFFEE780B400AFFEE780B47D
:101AC00000AFFEE780B400AFFEE780B400AFFEE7F2
:101AD00080B400AFFEE780B400AFFEE780B400AF93
:101AE000FEE780B400AFFEE780B400AFFEE780B44D
:101AF00000AFFEE780B400AFFEE780B400AFFEE7C2
:101B000080B400AFFEE780B400AFFEE780B400AF62
:101B1000FEE780B400AFFEE780B400AFFEE780B41C
:101B200000AFFEE780B400AFFEE780B400AFFEE791
:101B300080B400AFFEE780B400AFFEE780B400AF32
:101B4000FEE7000080B584B000AF7860114B1B68E1
:101B5000002B02D10F4B104A1A600E4B1B68FB6022
:101B60000C4B1A687B6813440C4A934207D905F062
:101B700043FF03460C221A604FF0FF3306E0054B8B
:101B80001A687B681344034A1360FB6818461037D1
:101B9000BD4680BDF40800200000FF1F00000020AB
:101BA00080B582B000AF7860034800F069F900BFEB
:101BB0000837BD4680BD00BF7008002098B500AF53
:101BC000094B0A4A1A600A4B0A4A1C1D13460FCBDE
:101BD00084E80F0000F0B9F80346054A1360064B8D
:101BE000034A1A6000BF98BD7008002078080020E2
:101BF0001C090020288800006808002080B586B0F5
:101C000002AF87ED010A38600223FB60FFF7D6FFC1
:101C1000164800F025F90346BB60154800F020F98E
:101C20000346BB60002300930023FA681149124861
:101C300000F062F80346BB600023104A01211048FF
:101C400000F09BF80346BB60D7ED017A9FED0D7A5B
:101C500067EE877AFCEEE77A17EE901A084800F0F4
:101C6000B3F800BF1037BD4680BD00BF700800202C
:101C700068080020B50E000078080020A11B0000B5
:101C8000F808002000007A4480B400AFFEE700BFEF
:101C900080B483B000AF78607B68013B032B0BD826
:101CA00001A252F823F000BFB91C0000B91C0000CB
:101CB000B91C0000B91C000000BFFEE7704700BF60
:101CC000704700BF0020002104460D46084803F07D
:101CD00061FD05F097FE2046294600F0B1F9054860
:101CE000002100F069FA00F0BFF903F059FD00008F
:101CF0004D7A00002888000080B586B000AFF860FB
:101D0000B9607A603B60FB68BA685A60FB687A68C1
:101D10009A60FB680122DA603A68FB681A61FB6826
:101D20000433396A184600F047FA0246FB681A6025
:101D3000FB681B68002B14BF01230023DBB27B610F
:101D40007B6918461837BD4680BD80B500AF00F0EE
:101D500085FA0346184680BD80B584B000AF786030
:101D600000F07CFA0346FB60F86800F083FA034653
:101D7000BB6000BF1037BD4680BD80B586B000AFE8
:101D8000F8607A603B600B46FB72FB6803F10C0263
:101D9000FB689A60FB687A685A60FB680433F97ADA
:101DA0003A68184600F070FB0246FB681A60FB6850
:101DB0001B68002B14BF01230023DBB27B617B690E
:101DC00018461837BD4680BD80B584B000AF786036
:101DD00039607B681B683968184600F089FB034648
:101DE000FB60FB6818461037BD4680BD84B080B5E7
:101DF00082B000AF07F1100C8CE80F003B69796AE4
:101E0000184600F04BFC03467B607B681846083799
:101E1000BD46BDE8804004B0704784B080B500AFD7
:101E200007F1080C8CE80F00BB68F969184600F050
:101E300055FC03461846BD46BDE8804004B07047D7
:101E400080B582B000AF786039607B684FF0FF32B8
:101E50003968184600F050FC78680837BD4680BDE8
:101E600080B485B000AF78607B6801225A6001239E
:101E7000FB60FB6818461437BD465DF8047B70476D
:101E800080B584B002AF78607B681B687A6852685E
:101E900001921A6900920FCBFFF7A8FF034618467C
:101EA0000837BD4680BD80B584B002AF7860396028
:101EB0003B681B683A68526801921A6900920FCB1E
:101EC000FFF7ABFF3B685A687B6811461846FFF77F
:101ED000B7FF78680837BD4680BD000000B5DFF861
:101EE0000CC000DFDFF808C000DFFEE7592100006A
:101EF000712100002DE9F041344C237853B1344B6B
:101F00001B68FF229A70334A00200123107023704F
:101F1000BDE8F081304B3148196800F00BFD002816
:101F20004CD101F079FB2A4B21781B68FF229A7073
:101F30000029E8D12A4A1368002B44D0556845B1DE
:101F40002A78002A38D1191D890089B2284600F064
:101F5000B5FD244B244A1E68156096B35D68EA1CE3
:101F6000062A2ED8DF688FB9291D30463B463A46EF
:101F700001F010FA054620B31C4B1D4A681E53F8A9
:101F80002050AB6A5A631B4B1D60BCE739461348AF
:101F900000F0DEFC8046A0B1291D41EA0721304651
:101FA0000023424601F0F6F905460028E4D14146F7
:101FB0000A4800F0F1FCE6E70D46CAE78520BDE8D7
:101FC000F0810025DFE71D46C3E700BF843B00200A
:101FD000C83B0020853B002004880000E82B00203F
:101FE0001C8800000C880000DC370020AC37002083
:101FF000DD1E0000B837002038B50F4C207808B13E
:10200000002038BD0D4D2B6893F8241001F072F9B3
:102010002B68DA78FF2A03D19A6A203282F3098882
:102020006A682AB101F066FB01232370002038BDE5
:10203000C5E90023F6E700BF853B0020C83B002030
:1020400010B5EFF305845CB9EFF31484E40703D50E
:10205000DFF810C000DF10BDBDE81040FFF74ABF39
:10206000822010BDF51E000010B588B0EFF3058486
:102070001CBBEFF3148404F00304022C24D0032CC3
:1020800014D0012C16D008AC84F30988114C2478A4
:10209000E40715D4032484F31488BFF34F8FBFF3F0
:1020A0006F8FDFF834C000DF08B010BD094C247812
:1020B000E407F6D5FF2008B010BD822008B010BD9F
:1020C000022484F31488E8E7024C2478E407E8D477
:1020D000E0E700BFF4870000F91F000098B3F8B5EF
:1020E000066876B34768FB1C062B2AD8C2680446EC
:1020F0000D46BAB11146154800F02AFC064600B359
:102100006268E1682068043242EA01212B463246C7
:1021100001F040F9044660B931460C4800F03CFC3F
:102120002046F8BD0B463046391D01F033F9044610
:1021300038B1601E064B074A53F82000836A5A6381
:10214000F8BD0020F8BD0020704700BFE82B00203C
:10215000AC370020DD1E000008B501F0C3F818B14F
:102160000138024B53F8200008BD00BFAC370020F7
:10217000D0B1820718D138B50478BCB9C28C0346F7
:10218000C0785AB1DD6A01F069F9FF2810D04DB16D
:102190002946084800F000FC204638BD01F05EF9F1
:1021A000FF2805D0002038BD80207047802038BD32
:1021B000812038BDE82B0020F8B5EFF305848CB9F9
:1021C000EFF31484E40702D41F4C247864B1DFF8E1
:1021D00088C000DFF8BD0B463046391D01F0DAF843
:1021E000044640BB0020F8BD0028FBD00668002E46
:1021F000F8D04768FB1C062BF4D8C2680D4604468D
:10220000002AE8D01146114800F0A2FB064600283B
:10221000E8D06268E1682068043242EA01212B4676
:10222000324601F0B7F8044628B93146074800F0B5
:10223000B3FB2046F8BD601E054B064A53F820004C
:10224000836A5A63F8BD00BF853B0020E82B00205D
:10225000AC370020DD1E0000DD20000010B5EFF3DC
:1022600005841CB9DFF808C000DF10BD002010BDD8
:102270005921000010B5EFF305841CB9DFF808C040
:1022800000DF10BD822010BD71210000A0B10368E5
:102290009BB143688BB101290ED830B40A4C246835
:1022A0006CB11C795CB9012559711D711C60C3E9C1
:1022B000042030BC1846704700231846704700239E
:1022C000184630BC704700BFB8370020820727D1BE
:1022D00030B3002951D0F8B5314B1A68002312F100
:1022E000FF3643F1FF3704464FF47A70E0FB016795
:1022F00030463946FEF740FA2379012B12D0022BE3
:102300000CD1284D2A684AB1944238D0114602E0D7
:102310009C4228D019460B68002BF9D18120F8BDCA
:10232000802070471F4DE06002232A682371002A35
:102330002AD09668B04206D22CE09D688D420BD818
:1023400008462E461A461368811B002BF5D12360E0
:10235000A16014600020F8BDA16099682360081A8C
:1023600006449E60F5E723680B602368002BE0D0ED
:102370009968A66831449960D9E786207047236838
:102380002B600BB11A46F3E70023A06023602C609A
:102390000020F8BDA06093682260181A9060F6E7EC
:1023A000F8870000883B0020830704D130B1D0E9D2
:1023B00004131868704700200146704701467047B3
:1023C0002DE9F8432E4F3C68002C37D0A368013B21
:1023D000A360002B32D1DFF8AC902668D9F800500A
:1023E0003E6025B195F80080B8F1010F17D00420A8
:1023F000FFF74EFCA2609A682360551B65449D6000
:102400000460DEB1B368CBB9D9F8005033683B60E3
:10241000002DECD02A78012AE9D134461E46284600
:1024200000F0ACFB0028E2D02846214600F0AAFBD1
:102430006379012B04D084F80480E2E7BDE8F883D7
:102440003868E56890B1D0F808C0654506D211E05B
:1024500099689142CED815468C4618460368A5EB7C
:102460000C02002BF4D12360A260C9E72060A560B4
:102470003C60C6E7A560836820605D1B8560F7E768
:10248000883B0020DC37002030B5EFF305840CBB1F
:10249000EFF31484E40702D4124C24782CB1DFF853
:1024A0004CC000DF0346184630BDC0B10368002BA6
:1024B000F9D04368002BF6D001290ED80A4D2D68BB
:1024C00045B11D794DB901241D605971C3E904203E
:1024D0001C71E8E70023184630BD2346E3E70346B6
:1024E000E1E700BF853B0020B83700208D220000C7
:1024F00010B5EFF305841CB9DFF808C000DF10BD8C
:10250000822010BDCD22000008B50B4DEFF30580F1
:102510004FF0FF310028F9D12868DFF820C000DF34
:102520001028F3D10846DFF818C000DF0446002861
:10253000ECD00846A047E9E7DC370020252700005B
:10254000A923000010B570B183070CD1037853B9EB
:102550000B0C1B043BB9034688B21C8BD97800F0E6
:1025600029FD204610BD4FF00044204610BD00BF9D
:1025700010B570B183070CD1037853B90B0C1B0451
:102580003BB9034688B21C8BD97800F03FFD20464A
:1025900010BD4FF00044204610BD00BF2DE9F041B2
:1025A0004FEA10484FEA0848B8F1000F48D10D46ED
:1025B000044640B380B291B14A1C5DD0344B99427D
:1025C00063D8344B1A684FF6FE714FF47A73561E77
:1025D00003FB0563B3FBF2F38B4200D899B20122EF
:1025E00000F0C6FC022844D0002D14BF4024002473
:1025F000002001460E460F464546204629463246F3
:102600003B46BDE8F08159B34B1C38D0204B994272
:1026100038D8204B1A684FF6FE714FF47A73501E6B
:1026200003FB0505B5FBF2F58D4200D8A9B20022E7
:102630004FF6FF7000F09CFC02280BD04024D7E737
:10264000002586242E462F462046294632463B4604
:10265000BDE8F081104B1B680824B3F81A80C7E767
:1026600042464FF6FF7000F083FC0228F2D0444649
:10267000BEE7A0460824BBE74FF6FF71AFE74FF671
:10268000FF71D4E74FF6FE71D1E74FF6FE71A6E772
:1026900000093D00F8870000C83B002070B5EFF34B
:1026A00005852DB9DFF830C000DF0446204670BD37
:1026B000044668B183070BD103784BB90B0C1B049C
:1026C00033B988B2E178248B00F0ACFC204670BDB1
:1026D0004FF00044204670BD4525000010B5EFF3D3
:1026E00005841CB9DFF80CC000DF10BD4FF00040BE
:1026F00010BD00007125000070B50446EFF305859C
:102700004DB908461146DFF818C000DFC4E90001E2
:10271000A260204670BD82230360204670BD000089
:102720009D250000F0B5034685B000283AD0027818
:10273000012A2AD10C4600293ED04A1C49D0264AFB
:1027400091422CD8254A11684FF47A75481E4FF6ED
:10275000FE7205FB0404B4FBF1F4944200D8A2B26B
:10276000184602A900F0B6F9012830D00020024630
:1027700003461020029904460D4616461F46204681
:10278000294632463B4605B0F0BD002580242E4642
:102790002F462046294632463B4605B0F0BD4FF64F
:1027A000FE72DDE705460646074680242046294698
:1027B00032463B4605B0F0BD0A4602A900F08AF950
:1027C0000128D3D10020024603462046D2E7402408
:1027D000F8E74FF6FF72C3E700093D00F8870000F5
:1027E000274B2DE9F047C58CD3F80090C66AAD0899
:1027F00008BFC9F38D0506EB8504630748BF043C99
:102800008046A4F140074FF080738A4644F8081CC4
:1028100044F8043C38463822002104F0B3FFD8F8CD
:102820001C3044F8203C19F0805F3B46C8F8287003
:10283000C8F830A01FD0112D1DD9103D6D08012DF5
:1028400012D06FF03702A2EBC50214444FF0CC3225
:1028500043F8042C43F8082DA342F9D1C5EB457584
:1028600007EBC50303F108073B1F9E423CBF4FF037
:10287000CC3347F8043C034B3360BDE8F08700BF1E
:10288000EC870000A52E5AE290F82520836A12B149
:1028900060331960704720331960704710B490F8A6
:1028A0002540836A2CB16033C3E900125DF8044B04
:1028B00070472033C3E900125DF8044B704700BF36
:1028C000084B1B68DA0107D5074B1B68DB0703D5EC
:1028D000064B1B68002B00DB7047054B01221A706A
:1028E000704700BFFCED00E0800E00E0000E00E04D
:1028F0008C3B002010B4094C2368002BFCD0036BE8
:10290000064A23601368002BFCD0C3785DF8044BA3
:1029100043EA01239BB21380704700BF7C0000E0B4
:10292000034A1368002BFCD0C0B21070704700BF80
:102930007C0000E0034648B1072907D9043900228A
:10294000084418605A5010465A607047012070477A
:10295000F0B1F1B10B3170B4036821F0030603E06C
:102960001968184649B10B46446802199D1AAE42CF
:10297000F6D82CB9466000F10801084670BC7047D3
:1029800002F10801C2E90036026070BC08467047D7
:1029900001460846704700BFC0B1B9B10839884246
:1029A0001DD010B404689CB1A1421CD0236823B987
:1029B0000EE01A681C465AB113469942F9D15CB12F
:1029C0001B68236000205DF8044B704701207047AE
:1029D00001205DF8044B704700205860F3E7034680
:1029E00000205860704723460446E9E7002A30B4C7
:1029F0001FDB033222F003020C24BAB113198B42FD
:102A000014D8044401448D1AA3189D42C0E9004122
:102A1000826015D3002100E0034698188542635078
:102A20001144F9D20020186030BC7047012030BC3E
:102A3000704722F00042073222F007021024DCE740
:102A40002346EFE7EFF3108372B6026803F0010349
:102A50000AB11168016003B962B61046704700BF41
:102A600081420DD343688B420AD9EFF3108372B6CB
:102A700002680A60016013F0010003D162B670477A
:102A80000120704700207047426882B110B500F005
:102A90001DF9044600F032FA012161702046FFF76B
:102AA000F3FE21460448BDE8104000F0E7B8428834
:102AB00001324280704700BF943B00201039002350
:102AC00089080122C18102808370C0E901338381BA
:102AD000704700BF38B5838904467BB915465AB1A3
:102AE000254A4368116823B300F0C8F82846082136
:102AF00000F0D0FB012038BD012038BD4389C289D8
:102B0000181D01339BB254F8200008609A4263817B
:102B100004BF00236381636813B16378022B0ED076
:102B2000EFF3108372B6A389013BA38162B6002044
:102B300038BD01224160C1E901304270D6E720462C
:102B400000F0C4F800210546FFF79EFE2389E289C4
:102B5000E869191D01339BB29A4244F82100238190
:102B600004BF00232381284600F0C8F9284600F05E
:102B700055FB002038BD00BFC83B0020C2898089BA
:102B8000101A704708B500F0D1F9BDE8084000F010
:102B900083BA00BF426870B503464AB14578022D3A
:102BA0000E4604463DD0032D1AD0012D30D070BD05
:102BB0008489C08984425AD21889043043F820108D
:102BC000EFF3108172B699890131998162B6198942
:102BD000D889013189B288421981E8D11A8170BD42
:102BE0000846FFF72FFF05460028E0D0204600F0FA
:102BF0006DF829460446FFF747FE0123637020461F
:102C000000F07CF921461C48BDE8704000F036B861
:102C100000F05CF8044632461021FFF73FFE657075
:102C2000EDE700F053F800210546FFF72DFE23895C
:102C3000EA69043344F82320EFF3108372B6A389C2
:102C40000133A38162B62389E28901339BB29A42A0
:102C5000238104BF00232381012328466B7000F0E9
:102C60004DF929460448BDE8704000F007B803203C
:102C7000BDE87040FFF70CB8943B002030B40578F5
:102C800042688C78013DEDB2EAB19378A34204D258
:102C90000FE0987884420ED81A465368002BF8D17A
:102CA0000023022D4B60516000D900228A6030BCA5
:102CB000704713460246022D4B605160F5D899606B
:102CC00030BC8A6070470246EAE700BF027843687A
:102CD000013A59684160022A07D811B10022886080
:102CE0005A6000229A601846704700225A601846BF
:102CF000704700BF034B5A684260002258608260F0
:102D0000704700BF943B0020816830B400292FD069
:102D10000B780A461BB992681378002BFBD04468E5
:102D20004C604568546805B1A960013B8578D9B20B
:102D3000002C3AD0A378AB4204D20FE09A789542A7
:102D40000ED81C466368002BF8D10023022943608B
:102D500060600AD90023836030BC70472346144664
:102D6000022943606060F5D89860846030BC704789
:102D70004378012BF0D10E494C68A0420DD04CB1E4
:102D8000626890420FD02AB15368984206D01A4622
:102D9000002AF9D10B78064AC7E70A46456855600C
:102DA0000B78034AC1E72246F8E71446CDE700BF97
:102DB000943B002070B4164EF36823B3B58AA94241
:102DC0002A4602D821E0A4B123469D8ADC682A4421
:102DD0009142F8D895B2C460D860C268036102B16C
:102DE00010616A1A82829A8A551B2944998270BCA2
:102DF0007047891A89B20022C26070BCD860036132
:102E00009982828270473346F5E71C463346E2E7F3
:102E1000AC3B00202DE9F0432A4DEB68002B4AD053
:102E2000A88A013880B2A882002844D1264F274AB8
:102E30003E78B2F800E0013EF6B2B8464FF0010C21
:102E40009A6832B15968516011B159688A60586006
:102E500098607A689C78002A2FD09178A14205D298
:102E60001EE091F802904C451CD80A465168002992
:102E7000F7D1022E5860536000D900225C789A6026
:102E8000042C998A02D1DA8A72449A82DA6883F829
:102E900001C06AB11561C3E9030081B91346CFE7E8
:102EA00011464246022E59605360E6D88B60E5E732
:102EB000A982EA601A61BDE8F0834246D9E7A98297
:102EC000EA60F8E7AC3B0020943B0020903B0020F8
:102ED00083682BB142685A60426842B19360704780
:102EE000054B5A68904203D01346002AF9D1704727
:102EF00042685A60704700BF943B002003699BB151
:102F0000C268DA6062B1998A10B4848A21449982D5
:102F1000002413610023C46003615DF8044B704713
:102F20009A82002303617047704700BF30B40F4B93
:102F3000DC78EFF3108272B69A78944208D9551C67
:102F40001A789D70551CAC4214BFEDB200251D705F
:102F500062B6DC78944205D903EBC203C3E90101F0
:102F600030BC7047022030BCFEF792BE28370020EC
:102F700038B50F4B1C68238B00EA030552B1A842F9
:102F80000BD006250A4660832946104600F082F9D8
:102F9000012038BD35B90525F4E723EA0000208378
:102FA000022038BD23EA000020836583022038BD5B
:102FB000C83B00200139144B10B553F8214044B1EF
:102FC000218B6378628B0843062B208318D0052B56
:102FD00000D010BD10EA0203FBD0638320EA020098
:102FE00020832046FFF78AFF012320466370628B0F
:102FF0000821FFF753FC2046BDE8104000F00EB951
:1030000032EA0003EAD010BDAC3700200139044B8E
:1030100053F821301BB11A8B22EA00021A83704741
:10302000AC37002008B50139064B53F821303BB1CD
:1030300001461846FFF77AFFBDE8084000F02CB8BB
:1030400008BD00BFAC37002038B5038B4278458BF4
:103050001943062A018319D0052A00D038BD11EA88
:103060000503FBD0438321EA050104460183FFF7F2
:1030700045FF012320466370628B0821FFF70EFC99
:1030800021460448BDE83840FFF7F8BD35EA0103A2
:10309000E9D038BD943B0020054B1A7822B9054B86
:1030A0004FF080521A60704701229A70704700BF3B
:1030B0004808002004ED00E038B5234B234C186885
:1030C00001234370FFF716FE6378A2781D46C2B154
:1030D00004EBC5014B681A78184662B3012A2ED05A
:1030E000FFF7D2FCE3780135AB4212D0EFF3108347
:1030F00072B6A378013BA37062B6A378002BE7D128
:10310000EBB213486370FFF7E1FDBDE8384000F013
:1031100073B8EFF3108372B6A378013BA37062B665
:10312000A578002DECD0002504EBC5014B681A787A
:103130001846002AD2D10989FFF786FFD2E78968AD
:10314000FFF728FDCEE700BFC83B0020283700204E
:10315000943B00200A4A0B490B480C4B10B41468EE
:103160000C600B4A002407210460196013685DF8A5
:10317000044B43F07F434FF0FF301360704700BFB4
:10318000F087000014E000E018E000E010E000E04C
:1031900020ED00E0704700BF08B50B4B1868012315
:1031A0004370FFF7A7FDFEF78BFD084A1368013354
:1031B0001360FFF72FFEFFF703F90548FFF786FDC1
:1031C000BDE8084000F018B8C83B0020903B002044
:1031D000943B0020064B1B68D3E90A329A4203D87D
:1031E0001268044B9A4202D00120FEF751BD70478D
:1031F000C83B0020A52E5AE2064A074B12785860B9
:10320000022141702AB11B68984202D0C078FFF7B2
:1032100087BB70478C3B0020C83B002038B500B30B
:10322000194D82780446286883789A4211D9FFF7AD
:1032300061FD164A2B6812780120022158706C60DB
:103240006170DAB1A34219D0E078BDE83840FFF7E9
:1032500067BB0123637021460D48BDE83840FFF786
:103260000DBD0B48FFF732FD084A074B1278586036
:103270000221417012B11B68984200D138BDC0785C
:10328000BDE83840FFF74CBBC83B00208C3B00201A
:10329000943B002000B9704738B54FF6FF720E4DD1
:1032A00090420C462B6804D001461846FFF782FD79
:1032B0002B685C700948FFF709FD094B68601B78B3
:1032C000022242703BB12B68984204D0C078BDE81E
:1032D0003840FFF725BB38BDC83B0020943B002099
:1032E0008C3B0020024B186800B1C078704700BFCB
:1032F000C83B002038B5C0B1214B1B88834237D36F
:103300000138204B53F82040002C31D01E4DA170C5
:103310002B6884F824109C420CD02046FFF7F4FC64
:103320006378012B26D0002038BD174D2B6899708B
:1033300083F82410154C626892788A42F3D91946B2
:103340002046FFF79BFC2B6801225A702046FFF7AE
:10335000BDFC0F4B68601B7802224270002BE2D04C
:103360002B689842DFD0C078FFF7DAFA002038BD2A
:10337000FF2038BD0548FFF7A9FCFFF74FFFD2E754
:10338000E8870000AC370020C83B0020943B0020B9
:103390008C3B00202DE9F04111F0FF0F0D46064651
:1033A000294890461F4608BF0135FFF74BFB0446EE
:1033B00060B30023C5F30F214FF48072EDB2C0F863
:1033C0002C80C761C184857080F82450028003621C
:1033D000C0E90133C0E90333C0E9053380F8253083
:1033E000C1B120463146FFF7FBF9184B188868B188
:1033F000174E33682BB33246012303E052F8041F03
:1034000069B12B46984203F10105F7D10025284602
:10341000BDE8F0810F48FFF715FBE062E1E7E9B294
:103420000D4A46F823401378E1702BB92046FFF788
:10343000F5FE2846BDE8F08101212046FFF75AFA43
:10344000F4E701210D46EBE730090020E887000092
:10345000AC370020D80900208C3B00202DE9F84F24
:10346000664E346800285ED0E37883425BD0644BBC
:103470001B888342C0F0BF80471EDFF898B15BF81D
:103480002790B9F1000F00F0B6804846FFF720FD05
:103490004846FFF733FDD9F8204044B36368DFF8AE
:1034A0006CA14FF001082046DBB1FFF70FFC0021B3
:1034B0000546FFF7E9F92846FFF720FD85F801806A
:1034C00029465046FFF7DAFBE2682B6AE360A56005
:1034D000A4F802802C6252B1144620466368002B87
:1034E000E3D1E2686380C4E90233002AF4D1454D98
:1034F000D9F82C10444800244BF82740FFF7B0FAC5
:103500002B78C9F82C40002B70D1404C40484946DC
:10351000FFF7A6FA636831689A788B789A425ED88A
:103520000020BDE8F88F00236370FCF7D4FFA06291
:10353000FFF750FE33681C6A34B36368DFF8CC8051
:1035400001272046CBB1FFF7C1FB00210546FFF75D
:103550009BF92846FFF7D2FC6F7029464046FFF7DB
:103560008DFBE2682B6AE360A56067802C6252B134
:10357000144620466368002BE5D1E2686380C4E905
:103580000233002AF4D13368DA78D96A21481D4D14
:10359000531E002440F823401B48FFF761FA3368AC
:1035A0002A78DC62AAB91A481946FFF759FA0024AA
:1035B00016483460FFF78AFB2B7870600222427055
:1035C000002BADD033689842AAD0C078FFF7A8F995
:1035D000A6E718462146FFF78DF93368E3E7012394
:1035E00020464B70FFF74AFB2046E3E7214648465A
:1035F000FFF780F989E7FF20BDE8F88FC83B00207E
:10360000E88700008C3B0020D8090020943B002074
:1036100030090020AC37002038B5FFF751F9244BB2
:103620001A8822B192000021224804F0ABF8224B04
:1036300022481988224D3422FFF7D8F9214A224B1B
:1036400012881968214842F00042FFF7CFF9204B59
:10365000204A186811880822FFF7C8F91E4B1B483A
:103660000024C5E90034C5E90244C5E90444AC615D
:10367000C5E90844FFF7E6F91849E8622846FFF76C
:10368000AFF8174B174A1D601748184912780223E4
:103690006B70174BC270042204800A701A704C6061
:1036A000C3E903449C82BDE83840FEF707BB00BF76
:1036B000E8870000AC370020FC87000030090020BC
:1036C000D03B0020EC87000000880000D8090020D3
:1036D000E037002024880000000100FF891C000062
:1036E000C83B00200888000028370020943B0020B9
:1036F000AC3B002008B51E4B1A6842F47F021A60EA
:103700001B681B0203F07F43DB43B3FA83F3194AC0
:10371000194812680168DBB2C3F10803C2F3022240
:10372000934298BF531C6FF0807202FA03F303F0C8
:103730007F4321F07F4213430360FFF70BFD0F4BE4
:103740000028186012DB00F1604000F56440FF22A1
:1037500002701A6853099B0003F1604303F561434B
:1037600002F01F02012101FA02F21A6008BD00BF37
:1037700020ED00E00CED00E01CED00E0C43B00207B
:1037800073B50E4B0E484FF085440125C3F8005722
:10379000002640F201132660ADF80030009900F0D9
:1037A00089FB4FF48073ADF804300199044800F0B0
:1037B00063FBA661256002B070BD00BF00009042AF
:1037C0000000044010B5044628B90A4B0A4A0B48C9
:1037D000CC2101F0BFFF4378FF2B09D000F0FEF9A8
:1037E00063780133DBB2637000F0EEF9002010BDA6
:1037F0000120FCE7388800007D8800003D8800003B
:103800000A4B00229A6403F140029A6303F13002EA
:103810009A6203F120029A6103F110029A60044A4D
:103820001360044BC3E90233704700BFE837002040
:10383000E43700203838002008B5FFF7E1FFFFF734
:103840009FFF002008BD00000A4A137803F03F03E1
:1038500043F0800313709379C3F38103022BFAD1F1
:10386000054B002283F8B82093F8D420002AFBD11E
:10387000704700BF004006400000C84270B50446D3
:1038800088B00D46417A4248059100F071FC2388CA
:103890000599042B31D1802801D1FFF7D5FF07AB63
:1038A000CDE9005322796379E179394800F09EFC33
:1038B000384B012283F82420364DA3782B71E3780E
:1038C0002B70A3786BB12379012B03D16179304838
:1038D00000F086FB237985F8203095F8C0209342CC
:1038E000FBD1A07A00284DD02948E37A627B217B66
:1038F00000F0C6FB002008B070BD082B1BD180284B
:1039000001D1FFF7A1FF234B214E002283F8242091
:1039100007ABCDE90153E3790093A279237A3046CE
:1039200000F0C2FC337803F03F033370B37913F037
:103930000C0FFBD1C0E7802B28D1802807AE0ED01A
:10394000144B1348002283F82420E3790093CDE937
:103950000156237AA279059100F0A6FC05990C4D39
:10396000637B00930196237B0022284600F014FD20
:103970002B7803F03F032B70AB79C3F38103032B48
:10398000FAD199E7034B83F89800B4E70120B2E736
:10399000004006400000C842064B0A7853F8203029
:1039A00003F1424303F580135B011A774A781A75D5
:1039B000704700BF6089000010B50C4630B1194B4C
:1039C000194A1A4840F24F2101F0C4FE8B7A012BAC
:1039D0000DD10B794A79DB0043EA8203CA798979F0
:1039E000134343EA4101124B186800F041FD04F112
:1039F0000B010020FFF7D0FFA37A227A617A0D48ED
:103A000000F08BFB628940F201139A4204D10A4A0A
:103A100092F8C430002BFBD0084B22681A600020BB
:103A200010BD00BFFC8800004D890000A288000086
:103A300060890000004006400000C8425038002065
:103A400008B530B1124B134A13484FF4307101F0EE
:103A500081FE124B0122C3F8F427114B0A681A6049
:103A6000104A114B126813445B010A7A186840B976
:103A70003AB108795861487918618879D860C8796D
:103A800098601A604A7A82F001025A60002008BDEC
:103A90001A89000038890000A288000000009042C6
:103AA00054380020848B0000110010C2054B00F038
:103AB000E002134400F01F0003449B0001221A603F
:103AC000704700BF4001A41008B5054800F014FB82
:103AD000044B5B6C1B0F0133B0FBF3F008BD00BF60
:103AE000004006400080044037B5044628B91D4B0D
:103AF0001D4A1E48722101F02DFE1D4D0423009326
:103B0000012202232846002100F0B9FC1949204671
:103B1000FFF7B4FE637D0093237DE27CA17C284601
:103B200000F0ADFC1449237C4A681B0422F44032A7
:103B300003F4403313434B60637C2A689B0422F4F4
:103B4000402203F4402313432B6004F10E010020B4
:103B5000FFF722FFFFF7B8FF084B1860002003B003
:103B600030BD00BF64890000148A00007389000022
:103B700000700440813B0000008004408801002068
:103B800008B5FFF7A1FF40F6B833B0FBF3F00138FA
:103B900000D208BD00BFFAE7042808B506D9064BD5
:103BA000064A074840F2B12101F0D4FD054B185CEC
:103BB000BDE80840FFF77ABFC0890000FA8900001D
:103BC000738900002F8A0000034A13681BB1013B70
:103BD000136003B962B670474838002072B6024AD3
:103BE000136801331360704748380020094B1B6885
:103BF00053F8203063B10109074A52F8212000F040
:103C00000F001077D0775A6812B1197B9868104767
:103C1000704700BF4C380020348A00002DE9F74F70
:103C2000DFF87C80DFF87C9058F82040D4F82CB086
:103C3000060100274FF0020ABBF1000F01D0102F40
:103C400009D104F1424404F5801464010023636146
:103C500003B0BDE8F08F1BF0010F1DD0FDB2BB1902
:103C6000002229462046019300F0E4FCD9F8002008
:103C7000019B52F823307BB13544C5F3031205F0A4
:103C80000F0558F822201577D5775A6883F80CA0CD
:103C900012B1197B986890474FEA5B0B0137CBE76D
:103CA000348A00004C38002008B5034A034B04480E
:103CB000FF2101F04FFD00BF488B0000388A000053
:103CC000428A00002DE9F84304682F4BC4F307280B
:103CD000054653F828902D4B404653F82860FFF7CF
:103CE0005BFF14F0E002E7B201D0FFF7DDFF56F80A
:103CF000273023F0807323F4E06343F4807346F8A5
:103D00002730394606EB8704484600F099FC04F159
:103D1000424303F580135B012A795A606A791A607D
:103D2000AA791A61EB79D6F8C020BB401343C6F8D4
:103D3000C030297A56F827200B0422F0877203F44A
:103D4000702322F48032134346F82730D1B1104B50
:103D500013F90830002B15D005DA0E4B0E4A5D2101
:103D60000E4801F0F7FC552B03DD0D4B0A4A5E218E
:103D7000F6E75909012203F01F0302FA03F3094A87
:103D800042F82130BDE8F883888C00009C8C00004C
:103D9000B08C0000798A0000368B0000888A000011
:103DA000CB8A000000E100E02DE9F04107681A4BE2
:103DB0000546C7F30720FEB253F82080174B53F88F
:103DC0002040FFF7E9FE17F0E00F01D0FFF76CFF8E
:103DD00054F8263023F0807323F4E06343F48073B7
:103DE00044F8263004EB860404F1424401223146B3
:103DF000404604F5801400F023FC64016A683146F3
:103E0000404600F037FC2B7AA3606B7AA361AB7A53
:103E10006361BDE8F08100BF888C00009C8C0000CD
:103E200010B4054BC0F307240A46C1B253F824006E
:103E30005DF8044B00F01EBC888C000008B5C0F390
:103E40000722094B10F0E00F53F82220C3B206D02E
:103E5000064B074A07484FF49B7101F07BFC106941
:103E6000D84000F0010008BD888C0000F68A0000F0
:103E70005C8B0000FF8A000082B001919DF8043045
:103E80009DF8062001685B00D20002F0080203F0F2
:103E9000020313439DF8052043EA82039DF807209F
:103EA000120102F0300221F0BE0113430B43036004
:103EB00002B070470B46C1F301225B0BC9B242EA64
:103EC000810203F0780382B01A43426002B0704767
:103ED000012905D0022905D031B9044B1868704773
:103EE000034BFBE703487047002070475038002021
:103EF00054380020006CDC02017B01F00301FFF765
:103F0000E7BF21FA02F07BB19DF80030012B0BD006
:103F1000062A06D003D9072A07D000207047400997
:103F200070471423B0FBF3F070470C23FAE700004E
:103F300037B500F1424303F580135B0104461B7A59
:103F40008BB9FFF7D9FF22786378257B05F003054D
:103F500001460095C3F30113C2F3C2022046FFF7E6
:103F6000D0FF03B030BD014B1868FAE79001002084
:103F700010B522B1B1F5004F08D900200CE0A1F531
:103F8000F440123841F68564A04206D802EB4303A0
:103F9000034A32F81300484310BD1046FCE700BF47
:103FA000728B000010B50C4B03445B0104461B7D73
:103FB0007BB9FFF7BDFF014658B1084B23445B01B5
:103FC00020461A7FE378BDE81040C3F34113FFF7A2
:103FD000CFBF002010BD00BF060010C2030010C2FA
:103FE000037AC3F342038B4210B50CD0104B034449
:103FF0005B0149001A7801F00E012AB9037A03F037
:10400000F0031943017210BD00221A70094A0244DC
:1040100052011478002CFCD1047A04F0F0042143FE
:104020000172012119701378012BFCD1EBE700BF5D
:10403000010010C2060010C208B50F4B03445B011B
:1040400002461B7D33B90D4B03445B01197E01F021
:10405000FF0371B11046FFF74FFF137903F01F0301
:104060000133B0FBF3F0537903F01F0318335843C7
:1040700008BD1846FCE700BF060010C2040010C2CD
:1040800010B5447902F01F0204F0E00414434471B7
:10409000027901F01F0102F080020A4342EA431252
:1040A00042F04002D2B20271400100F18440D830A7
:1040B0000378002BFCD010BD00F1424303F58013C0
:1040C0005B011A7902F0FF0372B1084B03445B01F4
:1040D0001B7813B9064B18687047064A037A1068B4
:1040E000C3F34203D840704718467047010010C21E
:1040F000900100208C0100208379C3F38103022BFF
:1041000009D0032B03D0012B03D1FFF7D5BFFFF755
:1041100093BFFFF747BFFFF7EFBE10B5D2009B007C
:10412000447802F0080203F0040309011A4301F085
:1041300030010A4304F0C3042243427010BD000062
:10414000037B01F0030203F0FC031343037359B92B
:10415000064B03445B011B7A33B1400100F18440FC
:10416000C4300378002BFCD0704700BF010010C2A0
:1041700010B503461C4C13F8061F03F142430444D8
:1041800003F580135B0164011A7C20791B7DC1F368
:1041900081010229D2B2C0B2DBB211D0032916D0FC
:1041A000012905D0E3B9002A0CBF0820012010BD69
:1041B000012A15D1A3B900280CBF02200420F6E77C
:1041C00072B958B9002B14BF40201020EFE73AB95C
:1041D000002B0CBF4FF400708020E8E72020E6E7BA
:1041E0004FF40070E3E700BF010010C22DE9F8436F
:1041F000DDF824900446884615461F46FFF7B8FFB1
:1042000010F01D0F47D0254B23445B0100221A7785
:104210002378224603F03B0343F0440302F8063BB5
:1042200002F1424202F58012560106F110021378A3
:10423000012BFCD1012D03D139462046FFF7D0FEDA
:10424000637805F0010203F0FC03134363703378D5
:104250009D42FCD1E2784FEA481303F0600302F07C
:104260009F021343E370E378C3F341134345FAD14C
:10427000A379C3F38103012BFAD1089B984735B981
:10428000074B1B68C9F800300020BDE8F883054BD8
:104290001B68FB40F6E70120F7E700BF030010C2F0
:1042A000900100208C0100202DE9F04704469DF884
:1042B0002060894615461F46FFF75AFF10F07B0F16
:1042C00082465FD049462046FFF702FE804600281E
:1042D0005AD02E4B23445B0100221A762C4B2344E8
:1042E0005B0103F11400027802F0FF01002AFAD109
:1042F000284A22445201BAF1080F117106D0217BDD
:1043000009F0030001F0FC01014321732178ED0065
:1043100005F0380501F003010D4345F080052570D7
:10432000197C0029FCD1BAF1080F06D1217B09F0D4
:10433000030001F0FC0101432173B9F1000F04D126
:10434000127A12B11A79002AFCD0E178720102F0D7
:10435000600242EAC71301F01F021343DBB2E370AD
:10436000E378C3F34113B342FAD1A379C3F38103D2
:10437000022BFAD1099B98470A9B0020C3F80080C2
:10438000BDE8F0870120FBE72120F9E7050010C216
:10439000060010C2010010C2F7B5044601911D4687
:1043A000FFF7E6FE10F0B00F52D001992046FFF75C
:1043B0008FFD064600284DD0284B6A1CB0FBF2F258
:1043C000A2F5F412A2F590629A4245D8244B0199C5
:1043D00023445B0100221A71237803F03F0343F06A
:1043E00080032370A379C3F38103022BFAD1204603
:1043F000FFF7A6FE1B4B1C49234421445B014901E6
:1044000000221A760A76194A2244520102F1140750
:104410003B78002BFCD123799DF8200003F0E003CA
:1044200005F01F051D432571637900F01F0003F09F
:10443000E0030343637101230B763B78002BFCD030
:10444000137E002BFCD0099B00201E6003B0F0BD42
:104450000120FBE72120F9E74120F7E780841E00D7
:10446000010010C2040010C2050010C2060010C2F4
:10447000037803F0F0031943C9B20170704710B517
:104480009DF808401B05240403F4700304F4702411
:104490002343120643EA017102F0706200F5805076
:1044A0000A43426410BD0000052838B506D90D4BFB
:1044B0000D4A0E4840F2C32101F04CF90C4B53F861
:1044C00020400C4B53F820200B4B13445B0100257C
:1044D0001D77A37D1BB104F11800FFF773F9257553
:1044E00038BD00BF888B0000078C0000A78B000040
:1044F00058380020B88C0000030010C2052838B5D9
:1045000006D90F4B0F4A104840F20A3101F022F948
:104510000E4B53F820400E4B53F820000D4B034434
:104520005B0100251D752A4640F2032100F0C1F809
:10453000E37D1BB104F12400FFF744F9657538BD34
:10454000888B0000EA8B0000A78B00005838002001
:10455000B88C0000030010C2F8B5324B53F820406D
:10456000314B53F82050237D074613B9637D002B50
:1045700057D02E4E2E447601337D2BB12C4B2B443D
:104580005B011B7D002B34D1337FF3B1284B2B44CF
:104590005B011B7FCBB1E368BBB12B7D2678F61A9C
:1045A000F6B296B163682846197800F07BF8A36BE1
:1045B000002B2FD0214638469847E368013EF6B2DB
:1045C000002BEED13846FFF76FFF0321284600F09D
:1045D000A3F830B328460321BDE8F84000F0B1B895
:1045E000A168284600F061F8236B33B121463846B4
:1045F0009847AB7D002BF3D1C6E7A3680133A360D6
:104600002369013B23612369002BF2D13846FFF770
:1046100075FFB9E7636801336360E368013BE360FA
:10462000CBE7F8BD58380020B88C0000030010C25A
:10463000040010C20AB1C17670478176704700004D
:104640001F2908B505D9084B084A09482E2101F051
:1046500081F8012303FA01F19A4243690CBF0B432D
:104660008B43436108BD00BFF68A0000758C0000D3
:10467000218C00001F2908B505D9074B074A0848B7
:10468000422101F067F8012303FA01F10AB1416008
:1046900008BD8160FCE700BFF68A00005D8C000069
:1046A000218C00000379C17170470379C3790B70C5
:1046B000704710B50123CCB2090AA340032908D8DA
:1046C000DFE801F0020C1620DBB21AB102781343C6
:1046D000037010BD027822EA0303F9E7DBB21AB1D6
:1046E000C2781343C370F4E7C27822EA0303F9E700
:1046F000DBB21AB1827913438371EAE7827922EA45
:104700000303F9E7DBB21AB1427C13434374E0E7D9
:10471000427C22EA0303F9E70B0A032B0FD8DFE8F8
:1047200003F002080A0C0079C9B2084100F0010048
:1047300070474079F8E7007BF6E7807CF4E70020DB
:10474000704740F2071399422FD0B1F5847F10D201
:10475000B1F5807F31D007D8042923D9481F02281A
:104760008CBF0020012012E0B1F5837F20D0002013
:10477000704740F2013399421CD00FD8B1F5027F47
:1047800007D240F20523994294BF00200120800007
:104790007047B1F5407FEAD101230CE0A1F2063069
:1047A0000128DDE70379C379E1E780234371DEE780
:1047B0004023FBE702238374D9E7042070470000FD
:1047C0002DE9F047089E0D4604460F46002B4AD1BE
:1047D0008A42944665D9B2FA82F343B102FA03FCE5
:1047E000C3F120029F4020FA02F217439C404FEA97
:1047F0001C4E1FFA8CF5B7FBFEF1220C0EFB117755
:1048000042EA074201FB05F090420AD91CEB020282
:1048100001F1FF3780F01C81904240F2198102398A
:104820006244121AA4B2B2FBFEF00EFB102244EA5C
:10483000024400FB05F5A5420AD91CEB040400F173
:10484000FF3280F00781A54240F2048164440238BF
:1048500040EA0140641B00211EB1DC400023C6E990
:104860000043BDE8F0878B4208D9002E00F0ED80B0
:104870000021C6E900050846BDE8F087B3FA83F1D8
:10488000002949D1AB4202D3824200F2F880841A57
:1048900065EB030201201746002EE2D0C6E900476F
:1048A000DFE702B9FFDEB2FA82F3002B40F090801E
:1048B0008A1A4FEA1C471FFA8CFE0121B2FBF7F55A
:1048C00007FB1520220C42EA00420EFB05F0904245
:1048D00008D91CEB020205F1FF3802D2904200F227
:1048E000CB804546121AA4B2B2FBF7F007FB1022A8
:1048F00044EA02440EFB00FEA64508D91CEB040462
:1049000000F1FF3202D2A64500F2BB801046A4EBB4
:104910000E0440EA05409FE7C1F120078B4022FAD0
:1049200007FC4CEA030C05FA01F420FA07F3FD40FA
:104930004FEA1C492343B5FBF9F81FFA8CFE09FB2B
:1049400018551C0C44EA054408FB0EF5A54202FA72
:1049500001F200FA01F00BD91CEB040408F1FF3A54
:1049600080F08880A54240F28580A8F10208644466
:10497000641B9DB2B4FBF9F309FB134445EA0444FC
:1049800003FB0EFEA64508D91CEB040403F1FF351A
:104990006CD2A6456AD9023B644443EA0843A3FBB0
:1049A0000295A4EB0E04AC42C846AE4656D353D093
:1049B00056B1B0EB080264EB0E0404FA07F7CA40E4
:1049C000CC401743C6E9007418460021BDE8F087C3
:1049D000C3F1200102FA03FC20FA01F225FA01F1E9
:1049E0009D402A434FEA1C471FFA8CFEB1FBF7F0AB
:1049F00007FB1015110C41EA054100FB0EF58D4235
:104A000004FA03F408D91CEB010100F1FF382FD29E
:104A10008D422DD902386144491B92B2B1FBF7F5A2
:104A200007FB151142EA014205FB0EF1914208D93C
:104A30001CEB020205F1FF3816D2914214D9023D57
:104A40006244521A45EA004138E73146304608E7E9
:104A50003946E6E61046FBE64845A9D2B9EB02081E
:104A600065EB0C0E013BA3E74546EAE72B4694E7CE
:104A70004046D1E7D0467BE7023D624432E7084634
:104A80000AE76444023842E703685A004CBF43F027
:104A9000004323F000431844704700BF2DE9F8435A
:104AA00029B34F1E044615463E464FF0000808EB5A
:104AB000060101EBD171491004EBC1094846FFF72B
:104AC000E3FF0346C80008308F42204409D0AB42C0
:104AD00009D8FFF7D9FF0138A8420AD201F101082D
:104AE000E5E7AB4205D9884501D04E1EDFE74FF020
:104AF00000094846BDE8F883012807D0022807D0FE
:104B0000044B00280CBF184600207047024870472D
:104B100002487047B9510000C1510000C95100005E
:104B200030B5224B83B004468D1E43B301A92846FD
:104B3000AFF30080F0B101992A46FFF7AFFF0146BD
:104B4000C0B1FFF7A1FF4B68A064012B2BD0002B55
:104B500001F1040025DBFFF797FF002323650368BD
:104B6000E064002B12DBFFF78FFF03460020236178
:104B700003B030BD00230920236103B030BD0C4BCE
:104B80000C49C91AC91018460191D5E7C3F303604F
:104B9000FFF7B2FF031E0CBF09200020236103B002
:104BA00030BD0123DAE700230520E0E70000000024
:104BB000E48F0000849100000368DA0710B5044612
:104BC00006D49B0700F1480009D5FBF701FE2368D6
:104BD000590709D51A070ED5DB0613D510BDFBF70B
:104BE000EFFD23685907F5D404F1D000FBF7F8FD79
:104BF00023681A07F0D404F5A870FBF7F9FD2368C1
:104C0000DB06EBD404F5E870BDE81040FBF734BEDA
:104C10000346006800B11844704700BF704700BFEA
:104C200070B504460E46316C2046FFF779FF054605
:104C300088B9326C62612369324621460120984767
:104C40000828F0D0072806D12846316CFFF7E6FF88
:104C5000301DFBF7A9FD00F075FD00BF2DE9F04701
:104C60000D1DD0F80C80D0F81890074614460FCDD3
:104C7000ADF5727D0DF10C0CACE80F000FCDACE87A
:104C80000F000FCDACE80F0095E80F0002AE4FF01B
:104C9000000E8CE80F00C6F800E020E0336C7B616A
:104CA0004FF4F07231467AA8FBF7AAFE3B697AAA64
:104CB000394650469847889B73642146CDE9006980
:104CC00005463B463A460120C0470446E0B94FF44A
:104CD000F0727AA93046FBF793FE082D1AD1316C99
:104CE0003846FFF71DFF09345FFA84FA05460028AD
:104CF000D4D0B36B73643A46CDE900693B464AF0C1
:104D000010010120C04700B1092528460DF5727D2C
:104D1000BDE8F087072DF7D12046316CFFF77EFF05
:104D200003A8FBF741FD00BFF0B5CB6B0B6401F1AD
:104D3000040C0E460546BCE80F00F9B001AC0FC4E8
:104D4000BCE80F000FC4BCE80F000FC49CE80F00C4
:104D50004FF0FF3784E80F00009706E02B696A46A2
:104D6000294698470828044608D110992846FFF795
:104D7000D7FE0028F2D0092079B0F0BD6846FFF7D1
:104D80001BFF062CF7D131462846FFF749FF00BF2D
:104D9000C160D96B8261196400221946FFF75EBFBA
:104DA00070B5C66843690B64AEB903690A46044628
:104DB0000D46014602209847072805D008280FD144
:104DC00029462046FFF72CFF3046296CFFF726FFC7
:104DD000281DFBF7E9FC0122FFF740FF00F0B2FCC1
:104DE00000F0B0FCC26822B1CA6B0A640022FFF76F
:104DF00035BFFFF799BF00BF012912D009D873B999
:104E00000F2A0CD800EB820218465368009A1360F0
:104E100070470339012994BF012002207047022006
:104E200070470846704700BF00B585B00A460023AA
:104E300003A900911946FFF7DFFF039805B05DF85D
:104E400004FB00BF012912D009D873B90F2A0CD86E
:104E5000009900EB820209685160184670470339D7
:104E6000012994BF012002207047022070470846A4
:104E7000704700BF10B584B0002303AC03920094C8
:104E80000A461946FFF7DEFF04B010BD70B5D36BBC
:104E9000136402F1040C05460C46BCE80F00ADF5A6
:104EA0000E7D0DF15C0EAEE80F00BCE80F00AEE821
:104EB0000F00BCE80F00AEE80F009CE80F004FF0B9
:104EC000FF368EE80F00169610E0FFF7D3FF21465D
:104ED00016A8A847034616AA6946082083B9049B6A
:104EE0009847052806460CD0092809D02699684617
:104EF000FFF716FE03466A460C2116A8002BE4D0E5
:104F0000092616A8FFF758FE30460DF50E7D70BD38
:104F10002DE9F04FCC6C89B01E4654F8043B069442
:104F20000D46174600F00308002E79D01A0C8DF8B4
:104F30001D201B04D2B2059304EB820402238DF8DA
:104F40001C302B6DB8F1020F08BFAC6B13F00103DE
:104F50000CD005A9384600F0AFFA18B9082009B0FE
:104F6000BDE8F08F092009B0BDE8F08FD4F800A0AB
:104F7000BAF1000FEDD0019300F008030293022E66
:104F80004AD0B4F800A0B4F802900434AB6C29F015
:104F9000010B0F2138469B44FFF746FF834539D864
:104FA0002AF001025A44824294BF002201224FEAB1
:104FB000490303F002030AF0010A43EA0A03012B42
:104FC0004BD0022B32D0002BCCD1B8F1000F02D045
:104FD000002A40F0CD800434D4F800A0BAF1000FCC
:104FE000CDD105A9384600F067FA0028BAD1019B57
:104FF000002BB3D00F213846FFF716FF0E210246D3
:105000003846FFF737FF38466A4A0F21FFF732FF6D
:105010000720A8E70022CAE7D4F804900834B5E7CF
:105020001B0205938DF81D60032388E7D4F80090D8
:1050300029F0004BB8F1000F46D12AB1029B002B9A
:105040005BD0BBF1000F73D0B9F1000F00DA04346C
:105050000BF1010B04EB8B04BEE7B8F1000F19D183
:10506000B2B161682268881C4FEAD2723FF47AAF0D
:1050700005F158030131049300F08E80201DFFF7E5
:10508000C7FD04AB01462846AFF30080002859D184
:105090000834A1E70D213846D5F82090FFF7C4FE6B
:1050A0008145F5D1AB6A9C42F2D12046FFF7ECFC7A
:1050B0000F2102463846FFF7DDFE38462A4600211A
:1050C000FFF7D8FE07204EE70D213846D5F820A07F
:1050D000FFF7AAFE8245B7D1AB6A9C42B4D1042344
:1050E0000022C5E90B23E318C5F828B06B632368D9
:1050F000002B59DB01230193AAE7994605F15803D8
:10510000CDF80C8004F1040AB0461E460EE050466D
:105110000496FFF77DFD0022014604AB284609F105
:1051200001090AF1040AAFF30080D8B9D945EED1DC
:105130000D213846FFF778FE049B2862C5E9093443
:10514000062010E781460D213846FFF76DFEB9F1C4
:10515000020F04BF2B46049A286214BF049B43F835
:105160002C2FEBE74646D4F80090DDF80C806BE777
:105170002046FFF789FC04340246AC6328461446F7
:10518000AFF3008000283FF4EDAE384622460F21F1
:10519000FFF770FE0720E6E60D2138460193FFF782
:1051A00043FE019B2862C9E70BF1010004EB80007C
:1051B0007CE700BF000000000023FFF7A9BE00BF8E
:1051C0000123FFF7A5BE00BF0223FFF7A1BE00BF6A
:1051D0002DE9F0430646C3B091461C46042900F26F
:1051E0009B80DFE801F07B56992E0300002C40F0F5
:1051F0009380102A00F290800368DC0600F1F380AF
:1052000020AF3846FBF742FBB46B394600234FF022
:10521000010C0CFA03F212EA090F204603F1010314
:1052200003D050F8042B0A600446042B01F104015A
:10523000EFD13846B463FBF71FFB002043B0BDE855
:10524000F083032C68D194B204EB1243102B4FEA85
:10525000124961D803681D0700F1CD8020AF3846A0
:10526000FBF7E8FAB26B07EBC90154B10B46D01A51
:1052700001EBC401E4001D5843F8045B8B42FAD1F2
:1052800022443846B263FBF7B3FA002043B0BDE8CE
:10529000F083012C4FEA12481FFA82F938D0052C0E
:1052A0003AD108EB0903202B36D8B8F10F0F76D985
:1052B000B9F1000F40F083800F2B0BD83368D8076B
:1052C00008D5304623F0010343F0020340F8483B81
:1052D000FBF782FA002043B0BDE8F083E4B9876BA6
:1052E00023461FFA82FC0120341D00FA03F212EA61
:1052F0000C0F394604D051F8042B44F823200F46F4
:105300000133102BF1D119F40050E3D1B76304E05D
:1053100008EB0903102B03D9022043B0BDE8F0834A
:10532000B8F10F0FF8D83368DA0706D5304623F006
:10533000030340F8483BFBF747FA20AF38464D4699
:10534000FBF742FAB26B002D5ED04FF0000907EB7D
:10535000C80102EBC503043952F8040B41F8040FED
:105360009A42F9D1B9F1000F54D06F464146102945
:1053700038BF102107EBC101843903EBC90253F890
:10538000045B41F8045F9A42F9D1012C3BD0B8F19B
:105390000F0FB26358D93846FBF722FA9AE7102B61
:1053A00054D93268D707A3F1100909D522F00103B7
:1053B000304643F0020340F8483BFBF70DFA3268F1
:1053C000530739D4B8F10F0F02D820A8FBF704FA1D
:1053D0006F463846C8F11005FBF706FA002DB26B90
:1053E00028DD20AFB3E723F01003036000F5E87079
:1053F000FBF74CFA04E723F00803036000F5A870FC
:10540000FBF718FA2AE720AF0432B2633846FBF7FD
:10541000D7F95FE7012CF7D0B8F10F0FB2633FF671
:1054200059AF3846FBF7D4F9B9F1000F3FF452AF4A
:105430006F46B0E7134699E7304622F0040240F881
:10544000D02BFBF7D1F9BDE720AFEAE73368D907E6
:1054500008D523F00103304643F0020340F8483BEF
:10546000FBF7BAF920AF38464D46FBF7B5F9B26BFA
:10547000002D7FF46AAF3846FBF7AAF92AE700BF90
:10548000027A03467AB9427AA2B14168013A10B46D
:105490004272086803220C1D1A7202025C60000E40
:1054A00010BC1A6070470068013A1A7202021A6052
:1054B000000E7047B02070472DE9F04385B00746D5
:1054C0000E464FF0000803AD3046FFF7D9FFB02875
:1054D000044600F0CB80030640D500F0F003802B9B
:1054E00056D0B02B7DD01CD8902B00F09380A02BF1
:1054F00013D1C34303F007034FF47F621A4101073E
:1055000002F47F624FF0000348BF42F48042194624
:105510003846FFF75DFE0028D6D0092005B0BDE86B
:10552000F083C02B4BD1C62800F08980C72800F03B
:10553000A28000F0F803C02B00F0BC80C82800F067
:10554000BF80C928E9D13046FFF79AFF020300F077
:105550000F0002F470220130024339E08300DBB215
:1055600003F104090023194600950D223846FFF780
:1055700043FC039B60064CBFA3EB09034B4403931E
:10558000002300950D2219463846FFF75BFC9BE788
:1055900004023046FFF774FF2043B0F5004FBCD043
:1055A00004010023A2B219463846FFF711FE002875
:1055B000B3D114F4004F18BF4FF0010884E700F096
:1055C000F803D02BA9D100F00702013242F40022E7
:1055D000052301213846FFF7FBFD00283FF474AF97
:1055E0009BE7B12837D0B22800F08780B32856D087
:1055F00000F0FC03B42B90D000F00702013242F41B
:105600000022012319463846FFF7E2FD00283FF447
:105610005BAF82E700F00D030D2B3FF47EAF00235C
:1056200000F00F02194600953846FFF7E5FB00230E
:1056300000950D2219463846FFF704FC44E7304632
:10564000FFF71EFF020300F00F0002F4702201308A
:1056500002430323D6E73046FFF712FF0246002835
:105660003FF45BAF10F0F003CCD056E7B8F1000F79
:1056700032D0002052E73046FFF702FF02460028F2
:105680003FF44BAF10F0F00F7FF447AF002304213D
:105690003846FFF79DFD00283FF416AF3DE7304642
:1056A000FFF7EEFE020300F00F0002F4702201305B
:1056B0000243A6E700F00F02013242F42022C8E7BD
:1056C0003046FFF7DDFE00F0F00200F00F0310326D
:1056D000013343EA02327BE703AC43460E224146E4
:1056E00000943846FFF788FB009443460F2241465A
:1056F0003846FFF7A7FB404610E700230D22194666
:1057000000953846FFF778FB3046FFF7B9FE0206F2
:10571000039C4FF002090CD500F07F0000FA09F05D
:10572000044430460394FFF7ABFE030609F1070972
:10573000F2D400F07F0303FA09F304F50174234463
:105740001DE700BF08B5062002F0A0F8012003F015
:1057500009F800BF00B50B4C25681446EE681A46E0
:1057600085B003460D464CB107490095CDE90114BB
:105770003046064900F0DEFAFFF7E4FF04490C4624
:10578000F3E700BF40080020D08C0000E08C000050
:10579000DC8C0000002301461A46184602F072B95C
:1057A00008B50021044602F0BBF9034B1B6803B1A6
:1057B0009847204602F0D6FFDC3900202DE9F04F53
:1057C00001F10B06162E83B0044624D8102900F2EE
:1057D000BA8000F0A3FA102618220220B54F3A44EE
:1057E000A2F1080153688B4200F0BA805A68D96868
:1057F00022F003021A449D68E9608D60516841F00F
:1058000001012046516003F1080500F08DFA284699
:1058100003B0BDE8F08F36F0070600F19480B14286
:1058200000F2918000F07AFAB6F5FC7FC0F09A8120
:10583000730A00F08F80042B00F26F81B30903F12B
:10584000390003F1380CC3009A4F3B44A3F108051B
:105850005B689D4206D10CE0002980F22781DB685D
:105860009D4206D05A6822F00302911B0F29F3DDF6
:1058700060463D69DFF850C265457CD06A6822F019
:105880000302931B0F2B00F37B81002BC7E904CC91
:1058900080F26C81B2F5007F80F01A81D3087968BC
:1058A00001334FEA521E012202FA0EF20A4357F860
:1058B00033E0C5F808E007EBC3010839E9607A6016
:1058C00047F83350CEF80C50831001219940914293
:1058D00057D8114206D120F003004900114200F1CF
:1058E0000400FAD007EBC0094D468646D5F80C8077
:1058F000454508D11DE1002B80F22481D8F80C80A9
:10590000454500F01681D8F8042022F00302931BCD
:105910000F2BF0DD2046D8E9025408EB060146F0D3
:105920000106C8F80460EC60A56043F00104C7E913
:105930000411C1E902CC4C6048F8023000F0F4F9DF
:1059400008F1080502E00C2323600025284603B077
:10595000BDE8F08F4FF4007340204FF03F0C73E729
:10596000D3689A4208BF02307FF440AF3D69DFF848
:1059700058C1654582D17A688310012199409142CE
:10598000A7D9BD686B6823F003094E4503D8A9EB7E
:1059900006030F2B7ADCDFF834B1474BDBF800202D
:1059A0001B680132334405EB090A00F0338103F52B
:1059B00080530F3323F47F6828F00F0841462046B8
:1059C00001F0F2FF411C024600F0F380824500F234
:1059D000EE803A4B196841441960084600F04E8148
:1059E000DBF80010019301311BBFA2EB0A0109187B
:1059F000CBF80020196012F0070B00F01781CBF1F3
:105A000008010A44CBF5805190440831A1EB08010C
:105A1000C1F30B0A51462046009201F0C5FF421C1B
:105A2000DDE9002300F04F81801A00EB0A081968B5
:105A3000BA6048F001005144BD425060196000F066
:105A40002981B9F10F0F40F227816868A9F10C0C88
:105A50002CF0070C00F0010040EA0C0068604FF0E9
:105A6000050E05EB0C00BCF10F0FC0E901EE00F2D2
:105A7000328150681546124B1A688A4238BF196045
:105A8000104B1A688A4238BF196094E0AA1943F093
:105A9000010346F001066E602046BA60536000F0D4
:105AA00043F90835284603B0BDE8F08FD9681A4499
:105AB000A1E600BF94010020A0380020703800202B
:105AC000983800209C3800209C0100209C05002074
:105AD000B2F5206F4FEA522363D3142B00F2B78044
:105AE00003F15C01C9005B3307EB010E7958AEF19D
:105AF000080E8E4500F091804B6823F0030393421B
:105B000002D989688E45F7D1D1F80CE07A68C5E9E9
:105B1000021ECEF80850CD60D6E6142B59D9542B6E
:105B200000F29D80330B03F16F0003F16E0CC30094
:105B30008AE60EF1010E1EF0030F05F108057FF451
:105B4000D5AE51E0424445465368D8F80C1043F0B6
:105B50000103536055F8083F2046D9608B6000F080
:105B6000E3F8F3E6F00806F1080237E62A44204697
:105B7000536843F001035360083500F0D5F8E5E6BB
:105B8000A919204646F0010643F001046E60C7E9FA
:105B90000411C1E902CC4C60AB5000F0C5F80835E7
:105BA000D4E6930903F13901C90038339CE7BD42BB
:105BB0005FD0BD68686820F003084645A8EB06037F
:105BC00002D80F2B3FF762AF204600F0ADF800255A
:105BD000BCE603F15C0003F15B0CC30034E659F84A
:105BE00008394B4540F0968010F0030F00F1FF306C
:105BF000F5D17B6823EA01037B60490099423FF6B7
:105C0000C0AE19B9BDE649000EF1040E1942FAD032
:105C1000704667E603F11008D0E69A104FF00108CD
:105C20007B6808FA02F21A437A6070E702EB080117
:105C30004942C1F30B0A51462046009201F0B4FEDE
:105C4000431CDDE900237FF4EFAEDA46EFE6542B88
:105C500025D8130B03F16F01C9006E3344E7B3F588
:105C6000AA7F25D8F30B03F1780003F1770CC3006A
:105C7000EAE5294B186840441860B1E6CAF30B0CFA
:105C8000BCF1000F7FF4ACAEBD68C84448F0010021
:105C90006860F0E61546EEE60123536094E7B3F53D
:105CA000AA7F23D8D30B03F17801C90077331BE710
:105CB00040F25452934223D8B30C03F17D0003F118
:105CC0007C0CC300C0E5ABF1080BD844A8EB02087C
:105CD0004FF0000AABE605F108012046009301F001
:105CE000D3FFBD68009B68681968C4E640F2545150
:105CF0008B420BD8930C03F17D01C9007C33F3E692
:105D00004FF47E737F204FF07E0C9DE54FF47E7143
:105D10007E23E9E67B6870E770380020014801F0D7
:105D2000ADBE00BFE8390020014801F0A9BE00BFA8
